:020000040800F2
:100000000050002085600008416300084563000837
:10001000496300084D63000851630008A1630008AC
:10002000A1630008A1630008A1630008A1630008A0
:10003000A1630008A1630008A1630008D967000854
:10004000A1630008A1630008A1630008615F0008C4
:10005000A1630008A1630008A1630008A163000870
:10006000A1630008A1630008A1630008A163000860
:10007000A1630008A1630008A1630008A163000850
:10008000A1630008A1630008F9630008A1630008E8
:10009000A1630008A1630008A1630008A163000830
:1000A000816A0008A56A0008C96A0008016B000897
:1000B000556B0008C56B0008356C0008A16300088B
:1000C000A1630008A1630008A1630008A163000800
:1000D000A1630008B96D00080D6E0008616E00088C
:1000E000A1630008A95F0008A163000810B5054CD2
:1000F000237833B9044B13B10448AFF300800123D4
:10010000237010BD5011002000000000EC9D00087D
:1001100008B5064B1BB106480649AFF300800648F8
:10012000036813B1054B03B1984708BD00000000F8
:10013000EC9D000854110020501100200000000028
:10014000012902D11C30C0B27047062984BF01F1D9
:10015000FF31C9B211F0010F14BF1E201F207047DC
:10016000444B2DE9F047B1FBF3F603FB16113C239A
:10017000B1FBF3F203FB1212054602704FF461600B
:10018000B1FBF0F200FB1211B1FBF3F36B704FF413
:10019000FA63AA70B6B2EB80EC884FF4C873B4FB74
:1001A000F3F803FB18481FFA88F8B8F1000F16D0CF
:1001B0006423B4FBF3F203FB12439BB2002B53D036
:1001C00014F0030140F26D130CBF4FF4B7721A46DE
:1001D00096420EDB002908BF4FF4B77304E0B6F572
:1001E000B77F06DB4FF4B773F61A0134B6B2EC8072
:1001F000D2E700236B716423B4FBF3F703FB1747CB
:10020000BFB2B8F1000F06D03FB114F0030F14BF16
:100210000020012002E0012000E0384695F805901A
:10022000C0B24946FFF78CFF864209F1010A15D397
:10023000B8F1000F06D03FB114F0030F14BF002037
:10024000012002E0012000E03846C0B24946FFF735
:1002500077FF301A86B285F805A0D2E701362E71F5
:1002600085F805A0BDE8F087B6F5B67FC1DD40F2A0
:100270006D13B9E780510100F8B5427887783C23C7
:1002800003FB072702780579467903FB0727013D21
:10029000013EEDB2F6B2044605714671013E731C93
:1002A000E38834D04FF4C872B3FBF2F102FB113291
:1002B00092B262B16422B3FBF2F002FB103080B262
:1002C00030B113F0030F14BF0020012000E0012023
:1002D000C0B2F1B2FFF734FF284485B2DEE74FF435
:1002E000C872B3FBF2F102FB113292B2AAB16422DE
:1002F000B3FBF2F102FB113292B28AB113F0030F99
:1003000040F26D1208BF4FF4B7721544ADB2013B15
:100310009BB2B3F5FA6FE2D205E04FF4B772F4E79F
:1003200040F26D12F1E7024800FB0570F8BD00BF16
:100330008051010004F0C2BD38B50D46044604F0FA
:10034000D8FD290A49006039204601F0FE0104F079
:1003500067FE204604F03DFEE9B2204604F060FE50
:10036000204604F036FE204604F0C3FD2046A121BD
:1003700004F056FE204604F02CFE0021204604F036
:1003800076FE0546204604F007FE204604F0CCFD2C
:10039000284638BD70B50D461646044604F0A9FD42
:1003A000290A49006039204601F0FE0104F038FEB8
:1003B000204604F00EFEE9B2204604F031FE20464D
:1003C00004F007FE3146204604F02AFE204604F0E1
:1003D00000FE204604F0A8FDBDE870400A2007F0AA
:1003E000E1BA000008B5164A5178937843EA012330
:1003F000A3F52043142B1AD8DFE803F00B200D0FD0
:10040000191919191919191919191919191113156E
:100410001700002008BD022008BD072008BD0320EA
:1004200008BD042008BD052008BD062008BD002128
:100430008022034808F03EFA082008BD012008BDCC
:10044000B412002010B5074C6018114604F0D6FC19
:10045000054B1B781C4414F8073C1B1A58425841A2
:1004600010BD00BFB412002044130020084B1879BF
:100470005B7943EA002045F25553984205D04CF28F
:100480000303C31A5842584170470120704700BF08
:10049000B4120020044B9B79552B044B0CBF012256
:1004A00000221A70704700BFB41200209813002079
:1004B00010B5084CE379552B01D1012010BD064839
:1004C00001F021FFE3798342F7D0D0F1010038BF7A
:1004D000002010BDB41200207414002013B50D4B81
:1004E0001C7A552C01D1012012E00B48694601F01D
:1004F00065FE00231A461DF803108C42F3D019B98B
:100500000132D2B2052AEED00133052BF3D10020FF
:1005100002B010BDB41200207414002070B505465E
:100520001E46FFF78FFF044640B91C4AD3781A4491
:100530001379D62B02D01A481A492BE02846FFF728
:1005400095FF044678B12846FFF7A4FF2846FFF739
:10055000AFFF044670B96EB11349114806F0C4FEEE
:100560000F48124916E012490D4806F0BDFE0C482E
:1005700010490FE02846FFF7B1FF044660B99DF827
:1005800010300BB9012407E00B49054806F0ACFE1A
:1005900003480A4906F0A8FE204670BDB4120020A8
:1005A00020150020DCAF000800B0000837B00008BC
:1005B00080AF0008AEAF00086EB00008A6B000081B
:1005C000214B13B51B78002B3CD000230093042152
:1005D00017220123FFF7A2FF58B31C491C4806F05D
:1005E00083FE1B4806F02CFDC82007F0DBF9194BF1
:1005F0001C7A012C1AD1184A1848D97C147001F0C1
:10060000EBFE48B116480F21224604F041FF154881
:10061000214601F0DDFA0CE011481021022204F01D
:1006200037FF11490A4806F05FFE02E00C4804F06B
:10063000A9FD0E4B07481A78002102B0BDE8104012
:1006400008F038B902B010BD0E000020DAB0000882
:1006500020150020B41200200C000020721400208D
:100660001915002071140020FAB00008441300206E
:100670001D4B13B51B78002B33D0002300930421AE
:100680000A220123FFF74AFF10B31849184806F061
:100690002BFE174806F0D4FCC82007F083F9154B51
:1006A0000124154815491C7001F03AFD38B1144970
:1006B0000F4806F019FE13480321022206E01249F2
:1006C0000B4806F011FE0F480421224604F0E0FE1C
:1006D0000E4B0F481A78002102B0BDE8104008F018
:1006E000E9B802B010BD00BF0E0000203EB1000806
:1006F000201500200C00002074140020BC120020E3
:1007000056B100081915002098B1000844130020C4
:10071000B412002037B50023009304210F22FFF705
:10072000FDFE70B32449254806F0DEFD234806F09F
:1007300087FC234DC82007F035F9224B01242248BD
:1007400005F10A011C7001F060FB68B31E4805F159
:100750000A0101F09AFB38B31C49184806F0C4FDA1
:100760001948E97901F096FDA0B11949134806F03E
:10077000BBFD18480521224604F08AFE124801F00C
:1007800065FC154B0E481A78002103B0BDE83040D7
:1007900008F090B81149094806F0A6FD0D48062159
:1007A000224604F075FEECE70D49044806F09CFD76
:1007B000084806210122F4E7DAB1000820150020DC
:1007C000B41200200C0000207414002080B2000835
:1007D000F5B1000819150020441300203BB20008B1
:1007E000ADB2000870B52F4B88B01B78002B57D0E6
:1007F0002D4C0025E278009504210123FFF78EFEA1
:10080000002844D029492A4806F06EFD284806F001
:1008100017FCC82007F0C6F8264B254826491D704E
:1008200006F062FDA67AE37A03EB0626042E06D8CC
:100830001F482249052606F057FDA572E672204999
:1008400002A806F034FE02A905A806F074FE31469F
:1008500005A806F057FF0146154806F03BFD05A820
:1008600006F0E3FD02A806F0E0FD1648A17AE27A60
:1008700002F096F818B90E48134906F035FD627B70
:10088000237B009211480021012205F037F9104B1B
:1008900005481A78002108B0BDE8704008F00AB891
:1008A00008B070BD0E000020B4120020E8B20008AD
:1008B000201500200C00002004B300083DB3000800
:1008C00063B300087E14002073B3000819150020DC
:1008D000441300202DE9F041894B90B01B78002B88
:1008E00000F00B81874C0025E2780095042101235C
:1008F000FFF714FE002800F0F7808349834806F0D4
:10090000F3FC824806F09CFBC82007F04BF8804BB4
:10091000627A1D707F4B80491A70A27A7F4B7B48A8
:100920001A7006F0E1FC237BE67A0BAD7C4908A83F
:1009300003EB062606F0BBFD08A9284606F0FBFDE2
:100940003146284606F0DEFE0146704806F0C2FC3D
:10095000284606F06AFD08A806F067FD7148E17AAE
:10096000227B01F097FF064600284CD16E4967486C
:1009700006F0BAFC6D4B01223046FF211A7007F0D9
:1009800006F8FF210746304607F001F86849064699
:1009900005A806F08CFD05A9284606F0CCFD10221E
:1009A000F9B208A806F0EAFD08A9284606F077FE85
:1009B0000146564806F08EFC08A806F036FD28468B
:1009C00006F033FD05A806F030FD5A4905A806F0EB
:1009D0006EFD05A9284606F0AEFD1022F1B208A86A
:1009E00006F0CCFD08A9284606F059FE0146474806
:1009F00006F070FC08A806F018FD284606F015FD64
:100A000005A806F012FD28460021142207F052FF27
:100A1000E678093E142E01D8002305E03B484649FC
:100A200006F062FC022207E0B34204D2E218527BD5
:100A3000EA540133F8E703223C4BFF2100201A70EF
:100A400006F0A5FFFF218046002006F0A0FF3849F0
:100A5000074602A806F02BFD02A908A806F06BFDC8
:100A600010225FFA88F105A806F088FD05A908A8FC
:100A700006F015FE0146254806F02CFC05A806F0F8
:100A8000D4FC08A806F0D1FC02A806F0CEFC294947
:100A900002A806F00CFD02A908A806F04CFD1022E1
:100AA000F9B205A806F06AFD05A908A806F0F7FD49
:100AB0000146164806F00EFC05A806F0B6FC08A88C
:100AC00006F0B3FC02A806F0B0FC1C4829463246EA
:100AD00003F098FF637AE17A0093A37A227B019373
:100AE0001748012304F072FD164B06481A780021BE
:100AF00010B0BDE8F04107F0DDBE10B0BDE8F081F8
:100B00000E000020B4120020B4B30008201500200D
:100B10000C00002056130020DEB3000857130020FD
:100B200034B400087E14002044B400081A150020D4
:100B300085B4000891B400089DB40008D7140020C3
:100B40001915002044130020F0B53D4B89B01B78E7
:100B5000002B73D03B4E00230093F2780421012335
:100B6000FFF7DCFC384C002866D03849384806F0DE
:100B7000BBFB374806F064FAC82006F013FF354B7C
:100B80001A780AB15B785BB93349314806F0ACFB9F
:100B90000023009331482F490122314B00F096FE8B
:100BA000304B727A1B78274D9A4245D12E4BAA7A48
:100BB0001B789A4240D101232C492548237006F026
:100BC00093FB2B7BEF7A05AC294902A803EB07279F
:100BD00006F06DFC02A9204606F0ADFC3946204621
:100BE00006F090FD01461A4806F074FB204606F018
:100BF0001CFC02A806F019FCB32F07D814481D49A5
:100C000006F072FB0023EB72B4232B731A48F17ABF
:100C1000327B01F07BFE18B90D48184906F064FBE1
:100C20000023F218527BE2540133072BF9D1144808
:100C3000214602F0D1FC01E00023237009B0F0BD91
:100C40000E000020B41200200C000020EEB40008BA
:100C500020150020161500201AB500087114002078
:100C600033B5000856130020571300203DB5000887
:100C70009BB50008AEB500087E14002004B600083D
:100C8000A01400202DE9F0476C4B88B01B78002B96
:100C900000F0D1806A4E0024F278009404210123F0
:100CA000FFF73CFC002800F0BD806649664806F06E
:100CB0001BFB654806F0C4F9C82006F073FE634BC1
:100CC00001221A7005F07CFC02F04EFE032005F0B4
:100CD00027F95F4A5F4B14705F4A1C7014705F4ABB
:100CE0005F4B14705F4A1C7014705F4B5F4A1C703E
:100CF00014705F4B5F4A1C7014705F4B5F4A1C702E
:100D000014605F4B5F4A1C60147025469A465E4A29
:100D10000023A3505D4A5E4FA3505E4ADFF8AC81CA
:100D2000A3505D4ADFF8A891A3505C4AE351A35059
:100D30005B4AE8B2A3505B4A0121AB545A4A44F8DB
:100D40000830AB54594A44F80930AB54584A04347B
:100D5000AB54013504F022F8022DD8D1554896F84D
:100D6000481096F8492001F057FE10B13648524914
:100D700001E03548514906F0B7FA4E4801F088FEC7
:100D80004F49CAF8000002A806F091FB02A905A885
:100D900006F0D1FBDAF8001005A806F0B3FC014616
:100DA000294806F097FA05A806F03FFB02A806F0CE
:100DB0003CFB05F005FC0022214B1046114606EBDA
:100DC000D00494F84A400C41E40714D59D7ADC7AAB
:100DD00004EB0524BC5093F82A5093F82B4004EB05
:100DE000052448F8024093F84C5093F84D4004EB2A
:100DF000052449F802400131C9B2082900F1010077
:100E000008BF00210C2803F1020302F10402D6D12D
:100E10000D4806F015F92B480121094A04F0DEFCC3
:100E200002F084FD284B06481A78002108B0BDE87E
:100E3000F04707F03FBD08B0BDE8F0870E00002086
:100E4000B412002048B60008201500200C00002035
:100E5000B3140020B2140020B1140020B0140020FC
:100E6000A1140020C6140020D6140020EC1100208C
:100E7000BC1400203012002070140020B814002090
:100E8000DC130020B4140020F011002074120020A4
:100E90009C1300202014002058130020AC110020C7
:100EA0006C11002060140020341300204513002032
:100EB0000F0000207E14002075B60008B9B60008A7
:100EC00098C700081915002044130020E0130020E3
:100ED000341200202DE9F041774B98B01B78002B9D
:100EE00000F0E680754D0024EA7800940421012387
:100EF000FFF714FB002800F0C6807149714806F026
:100F0000F3F9704806F09CF8C82006F04BFD6E4BD4
:100F100001266E4895F8221095F823201E7001F0E6
:100F200051FC20B96A49674806F0DEF900E0264620
:100F30000024684963480FAF06F0D6F922233846EB
:100F400021461022049405948DF8103007F0B2FC6D
:100F500033238DF83C302346EA18927A04A95A5478
:100F60000133082BF8D10023EA18927CFA5401339C
:100F7000102BF9D1554801F083FB002800F08C803C
:100F80005248394601F0DAFB002800F085805249CA
:100F90004C4806F0A9F94D4801F041FB4F4803F0D9
:100FA0004FFFEC784748203CE4B24D4906F09CF9ED
:100FB0000A2C13D80023A34206AF05D2EA1892F8F0
:100FC0002420FA540133F6E745493E4806F08CF9EF
:100FD00044483946036822469B68984705F0F0FA72
:100FE0004FF47A7006F0DEFC00243E4806F044F828
:100FF00000280DF14C080DDD3A4805F0E9FF08F82E
:10100000040001340B2CF0D12E48374906F06CF95E
:10101000012421E004B3354909A806F048FA09A9DA
:101020000CA806F088FA21460CA806F06BFB0146D6
:10103000244806F04FF90CA806F0F7F909A806F0C5
:10104000F4F9002718F807101E481022013706F09F
:10105000E1F9A742F6D10CE01A48254906F044F917
:1010600034B11848234906F03FF90024042600E073
:1010700003266A7A2B7A8DE8040102941E483146D1
:10108000012204F037FB1D4B0C481A78002118B0E0
:10109000BDE8F04107F00EBC19490A4806F024F9F2
:1010A0000A4801F0D9FA0D4803F0CAFE022678E793
:1010B00018B0BDE8F08100BF0E000020B41200207F
:1010C00000B70008201500200C0000207E1400202E
:1010D0002AB7000865B7000838B8000814150020C2
:1010E00066C40008501500209DB70008B2B700087C
:1010F000C5B70008FDB700081915002044130020EB
:1011000075B8000810B50446FFF76CF9082834D804
:10111000DFE800F01F2429050A0F142E19002046CD
:10112000BDE81040FFF74CBA2046BDE81040FFF77D
:101130009FBA2046BDE81040FFF7ECBA2046BDE854
:101140001040FFF74FBB0D480D49BDE8104006F0B9
:10115000CBB82046BDE81040FFF7BCBB2046BDE839
:101160001040FFF7F1BC2046BDE81040FFF7B2BECB
:101170002046BDE81040FFF785BD10BD20150020BA
:10118000B2B800082DE9F047584E00278146377065
:1011900005F016FA3C463D46554805F06DFF00281F
:1011A00040F3A08005F00CFA96F800A050480AF130
:1011B0000103337005F00CFFDFF8508108F80A00D6
:1011C000032006F0EFFB33781022434413F8011C90
:1011D000484806F016F94748474906F06AF896F974
:1011E0000030002B13DA05F0EBF9404B43494FF088
:1011F000000A404883F800A006F076F84FF47A70B1
:1012000006F0D0FB40465146802207F053FB32786F
:1012100008EB020313F8013CFE2B04D1571EFFB26A
:10122000002C34D104E094BB0D2B01D12FE001241C
:10123000062DB1D132492F4806F056F82D4805F059
:10124000FFFE05F0BDF92B482E4906F04DF8294860
:1012500005F0F6FE37B92C4B1B7893B14846FFF7E3
:1012600051FF0EE031780023C91BDAB2F8188A4228
:10127000C0B203F10103EEDA18F8000008F802002A
:10128000F3E700233370BDE8F04705F099B9052D69
:10129000CDD8DFE805F003070A0D10130D2B12D08F
:1012A000002479E70A2B0BD110E00D2B08D110E0B8
:1012B0000A2B05D110E00D2B02D110E00A2BB9D07A
:1012C0000024254668E701252C4665E70124022510
:1012D00062E7012403255FE7012404255CE701247C
:1012E000052559E700233370BDE8F087441300203B
:1012F000501500202015002043D90008D0B8000860
:10130000F2B8000816B900080D000020B412002041
:1013100008B50520002106F0B5FA0520012106F0E8
:1013200015FB1F20002106F0ADFA1E20002106F05B
:10133000A9FA1E20012106F009FBBDE808401F2084
:10134000002106F003BB0000014805F0F3BE00BF1A
:101350005015002008B561B100211E2006F0F6FAF4
:10136000962006F01FFBBDE808401E20012106F074
:10137000EDBA08BD08B50021052006F0E7FA0C48D3
:1013800005F0DBFE0220002106F07CFA032000219C
:1013900006F078FA0220002106F0D8FA0320002196
:1013A00006F0D4FABDE808401E20002106F0CEBAAF
:1013B0005015002010B50B78452B12D14B78522BCD
:1013C0000FD18B78CC78303B03EB8303303C04EBBC
:1013D0004304E4B221460A22034806F01BF82046E3
:1013E00010BD0A2010BD00BF201500200B784F2B28
:1013F00007D148784B2804D113704B7801205370E3
:101400007047002070470000F0B593B00F46684663
:10141000684916461C4606F04AF8664903A806F0D5
:1014200046F806A8634906F042F80025B5420DD2F9
:10143000795D0A220FA806F0A1F80FA9684606F008
:10144000E9F80FA805F0F1FF0135EFE75A490CA8BC
:1014500006F02DF80CA9684606F0B9F900220346FB
:1014600069460FA806F0B6F90FA903A806F06DF8B3
:101470000FA805F0DAFF0CA805F0D7FF4E490CA81D
:1014800006F015F80CA9684606F0A1F9029B021DAA
:1014900069460FA806F09EF90FA906A806F055F8B0
:1014A0000FA805F0C2FF0CA805F0BFFF059B022B9B
:1014B00005D103A806F0D9F93038C5B210E0042BE5
:1014C00030D103A806F0D1F9642290FBF2F302FBBD
:1014D0001302303B303A03EB830302EB4305EDB2DA
:1014E000364909A805F0E3FF09A90FA806F023F87B
:1014F000102229460CA806F041F80CA90FA806F006
:10150000CEF82F4906F0D8F801462E4805F0E2FE45
:101510000CA805F08AFF0FA805F087FF09A805F0C1
:1015200084FF2570089B022B05D106A806F09DF9C3
:101530003038C5B210E0042B30D106A806F095F97A
:10154000642290FBF2F302FB1302303B303A03EBD0
:10155000830302EB4305EDB21B4909A805F0A7FF81
:1015600009A90FA805F0E7FF102229460CA806F0EC
:1015700005F80CA90FA806F092F8114906F09CF89E
:101580000146104805F0A6FE0CA805F04EFF0FA876
:1015900005F04BFF09A805F048FF657006A805F0A7
:1015A00044FF03A805F041FF684605F03EFF13B075
:1015B000F0BD00BF69D9000841B9000846B900086C
:1015C0004DB900082015002053B90008F8B54C7833
:1015D000432C08D18C78532C05D1CC78B4F151052B
:1015E0006C426C4100E000240026F5B24F5D0136EC
:1015F0003A2FFAD10135EDB200279542FEB207F13C
:10160000010706D811F805C0013501F806C0EDB292
:10161000F3E73CB92046C2B2B2420BD20A5C1A547C
:101620000130F8E7069A022412681470721ED2B2D2
:10163000FFF7EAFE0120F8BD37B5154809B915498D
:1016400000E0154905F035FE642006F0ABF90024F2
:101650000F4805F011FD0028E5B208DD062C14D076
:101660000B4805F0B5FC0DF804000134F0E755B166
:101670009DF802304F2B08D19DF80300B0F14B03C9
:101680005842584102E0284600E0002003B030BD37
:10169000501500205BB900085FB9000810B50121A2
:1016A0000446052006F052F907484FF4165105F09C
:1016B00041FD20460121FFF74DFE20460121BDE8F6
:1016C0001040FFF7B9BF00BF501500202DE9F041D1
:1016D0009EB005AD0C460746002190462846642280
:1016E000039307F0E7F821462C4805F0E2FD64205B
:1016F00006F058F90024294805F0BEFC0028E6B29F
:1017000007DD642C45D0254805F062FC28550134DE
:10171000F1E726B92249234805F0E6FD39E09DF8B6
:1017200014300D2B35D19DF815300A2B31D11EAB5D
:10173000334413F8653C0A2B2BD1023E1EAB3344D5
:1017400013F8643C0D2B24D10021CCB2A31CDBB2D6
:10175000B34201F1010107DA1EAA134413F8643CF5
:10176000144404F8643CF0E738462946FFF722FEAB
:101770000A280CD103AB009338462946224643463B
:10178000FFF724FF00280CBF0320022002E0012005
:1017900000E003201EB0BDE8F08100BF501500201E
:1017A00065B90008201500202DE9F041B2B00646C9
:1017B0000D4690460021642268461F4607F07AF8DD
:1017C00019A80021642207F075F80024E3B2E85C50
:1017D000013420B132AA134403F8640CF6E7014641
:1017E000CAB25D1818F80240EDB232AA01312A449B
:1017F00014B102F8644CF3E70D2302F8643C6B1C4F
:1018000032A8DBB203442F480A2203F8642C036891
:1018100019A95B6898472C48AA1C036819A99B68FA
:10182000D2B29847642006F0BDF8274805F024FCA2
:101830000028E5B208DD642C3FD0234805F0C8FB42
:101840000DF804000134F0E7002D36D09DF800308B
:101850000D2B32D19DF801300A2B2ED132AB2B4407
:1018600013F8C93C0A2B28D1023D32AB2B4413F8A4
:10187000C83C0D2B21D100218B1CDBB2AB4201F106
:10188000010209DA32A8034413F8C83CC9B2014482
:1018900001F8C83C1146EFE730466946FFF78AFD7C
:1018A0000A2808D1304669463A46FFF79FFD80F086
:1018B0000100C0B202E0012000E0032032B0BDE828
:1018C000F08100BF2015002050150020F7B51E46FE
:1018D000044617460D4600218DF80710FFF7ACFEB1
:1018E00004F06EFE204631462FB12A460DF1070363
:1018F000FFF7ECFE03E0089A2B46FFF755FF03289D
:101900002AD8DFE800F011040207002311E016488E
:10191000164901E01448164905F0E6FC204601216D
:10192000FFF78AFE00201CE012490F4805F0DCFC9E
:1019300012E09DF807205E1CDBB29A420A4809D9E2
:10194000E95C102205F05DFD07480B4905F0B1FC8C
:101950003346EEE705F0B2FC20460121FFF76CFEAE
:10196000012003B0F0BD00BF2015002079B90008A8
:101970008AB9000893B9000843D900082DE9F0435B
:101980008BB004AF804600210922384602AE002405
:1019900006F090FF00944046314601222C4BFFF7A1
:1019A00095FF054610B92B482B494BE02346F25CC6
:1019B00007AC092A01D8303204E0A2F10A01052956
:1019C00098BF3732E2540133082BF0D14FF00009B1
:1019D00022488DF8249000F0EFFD0246C0B1204966
:1019E0001C4805F081FC1D48394600F053FD50B1FC
:1019F0004B46E15CFA5C914217D10133082BF8D1D8
:101A0000144818491EE01849124805F06DFC07E01B
:101A1000009440463146154BFFF758FF054698B1F4
:101A200021460E4800F086FD0AE01149094805F0FC
:101A30005BFC00974046314600220C4BFFF746FF07
:101A4000054601E005F050FC28460BB0BDE8F083E8
:101A5000A9B9000820150020B4B9000872140020AC
:101A6000D4B900085CBA0008F2B9000816BA000838
:101A70001FBA00082DE9F04F89B002AF07F10C063C
:101A80008346894690461C46304600210A2206F0CD
:101A900011FF002C50D1C7F804D05846CDF8008073
:101AA000314601224B46FFF711FF824608B121461D
:101AB00006E04049404805F017FC3F483F496FE0C9
:101AC000CCB218F804300131002BF9D1E11D01F43A
:101AD000FC71ADEB010D02A9D8B2A04203D2F05CBB
:101AE000C8540133F8E70B46581AC0B2A0420DD2D1
:101AF00013F8010B092801D8303004E0A0F10A05E1
:101B0000052DF1D8373003F8010CEDE70025EBB2D5
:101B1000A34243D24B5D013508EB050010F8010CE0
:101B20009842F4D02649244805F0DEFB2248254996
:101B300005F0DAFB7B689D466C460023DAB219F8A3
:101B4000021001330A29F9D1931D03F4FC73ADEBA4
:101B5000030DA2F1020E02AB0020C1B2551EA94234
:101B600000F1010003DA19F801505D54F5E7002295
:101B70003D215A55584603F80E10CDF800803146E5
:101B8000FFF7A4FE054628B90B480F4905F0ACFB4A
:101B9000AA4601E04FF0010AA54605E006480B49B8
:101BA00005F0A2FB7B689D4650461C37BD46BDE84C
:101BB000F08F00BF86BA000820150020ACBA0008DC
:101BC000D0BA000827BB000869BB00089EBB00080C
:101BD0007FB50F2204460D466846002106F06AFED6
:101BE0006248634905F080FB0A2604F0E9FC002DF9
:101BF0006CD12046FFF7C2FE5E498DF800005E4AB8
:101C00002B462046FFF736FF5C498DF801005C4A01
:101C10002B462046FFF72EFF5A498DF802005A4AFC
:101C20002B462046FFF726FF58498DF80300584AF7
:101C30002B462046FFF71EFF564A57492B468DF884
:101C400004002046FFF716FF8DF80500534800F00A
:101C500003FCF1280CBF524A494A52492B46204600
:101C6000FFF708FF50498DF80600504A0023204630
:101C7000FFF700FF4E498DF807004C4A002320462D
:101C8000FFF7F8FE4B498DF80800454A002320462F
:101C9000FFF7F0FE48498DF80900484A0023204626
:101CA000FFF7E8FE46498DF80A00464A0023204621
:101CB000FFF7E0FE324A8DF80B004349204600232F
:101CC000FFF7D8FE0D228DF80C000EE0334800F02F
:101CD000C3FBF1280CBF324A294A20463149002370
:101CE000FFF7C8FE01228DF8000000231DF8031045
:101CF000A9B936491D4805F0F7FA2046FFF7CEFC92
:101D00002046FFF737FB04F05BFC2046FFF7C6FCDC
:101D10004FF4FA6005F046FE04F052FC05E0013392
:101D2000D9B29142E2D304B070BD294805F0A4F9BC
:101D3000002803DD264805F04BF9F6E7013E16F0D2
:101D4000FF067FF452AF2349084805F0CDFA224937
:101D5000064805F0C9FA40F6B83005F023FE04F055
:101D60002FFC04B0BDE8704004F05EBC20150020DC
:101D7000C6BB0008F5BB000801BC00080ABC00088F
:101D800007BC000814BC000820BC000829BC0008DF
:101D900035BC000849BC00083EBC00087214002095
:101DA00056BC00084CBC000859BC000863BC0008C5
:101DB00066BC000870BC00087ABC000883BC000840
:101DC00086BC000890BC000893BC00089DBC0008BD
:101DD00050150020BABC0008E6BC000815200121FF
:101DE00005F0B4BD1520002105F0B0BD10B50021EF
:101DF0000446152005F046FD1520012105F0A6FD3D
:101E00002046BDE81040FEF795BA7FB505460E4660
:101E1000FFF7E8FF0D2433192146284613F80D2C4F
:101E20000134FEF7B7FA162CF5D13046092102F03D
:101E3000E5FF0646214628463246FEF7ABFA0D245A
:101E400021462846FEF778FA01AB23440134162CCC
:101E500003F80D0CF4D101A8092102F0CFFFB04224
:101E600003D0FFF7BBFF00200DE028460B21FEF753
:101E700063FA552804D028460B215522FEF78AFA2A
:101E8000FFF7ACFF012004B070BD7FB505460E46DC
:101E9000FFF7A8FF172433192146284613F8172CFB
:101EA0000134FEF777FA202CF5D13046092102F0F3
:101EB000A5FF0646214628463246FEF76BFA172450
:101EC00021462846FEF738FA01AB23440134202C82
:101ED00003F8170CF4D101A8092102F08FFFB042DA
:101EE00003D0FFF77BFF00200DE028460C21FEF712
:101EF00023FA552804D028460C215522FEF74AFA29
:101F0000FFF76CFF012004B070BDF0B585B001ADE6
:101F100006460F4628460021092206F0CBFC0D2478
:101F200021463046FEF708FA2B190134162C03F827
:101F30000D0CF5D121463046FEF7FEF90921044685
:101F4000284602F05BFF844206D10023EA5CFA5483
:101F50000133092BFAD101E0002000E0012005B097
:101F6000F0BDF0B585B001AD06460F46284600210C
:101F7000092206F09FFC172421463046FEF7DCF9C3
:101F80002B190134202C03F8170CF5D121463046CB
:101F9000FEF7D2F909210446284602F02FFF8442B9
:101FA00006D10023EA5CFA540133092BFAD101E08F
:101FB000002000E0012005B0F0BD37B50C461E2121
:101FC0000546FEF7B9F91F218DF804002846FEF7F3
:101FD000B3F902218DF8050001A802F00FFF20706F
:101FE00003B030BD10B50B210446FEF7A5F988B14A
:101FF000FFF7F8FE204600220B21FEF7CBF9FFF792
:10200000EDFE20460B21FEF797F9D0F1010038BF15
:10201000002010BD012010BD10B50C210446FEF7B4
:102020008BF988B1FFF7DEFE204600220C21FEF777
:10203000B1F9FFF7D3FE20460C21FEF77DF9D0F170
:10204000010038BF002010BD012010BD10B52121B6
:102050000446FEF771F9552811D0FFF7C3FE20465C
:1020600055222121FEF796F9FFF7B8FE20462121DF
:10207000FEF762F9B0F155035842584110BD0120F6
:1020800010BD08B52121FEF757F9B0F155035842AC
:10209000584108BD70B504460D46FFF736FF20B124
:1020A00020462946FFF75DFF48BB20462946FFF73B
:1020B0002CFF48B11549164805F016F92046294667
:1020C000BDE87040FFF7E1BE20462946FFF749FF13
:1020D00006460F4846B10F4905F006F92046294645
:1020E000BDE87040FFF791BE0B4905F0FDF82046B2
:1020F000FFF778FF2046FFF78FFF304670BD074996
:10210000034805F0F1F8012070BD00BF0FBD0008C5
:102110002015002046BD00087DBD000891BD0008C7
:10212000F8B504460E462F2573192046294613F8A4
:102130002F7CFEF701F9874203D10135342DF3D10D
:1021400036E0FFF74FFE2F2573192946204613F876
:102150002F2C0135FEF71EF9342DF5D1052130461F
:1021600002F04CFE0746294620463A46FEF712F991
:102170002F2520462946FEF7DFF8731913F82F3C68
:10218000834217D10135342DF3D120462946FEF77D
:10219000D3F8B8420ED120463521FEF7CDF85528A8
:1021A00004D0204635215522FEF7F4F8FFF716FE3D
:1021B0000120F8BDFFF712FE0020F8BDF7B5054677
:1021C0000E462F2421462846FEF7B6F800AB2344DE
:1021D0000134342C03F82F0CF4D10521684602F0A9
:1021E0000DFE214607462846FEF7A6F8874207D18E
:1021F00000231DF80320F2540133052BF9D101E02F
:10220000002000E0012003B0F0BD73B505462F2487
:1022100021462846FEF790F800AB23440134342CC5
:1022200003F82F0CF4D16846052102F0E7FD2146A2
:1022300006462846FEF780F8331A5842584102B045
:1022400070BD38B50546FFF7CDFD2F242846214641
:10225000FEF772F868B1284621460022FEF79AF888
:1022600028462146FEF768F818B1FFF7B7FD0020B1
:1022700038BD0134342CE9D128463521FEF75CF80D
:1022800020B1284635210022FEF784F8FFF7A6FD8D
:10229000012038BD37B50D468DF8071036210446AC
:1022A000FEF74AF885422BD002ADFFF79BFD15F8EB
:1022B000012D20463621FEF76DF80121284602F057
:1022C0009DFD372102462046FEF764F82046362160
:1022D000FEF732F89DF8073083420DD120463821B1
:1022E000FEF72AF8552804D0204638215522FEF75B
:1022F00051F8FFF773FD03E0FFF770FD002000E0E9
:10230000012003B030BD3621FEF716B837B53621AF
:102310000546FEF711F802AB03F8010D184601213E
:1023200002F06CFD372104462846FEF705F8231A13
:102330005842584103B030BD10B536210446FDF770
:10234000FBFF88B1FFF74EFD204636210022FEF745
:1023500021F820463621FDF7EFFF18B1FFF73EFDCB
:10236000002010BDFFF73AFD012010BD10B5482137
:102370000446FDF7E1FF552811D0FFF733FD204655
:1023800055224821FEF706F8FFF728FD2046482190
:10239000FDF7D2FFB0F155035842584110BD01205E
:1023A00010BD10B54D210446FDF7C6FF552810D0CD
:1023B000FFF718FD204655224D21FDF7EBFFFFF7F3
:1023C0000DFD20460021FDF7B7FF003018BF0120AA
:1023D00010BD012010BD000037B58DF80710103179
:1023E000C9B20129044629D84C21FDF7A5FF9DF863
:1023F0000730834228D002ADFFF7F4FC15F8012D19
:1024000020464C21FDF7C6FF0121284602F0F6FCCC
:102410004E2102462046FDF7BDFF20464C21FDF728
:102420008BFF9DF80730834205D12046FFF7B9FFA7
:10243000FFF7D4FC08E0FFF7D1FC03E004480549AE
:1024400004F052FF002000E0012003B030BD00BFC7
:1024500020150020C1BD000837B54C210446FDF70A
:102460006BFF02AB03F8010D1846012102F0C6FC18
:102470004E2105462046FDF75FFF854202D19DF8BB
:10248000070004E02046F021FFF7A6FFF02003B08C
:1024900030BD0000F7B505460E464F2421462846BC
:1024A000FDF74AFF00AB23440134572C03F84F0CCF
:1024B000F4D10821684602F0A1FC214607462846CF
:1024C000FDF73AFF87420CD100231DF80320F25498
:1024D0000133082BF9D10448044904F005FF012019
:1024E00000E0002003B0F0BD20150020F7BD00087B
:1024F00010B558210446FDF71FFF552808D0FFF7F7
:1025000071FC204658215522FDF744FFFFF766FC79
:1025100010BD10B558210446FDF70EFF40B1FFF77E
:1025200061FC204658210022FDF734FFFFF756FCDE
:1025300010BD0000F7B50F460546FFF753FC3846BF
:10254000082102F05BFC4F2406463B192146284631
:1025500013F84F2C0134FDF71DFF572CF5D1214600
:1025600028463246FDF716FF4F2421462846FDF740
:10257000E3FE00AB23440134572C03F84F0CF4D195
:102580006846082102F03AFC864206D02846FFF74A
:10259000C0FFFFF723FC002007E00549054804F0D1
:1025A000A3FE2846FFF7A4FF012003B0F0BD00BF43
:1025B0000CBE00082015002008B55821FDF7BCFE10
:1025C000B0F155035842584108BD70B504460E4657
:1025D0001546FFF707FC204632462221FDF7DAFEBA
:1025E000204623212A46FDF7D5FEFFF7F7FB70BDF5
:1025F000FDF7A2BEFDF7A0BE70B504460E46154617
:10260000FFF7F0FB204632462421FDF7C3FE2046AB
:1026100025212A46FDF7BEFEFFF7E0FB70BD10B591
:102620000446FFF7DFFB204655225921FDF7B2FE95
:10263000FFF7D4FB20465921FDF77EFEB0F155038C
:102640005842584110BD08B55921FDF775FEB0F14B
:1026500055035842584108BD10B50446FFF7C2FB68
:10266000204600225921FDF795FEFFF7B7FB2046D3
:102670005921FDF761FED0F1010038BF002010BDE7
:1026800073B5002305460E4600930193FFF7AAFB9E
:102690005A2433192146284613F85A2C0134FDF7E1
:1026A00079FE622CF5D13046082102F0A7FB0646E0
:1026B000214628463246FDF76DFE5A24214628461B
:1026C000FDF73AFE00AB23440134622C03F85A0CA8
:1026D000F4D10821684602F091FB0446FFF77EFB27
:1026E000B442064804D1064904F0FEFD012003E08F
:1026F000044904F0F9FD002002B070BD201500204F
:1027000021BE00084FBE000838B5094905460948F2
:1027100004F0EAFD5A2421462846FDF70DFE064B3B
:102720001A190134622C02F85A0CF4D1184638BD3B
:1027300080BE0008201500207514002073B500230A
:1027400005460E4600930193FFF74CFB63243319B3
:102750002146284613F8632C0134FDF71BFE6B2C31
:10276000F5D13046082102F049FB06467321284680
:102770003246FDF70FFE632421462846FDF7DCFDB7
:1027800000AB234401346B2C03F8630CF4D1082113
:10279000684602F033FB0446FFF720FBB4420648CC
:1027A00004D1064904F0A0FD012003E0044904F02F
:1027B0009BFD002002B070BD20150020B8BE0008AF
:1027C000E6BE000870B50E46742104461546FDF7B6
:1027D000B3FDB04205D120467521FDF7ADFDA842FD
:1027E00019D0FFF7FFFA204674213246FDF7D2FDDB
:1027F000204675212A46FDF7CDFDFFF7EFFA20466A
:102800007421FDF799FDB0420BD120467521FDF7EB
:1028100093FDA84205D10649064804F065FD012054
:1028200070BD0549034804F05FFD002070BD00BF86
:102830005EBF00082015002080BF000810B50446C8
:10284000FFF7D0FA204674210022FDF7A3FD2046B1
:1028500075210022FDF79EFDFFF7C0FA2046742186
:10286000FDF76AFD20B920467521FDF765FD28B109
:102870000549064804F038FD002010BD044903480E
:1028800004F032FD012010BDA2BF00082015002079
:10289000C5BF000870B50E46762104461546FDF703
:1028A0004BFDB04205D120467721FDF745FDA842FA
:1028B00019D0FFF797FA204676213246FDF76AFDD8
:1028C000204677212A46FDF765FDFFF787FA204667
:1028D0007621FDF731FDB0420BD120467721FDF77F
:1028E0002BFDA84205D10649064804F0FDFC012055
:1028F00070BD0549034804F0F7FC002070BD00BF1F
:10290000E8BF00082015002010C0000870B50E4672
:102910007A2104461546FDF70FFDB04205D1204649
:102920007B21FDF709FDA84219D0FFF75BFA20468D
:102930007A213246FDF72EFD20467B212A46FDF7FF
:1029400029FDFFF74BFA20467A21FDF7F5FCB0424E
:102950000BD120467B21FDF7EFFCA84205D10649AB
:10296000064804F0C1FC012070BD0549034804F08D
:10297000BBFC002070BD00BF92C0000820150020E5
:10298000C4C0000838B57A210546FDF7D5FC7B2187
:1029900004462846FDF7D0FC00EB042038BD0000BB
:1029A00070B50E46782104461546FDF7C5FCB042C9
:1029B00005D120467921FDF7BFFCA84219D0FFF7C9
:1029C00011FA204678213246FDF7E4FC20467921B1
:1029D0002A46FDF7DFFCFFF701FA20467821FDF7D4
:1029E000ABFCB0420BD120467921FDF7A5FCA842F3
:1029F00005D10649064804F077FC012070BD054961
:102A0000034804F071FC002070BD00BF59C10008EC
:102A10002015002085C1000870B50E467C210446B3
:102A20001546FDF789FCB04205D120467D21FDF712
:102A300083FCA84219D0FFF7D5F920467C21324605
:102A4000FDF7A8FC20467D212A46FDF7A3FCFFF7F1
:102A5000C5F920467C21FDF76FFCB0420BD1204622
:102A60007D21FDF769FCA84205D10649064804F01E
:102A70003BFC012070BD0549034804F035FC0020F3
:102A800070BD00BF0BC20008201500203BC200082B
:102A900038B57C210546FDF74FFC7D2104462846CC
:102AA000FDF74AFC00EB042038BD002202604260C2
:102AB0007047006820B103688B4201D08068F9E755
:102AC000704770B504460C2016460D4605F0E0FB35
:102AD00000228260226880E860000AB9206001E07C
:102AE00062689060606070BD10B51446FFF7E1FF4A
:102AF00008B14460012010BD08B5FFF7DAFF00B14E
:102B0000406808BD01F51C414131FFF7DABF01F50E
:102B10001C414131FFF7E8BF01F51C414131FFF78E
:102B2000EBBF002A01F1010114BF4FF47F420022E4
:102B3000FFF7C7BF002A01F1010114BF4FF47F4224
:102B40000022FFF7D1BF08B50131FFF7D5FFB0F57F
:102B50007F435842584108BD01F51C5108B5113159
:102B6000FFF7CAFFB0F57F435842584108BD01F551
:102B7000EA413131FFF7C0BF70B504460D46094840
:102B80000949164604F0B0FBA06805F089FB022055
:102B9000207305F07DFB803D0323A0600570467027
:102BA000637370BD20150020A6C30008F8B5531E3E
:102BB0007C2B04460F46164602D903210A4617E02D
:102BC00001F51C414131FFF774FF18B9204603217C
:102BD00002220DE0A06805F063FB701C4000C0B24B
:102BE000207305F055FBA06030B920460321042274
:102BF000BDE8F840FFF7C0BF03230370237B002527
:102C0000023B4370E9192046FFF786FFA3680135B0
:102C1000020A03F81520A368B54203EB4503587078
:102C2000F0D103236373F8BD70B504460E46154614
:102C3000FFF76DFF18B920460621022208E0204662
:102C40003146FFF769FFA84206D02046062104223C
:102C5000BDE87040FFF790BF0223637370BD2DE99C
:102C6000F8431F4616467A1E7A2A044688469DF87F
:102C7000203002D8B3EB470F03D0204610210322A7
:102C80001CE006F51C45413505EB070920462946A1
:102C9000FFF70FFF18B92046102102220EE0013580
:102CA0004D45F3D1A06805F0FBFA0520207305F02F
:102CB000EFFAA06030B9204610210422BDE8F843A5
:102CC000FFF75ABF10230370330A437000230771C4
:102CD0008670C37008F106053744BE4205F102054F
:102CE0000BD015F8022C15F8013C3146204643EA7A
:102CF0000222FFF70CFF0136EFE703236373BDE801
:102D0000F8832DE9F843531EB3F5FA6F04460F46D6
:102D1000154602D30121032219E00131FFF7C9FE54
:102D200018B920460121022211E0A06805F0B8FA86
:102D3000C5F3C7036A070CBF023303332373207B39
:102D400005F0A6FAA06030B9204601210422BDE8B2
:102D5000F843FFF711BF01230370237B05EB07083E
:102D6000023B43703E46002546451CD03146204676
:102D7000FFF7E9FEC7F10109B1444FEAD909012182
:102D800009F10203A268A94010B1D05C014302E03E
:102D9000D05C20EA01010135EDB2082DD15408BF05
:102DA00000250136E0E703236373BDE8F8830000E4
:102DB0002DE9F843531EB3F5FA6F04460F46154646
:102DC00002D3022103221FE001F51C511131FFF74C
:102DD00070FE18B920460121022215E0224923483D
:102DE00004F082FAA06805F05BFAC5F3C7036A072E
:102DF0000CBF023303332373207B05F049FAA06034
:102E000030B9204602210422BDE8F843FFF7B4BEE2
:102E100002230370237B05EB0708023B43703E4609
:102E2000002546451CD031462046FFF795FEC7F1E8
:102E30000109B1444FEAD909012109F10203A2684D
:102E4000A94010B1D05C014302E0D05C20EA01014E
:102E50000135EDB2082DD15408BF00250136E0E759
:102E600003236373BDE8F883CBC30008201500205B
:102E7000F8B5531E7C2B04460F46164602D9042192
:102E8000032217E001F5EA413131FFF712FE18B9CC
:102E90002046012102220DE0A06805F001FA701C15
:102EA0004000C0B2207305F0F3F9A06030B90421EE
:102EB00020460A46BDE8F840FFF75EBE04230370D3
:102EC000237B0025023B4370E9192046FFF74FFEA4
:102ED000A3680135020A03F81520A368B54203EB85
:102EE00045035870F0D103236373F8BD70B5B2F594
:102EF0007F4F86B004460E4603D012B1052103224F
:102F000015E0151C18BF0125204631462A46FFF75B
:102F100011FE18B920460521022208E0204631465C
:102F2000FFF711FEA84205D0204605210422FFF735
:102F300023FE17E00C49684604F0B9FA694603A875
:102F400004F0F9FA094903A804F0B6FB0146084861
:102F500004F0C0F903A804F068FA684604F065FAC2
:102F60000223637306B070BDF5C300080DC40008EA
:102F7000201500202DE9F0438BB00446894604A8B3
:102F80006C49DF081D46164604F091FA04A907A80B
:102F900004F0D1FA394607A804F0B4FB01466648AC
:102FA00004F098F907A804F040FA04A804F03DFAE8
:102FB0006B0705F1FF3318BF0137B3F5F66F03D286
:102FC0009DF84830BB4207D05C495B4804F08CF95F
:102FD00020460F2103224DE0771C07EB0508204611
:102FE0003946FFF766FD18B920460F21022241E05D
:102FF00001374745F3D15048514904F075F9062788
:10300000504901A804F053FA01A904A804F093FA66
:10301000394604A804F076FB4B4904F04DFB10221E
:1030200019F80710804607A804F0A8FA07A9404637
:1030300004F035FB0146404804F04CF907A804F0C1
:10304000F4F904A804F0F1F9013701A804F0EDF94E
:10305000102FD5D13A49384804F046F9A06805F058
:103060001FF90520207305F013F9A06028B9204648
:103070000F210422FFF780FD58E00F230370330A6D
:1030800043702B0A8670C37005712D492A4804F0DD
:103090002BF906272B4901A804F009FA01A904A875
:1030A00004F049FA394604A804F02CFB264904F040
:1030B00003FB102219F80710804607A804F05EFAF7
:1030C00007A9404604F0EBFA01461B4804F002F958
:1030D00007A804F0AAF904A804F0A7F9013701A889
:1030E00004F0A3F9102FD5D11348154904F0FCF8CA
:1030F0003544B0460027C6EB080309EBD3039A79A1
:1031000041463A410137FFB2204602F00102FFF783
:1031100011FD08F10108082F08BF0027A845EAD1D2
:1031200005480A4904F0E0F8032363730BB0BDE8D7
:10313000F08300BF1FC400082015002031C4000820
:10314000B4CE000852C4000859C400085DC4000889
:103150002DE9F0418B784F788CB0CE7843EA072781
:103160000B7991F800800C460546544903A843EAC0
:10317000062604F09CF903A909A804F0DCF9102242
:10318000217806A804F0FAF906A909A804F087FA3C
:1031900001464B4804F09EF806A804F046F909A839
:1031A00004F043F903A804F040F9464903A804F0E9
:1031B0007EF903A909A804F0BEF91022394606A831
:1031C00004F0FFF906A909A804F069FA01463C4891
:1031D00004F080F806A804F028F909A804F025F9FD
:1031E00003A804F022F9384903A804F060F903A900
:1031F00009A804F0A0F91022314606A804F0E1F96C
:1032000006A909A804F04BFA01462D4804F062F81B
:1032100006A804F00AF909A804F007F903A804F0C5
:1032200004F908F1FF330F2B3FD8DFE803F01D232B
:103230000E292F083E3E3E3E3E3E3E3E3514284679
:1032400039463246FFF7F0FC34E02846394632462C
:10325000FFF7ACFC2EE063792846009321463A46FE
:103260003346FFF7FCFC25E0284639463246FFF797
:1032700048FD1FE0284639463246FFF799FD19E020
:10328000284639463246FFF7F3FD13E02846394613
:103290003246FFF72BFE0DE0637928460093214666
:1032A0003A463346FFF766FE04E0284641460122CF
:1032B000FFF762FC0CB0BDE8F08100BF6CC40008F1
:1032C0002015002078C4000882C4000810B5044608
:1032D000FFF7EBFB204610BD80F828100120704757
:1032E00070B5049E0161C661044615460846114644
:1032F000DAB203F0E3FE4FF4FA6004F053FB002E61
:1033000008DBF6B23046002104F0BCFA304600215A
:1033100004F01CFBB5F5964F06DD40F2EE23236268
:1033200040F2D663636207E0044B93FBF5F323623C
:10333000034B93FBF5F56562012070BDC0E1E4002D
:10334000C00E160270B50446C06986B000280D464E
:1033500006DBC0B2012104F0F9FA012004F022FBDF
:103360000023227B5E1CDBB29A421FD9194A1068E7
:10337000411C1160E95C184A1154D15C6846102266
:1033800004F0FCF8694603A804F0D5F8134903A833
:1033900004F092F90146124803F07EFF03A804F0FE
:1033A00044F8684604F041F83346DAE70D490C4822
:1033B00003F09AFF206903689B699847606A04F0EC
:1033C000FFFAE069002803DBC0B2002104F0BEFA76
:1033D00006B070BD941400207F14002043D900086B
:1033E000201500208CC50008F0B5C9430B4EC9B2AA
:1033F000705C0B4DC0436C5CC0B20021AC46CFB2D8
:10340000BB4207D0555C01314540705D60401CF8FF
:103410000540F4E744EA0020F0BD00BF8CC400087A
:103420003CC600082DE9F0410D78037BFF2D01EB30
:10343000030204460E4612F8028C12F8017C03D0F7
:1034400090F82820AA4219D1A268033B204612F81E
:10345000011BDBB2FFF7C8FF47EA0827874202D00B
:103460000A480B490CE02046711CFFF771FEFF2D46
:103470004FF0010007D16073BDE8F08103480549B2
:1034800003F032FF0020BDE8F08100BF20150020CE
:10349000B4C50008E0C50008F8B50446C0690F4689
:1034A000002806DBC0B2012104F050FA012004F02C
:1034B00079FA194D19491A4803F016FF194E2B686D
:1034C00094F828105A1CF154237B2A600022D0B2B1
:1034D00098420AD2286800F1010EC5F800E017F8FA
:1034E00002E0013206F800E0F1E7A2682046FFF7AB
:1034F0007BFF2B68020AF2541E449A1C7070606AAB
:103500002A6004F05DFAE069002803DBC0B2002104
:1035100004F01CFAF8BD00BF9414002010C6000887
:10352000201500207F140020D2B238B504460D4685
:103530000273002A3ED02049204803F0D5FE207BAC
:1035400004F0A6FE0023A060227B591CDBB29A4245
:1035500004D9E85CA268D0540B46F5E7174818492F
:1035600003F0C2FE0025237B9D4207D2A3681348C7
:10357000595D102203F04EFF0135F4E710490F4862
:1035800003F0B2FE2046A168FFF74CFF68B1637BF1
:10359000032B04D12046A168FFF77EFF05E0022B34
:1035A00003D12046A168FFF7CDFEA06804F078FEA5
:1035B0000023237338BD00BF30C60008201500204B
:1035C00063C4000808B5032002F0AAFC014B0122E5
:1035D0001A7008BDA114002070B55E480D46097828
:1035E00001F078FD697806465A4801F073FD06EB54
:1035F0008606594C06EB860600EB8600E080A9782B
:10360000544801F067FD6071E978524801F062FDAD
:10361000207129794F4801F05DFD6979A0704D480E
:1036200001F058FDA97960704A4801F053FD4B49FB
:1036300020704B4803F03DFEE1880A22484803F021
:10364000C8FE4849464803F034FE61790A224448DE
:1036500003F0E0FE4449424803F02BFE21790A22A0
:103660003F4803F0D7FE41493D4803F022FEA178D0
:103670000A223B4803F0CEFE3D49394803F019FECB
:1036800061780A22364803F0C5FE3A49344803F00F
:1036900010FE0A222178324803F0BCFE02F020FF1F
:1036A000642004F07FF92046FCF7E6FD014632482D
:1036B00002F054FB642004F075F902F017FF2E4865
:1036C00002F04FFB01462046FCF74AFDE1886423E7
:1036D000B1FBF3F1C9B21F4801F0F3FC2870E28896
:1036E0004FF47A73B2FBF3F103FB11211948C9B20D
:1036F00001F0E7FC68706179164801F0E2FCA870FF
:103700002179144801F0DDFCA178E870114801F03E
:10371000D8FC617828710F4801F0D3FC21786871DA
:103720000C4801F0CEFC0024A871295D10220C4841
:1037300003F067FE01340A48104903F0BAFD072C74
:10374000F3D1074803F0BAFDBDE8704004480C49C6
:1037500003F0CABD15150020981400203CC70008CE
:103760002015002043C700084BC7000851C70008B8
:1037700058C7000862C70008A214002043D90008F7
:103780006CC7000870B51B4886B0FCF775FD1A4C75
:10379000054602F0A5FE0A2004F004F92946204659
:1037A00002F0DCFA204602F0DCFA144D14492A68D3
:1037B0008618684603F07BFE694603A803F0BBFE4B
:1037C000296803A803F09EFF01460E4803F082FD1E
:1037D00003A803F02AFE684603F027FE0A49324692
:1037E000204602F0C0FA0A2004F0DCF802F07EFE67
:1037F00006B070BD98140020A2140020DC13002035
:103800008FC7000820150020C53500080148112188
:1038100002F09BBAA2140020224B10B51A6886B0A1
:1038200001321A60204A116814460131116019688A
:10383000B1F5615F04D300221A601C4B01221A709B
:103840001B48FFF79FF888B11948FFF79BF8B0F5C0
:10385000E16F0BD816482468FFF794F8844205D32B
:10386000114B00221A60134B01221A70124C684649
:10387000236812490133236003F019FE694603A847
:1038800003F059FE216803A803F03CFF01460C48F1
:1038900003F020FD03A803F0C8FD684603F0C5FD52
:1038A00006B010BDA8140020AC140020D5140020D0
:1038B0007E14002018150020A414002011C8000850
:1038C0002015002010B5084C0849204603F087FC5D
:1038D00020460121064A03F0A1FC20460021BDE854
:1038E000104003F073BC00BFC015002040420F0021
:1038F0001938000810B5054C204603F059FC204645
:103900000021BDE8104003F061BC00BFB8150020E5
:1039100010B5054C204603F04BFC20460021BDE8C5
:10392000104003F053BC00BFBC15002010B5064C7E
:10393000204603F03DFC2046002103F047FC034BEA
:1039400000221A6010BD00BFC0150020A414002082
:10395000014803F025BC00BFB8150020014803F062
:103960001FBC00BFBC15002008B5034803F018FCBD
:10397000024B00221A6008BDC0150020A4140020CC
:1039800070B5314D8CB02B78002B5AD000242F49C4
:103990002F4803F0A9FC2C70FFF7DAFFFF21204627
:1039A00003F0F5FFFF21C5B2204603F0F0FF2949DF
:1039B000C6B203A803F07BFD03A909A803F0BBFD71
:1039C0001022294606A803F0D9FD06A909A803F08C
:1039D00066FE01461E4803F07DFC06A803F025FDA7
:1039E00009A803F022FD03A803F01FFD1A4903A84C
:1039F00003F05DFD03A909A803F09DFD10223146E7
:103A000006A803F0BBFD06A909A803F048FE01467D
:103A10000F4803F05FFC06A803F007FD09A803F0B8
:103A200004FD03A803F001FD0C48214601222B46AA
:103A3000009602F063F8FFF75DFF0548084903F0C0
:103A400053FC0CB070BD00BF1815002023C800083F
:103A50002015002085B4000891B400081915002035
:103A60003CC8000870B5404D8CB02B78002B59D065
:103A70003E493F4803F038FC00243E4B0122FF2121
:103A800020461A702C7003F082FFFF21C5B2204639
:103A900003F07DFF3849C6B203A803F008FD03A96F
:103AA00009A803F048FD1022294606A803F066FD88
:103AB00006A909A803F0F3FD01462D4803F00AFC0E
:103AC00006A803F0B2FC09A803F0AFFC03A803F0BA
:103AD000ACFC2A4903A803F0EAFC03A909A803F0F7
:103AE0002AFD1022314606A803F048FD06A909A8C0
:103AF00003F0D5FD01461E4803F0ECFB06A803F0D9
:103B000094FC09A803F091FC03A803F08EFC1C4868
:103B10002146009602222B4601F0F0FF1448194975
:103B200003F0E2FB184D2B78E3B11849104803F07D
:103B3000DBFB00240F4BFF2120461C702C7003F090
:103B400026FFFF210546204603F021FFC0B200906A
:103B500021460B480122EBB201F0D6FE04480C4985
:103B600003F0C2FB0CB070BDB01400207CC800088C
:103B7000201500200C00002085B4000891B4000836
:103B800019150020AEC80008C6140020EDC80008B2
:103B90001DC9000810B5064C0649204603F087FCF5
:103BA00020460549054ABDE8104004F03FB800BF73
:103BB000C814002069D900082B74000808000020F0
:103BC00030B54A4885B0FEF75CFA002846D1484B2C
:103BD000484918704548FEF718F928B14348454947
:103BE000FEF753F9002877D14048FEF7A5FB20B136
:103BF0003E48FEF726FB002873D101238DF80430E0
:103C00003A48002301A98DF805308DF806308DF86B
:103C100007308DF80830FEF783FA18B13648374977
:103C200003F062FB31480121FEF734FB18B1324842
:103C3000334903F059FB33492F4803F055FB324910
:103C40002D4803F051FB09E0304CA368EBB92F4835
:103C50002C4903F082FC2E48FDF794FA2348FEF726
:103C600010FA002833D102F0ABFC234803F004FA29
:103C70000028E9DD204803F0ABF9C1B2234803F086
:103C8000CEFC022003F08EFEEFE7204603F0E1FDBC
:103C90002146194803F01EFB1E4901A803F007FC4A
:103CA000204601A903F04EFD054601A803F0BDFB27
:103CB00055B11449204603F050FC0F48164903F053
:103CC00013FB164801F05EFA02F07AFCBFE7084BDE
:103CD00001221A7005B030BD1149074803F004FBFA
:103CE00082E71049044803F0FFFA86E774140020C5
:103CF0000E000020BD1400202015002055C900082A
:103D000092C9000869D90008CEC90008C81400206B
:103D10005513002020C3000811CA000819150020FF
:103D200054CA000888CA000830B5A4488FB001F012
:103D30007CF8A34800F040FEA24B06201A684FF41E
:103D4000FA6122F0E06242F080621A6002F028FC20
:103D50009D484FF4165103F0EDF94FF416519B486E
:103D6000FDF7F2FA02F0AFFB9948FEF73FF89348EF
:103D700001F066F802F024FC9448FDF7C9FA01212D
:103D80009248FDF759FC934D4FF4FA6003F00AFE98
:103D9000002491482C70FDF7F5F901232B7002F0F7
:103DA0000FFCF1218D48FEF717FB21468748FDF7F0
:103DB0000FFF8A48FEF7DAFA8949834803F094FA3C
:103DC00088482221FEF716FC0128044606D18548C2
:103DD0002321FEF70FFC112805461CD01122814833
:103DE0000121FEF7F2FB804902A803F060FB02A963
:103DF00008A803F0A0FB1022012105A803F0CFFBC7
:103E000005A908A803F04BFC784903F055FC1121E3
:103E100004460BA816E0764902A803F048FB02A965
:103E200008A803F088FB2146102205A803F0B7FB81
:103E300005A908A803F033FC6C4903F03DFC2946B2
:103E400004460BA8102203F0AAFB20460BA903F09E
:103E500026FC01465C4803F03DFA0BA803F0E5FAA6
:103E600005A803F0E2FA08A803F0DFFA02A803F0BD
:103E7000DCFA5C482421FEF7BBFB0128044616D17E
:103E800058482521FEF7B4FB054680B9594908A8D2
:103E900003F00DFB08A90BA803F04DFB21460BA86E
:103EA00003F026FC514903F007FC294614E00022E8
:103EB0004C480121FEF7A0FB4F4908A803F0F7FA90
:103EC00008A90BA803F037FB01210BA803F010FC95
:103ED000464903F0F1FB002103F00AFC01463A4891
:103EE00003F0F8F90BA803F0A0FA08A803F09DFA74
:103EF000FFF766FE41484249FEF7CCF8A0B93849C1
:103F0000314803F0F1F93F492F4803F0EDF93E48FD
:103F100001F050FA3048FDF735F940F6B83001F0BD
:103F2000E3F802F04DFBE5E73849274803F0DCF9F8
:103F300002F046FBFFF70CFD3549234803F0D4F9A6
:103F40002749214803F0D0F9FFF708FD31491E4801
:103F500003F0CAF922491C4803F0C6F9FFF7B2FC86
:103F6000FFF702FD2C49184803F0BEF91C4916481A
:103F700003F0BAF9FF21002003F009FDFF210446F8
:103F8000002003F004FDC0B20222E3B20090012140
:103F90001D4801F035FD21490B4803F0A5F91049F2
:103FA000094803F0A1F91E49074803F09DF90C499F
:103FB000054803F099F90FB030BD00BF141500207B
:103FC000D7140020040001402015002071140020A7
:103FD0007D1400200D0000205513002072140020D5
:103FE00069D900087314002023CC00080ABE000819
:103FF0006ECC000884CC00089ACC00087414002011
:10400000BD140020CFCA00081915002003CB0008FA
:104010001CCB000859CB000890CB0008C8CB000887
:10402000DDCB000830B587B0344803F025F8002810
:104030000ADD324802F0CCFFC1B2314803F0EFFA9A
:10404000022003F0AFFCEFE72D4CA368002B53D008
:10405000204603F0FEFB2146284803F03BF929499E
:1040600003A803F024FA03A9204603F098FB0546B1
:1040700003A803F0DAF92046002D36D000210422EF
:1040800003F0CEFB204603F0F0FB1F4C02462060FD
:10409000C2F307211D48D2B2FEF7BEFC10B117488B
:1040A0001B4901E015481B4903F01EF91748FEF7AC
:1040B000EFFC19492060684603F0F9F9694603A846
:1040C00003F039FA216803A803F01CFB01460B48F2
:1040D00003F000F903A803F0A8F9684603F0A5F976
:1040E0000E49074803F039FA06E00C4903F035FAA7
:1040F00002480B4903F0F8F807B030BD2015002046
:10410000C8140020E5CC0008DC1300207E14002039
:10411000EACC000820CD0008AAC7000869D9000829
:1041200059CD00082DE9F047664B86B01A689846CD
:1041300012F0010F02D0644B01221A70634802F0A2
:104140009BFF00280ADD614802F042FFC1B26048CF
:1041500003F065FA022003F025FCEFE75C4CA3684E
:10416000002B00F0AB80204603F073FB214657483C
:1041700003F0B0F8574903A803F099F9204603A9C2
:1041800003F0E0FA054603A803F04FF9002D00F014
:1041900093802046504903F0E0F9D8F800304F49A9
:1041A00001334A48C8F8003003F09EF84C4968468D
:1041B00003F07DF9694603A803F0BDF9D8F80010B3
:1041C00003A803F09FFA0146404803F083F803A8D0
:1041D00003F02BF9684603F028F93F493B4803F008
:1041E00083F8FFF7C1FB032001F09AFE3D4900234D
:1041F0000B703D4A3D4913700B703D4A3D491370A9
:104200000B703D4A3D4913700B703D4A3D49137098
:104210000B703D4A3D4913700B703D4A3D49136098
:104220000B701C461D4691463B4B0022E2503B4B17
:104230003B4FE2503B4BDFF814A1E2503A4B3B4E70
:10424000E2503B4BE251E2503A4BE8B2E2503A4B7B
:104250000121EA54394B44F80A20EA54384BA25160
:10426000EA54384B0434EA54013500F097FD022D2E
:10427000DAD1D8F8003013F0010313D03248FEF73A
:1042800007FC14213C224FF6FF73C9F80000CAF85E
:1042900000103A603360CAF804107A607360FFF768
:1042A00045FB09E0C9F80030CAF800303B603360D4
:1042B000CAF804307B60736002F082F906B0BDE892
:1042C000F08700BFB81400200C000020201500204B
:1042D000C814002080CD000869D9000882CD0008EC
:1042E000C5CD0008B3140020B2140020B114002082
:1042F000A1140020B0140020D6140020C614002001
:10430000BC140020EC11002070140020301200209A
:10431000DC130020B4140020F011002074120020DF
:10432000E013002020140020581300203412002035
:10433000AC1100206C110020601400203413002008
:10434000451300200F0000207E1400209C13002045
:104350002DE9F043814F87B017F800900446B9F17A
:10436000000F40F0F7807E4DDFF840822B5C002B81
:1043700000F08F807B4E7C4A336852F820209342B5
:10438000C0F08780012100F009FD784B05F804900A
:104390007749012568461D7003F089F8694603A82E
:1043A00003F0C9F8214603A803F098F9714903F016
:1043B00083F90146704802F08DFF03A803F035F839
:1043C000684603F032F86C4802F03AFE6B4B53F843
:1043D000242052B333686A4908F80450694D41F803
:1043E000243068461344684945F8243003F05FF8E8
:1043F000694603A803F09FF8214603A803F06EF96D
:10440000624903F059F955F8241003F07BF901468D
:10441000594802F05FFF03A803F007F8684603F06D
:1044200004F8554802F00CFE33E0594B594E53F84E
:1044300024205949013A43F824203378684601334F
:10444000337003F034F8694603A803F074F8317848
:1044500003A803F043F90146474802F03BFF03A8D5
:1044600002F0E3FF684602F0E0FF434802F0E8FD97
:104470003378022B07D14048484902F035FF484BBA
:104480001D70484B1D700020012308F804003B55A7
:1044900061E018F80400002855D0324B1A68394BF7
:1044A00053F824309A4256D3394B3A4D53F82420CE
:1044B0000126013A43F824202B78374933446846D3
:1044C0002B703E5502F0F3FF694603A803F033F862
:1044D000297803A803F002F90146274802F0FAFE02
:1044E00003A802F0A2FF684602F09FFF224802F0F4
:1044F000A7FD2B78022B07D11F48284902F0F4FEB4
:10450000274B1E70274B1E700123684618493B55E8
:1045100002F0CDFF694603A803F00DF8214603A879
:1045200003F0DCF8204903F0C7F80146124802F016
:10453000D1FE03A802F079FF684602F076FF0E482C
:1045400002F07EFD06E00D4B53F82400003018BF4A
:10455000012000E0002007B0BDE8F08345130020F3
:1045600060140020A414002058130020B014002070
:10457000D3CD0008D7CD000820150020E01300207F
:10458000AC1100206C110020F3CD000873C40008AA
:10459000341200203012002006CE000816CE00088B
:1045A000B2140020C61400202CCE000834130020C2
:1045B0002DE9F043884E87B002F002F83378022BE1
:1045C00000F0BC800024254601F0FAFF834BEFB2D7
:1045D000E95C002940F0A4804FF0010805F8038051
:1045E0007F4B04EB0309E358002B55D07D4BE35878
:1045F000002B51D0384600F0D1FB7B4B7B4A05F8AD
:1046000003807B4B7B4983F800807B4BDFF83C8247
:104610001B686846A350D9F80020134444F80830BA
:1046200002F045FF694603A802F085FF394603A85A
:1046300003F054F8714903F03FF80146704802F066
:1046400049FE03A802F0F1FE684602F0EEFE6D4955
:10465000684602F02CFF694603A802F06CFF394659
:1046600003A803F03BF8684903F026F854F8081053
:1046700003F048F80146624802F02CFE03A802F05D
:10468000D4FE684602F0D1FE5D4802F0D9FC5F4BD3
:10469000E358002B4CD09CE05649684602F007FFD7
:1046A000694603A802F047FF394603A803F016F84D
:1046B000574903F001F80146514802F00BFE03A8E8
:1046C00002F0B3FE684602F0B0FE524B0127EF54F1
:1046D000337851493B446846337002F0E8FE69463E
:1046E00003A802F028FF317803A802F0F7FF014683
:1046F000434802F0EFFD03A802F097FE684602F07F
:1047000094FE3F4802F09CFC3378022B10D1434BBF
:104710003B4843491F7002F0E7FD424B1F7007E022
:10472000012F14BF00203846FFF712FE002850D199
:104730000135022D04F104044BD045E7FFF714F9CD
:10474000364B394C1A7862B100221A70374B384810
:104750001A70FFF717F82A48364902F0C5FD012301
:1047600023702378002B34D0304C2378002B30D0AA
:104770003149234802F0B8FD3049214802F0B4FD28
:10478000294A1848002313702370224A134C1649F3
:104790000568237013700B7005B13370637053702C
:1047A0004B7043680BB100233370337814484BB916
:1047B000234902F099FD2149114802F095FDFFF7C8
:1047C000B5F806E01F4902F08FFD0D481E4902F0C2
:1047D0008BFD07B0BDE8F083301200200F000020F1
:1047E0009C130020341200206014002020140020AC
:1047F000B0140020D3CD0008A414002042CE00083D
:104800002015002058CE000873C40008E0130020D3
:1048100069CE00084513002006CE0008B21400201F
:1048200016CE0008C6140020BC140020A1140020DD
:10483000A014002079CE000892CE0008ABCE00086C
:10484000B8CE0008CECE0008EACE000858130020EB
:1048500008B501F0B5FE0C48FCF794FC00210B48AC
:104860000A4600F0CFF800F08BF8FFF789F8FFF761
:10487000F9F801F0A5FEFFF79BFEFFF753FCBDE83A
:104880000840FFF7CFBB00BF55130020D71400200E
:1048900001480021FDF79CB9711400201FB5304874
:1048A00001A9FDF7F7FB2F4CC0B92F492F4802F0A3
:1048B0001BFD2F4800F07EFD2E48FCF763FC40F600
:1048C000B83003F06FF801F07BFE23780133DBB2E0
:1048D000322B2370E3D901F0A7FEE0E70023237019
:1048E0001F48FDF792FCC0B92349204802F0FCFCA8
:1048F0001F4800F0F1FC1F48FCF744FC40F6B830BC
:1049000003F050F801F05CFE23780133DBB2322B68
:104910002370E5D901F088FEE2E7002323701048F8
:10492000FDF7F4FCC0B91549104802F0DDFC104851
:1049300000F040FD0F48FCF725FC40F6B83003F0CE
:1049400031F801F03DFE23780133DBB2322B2370C6
:10495000E5D901F069FEE2E70023237004B010BD41
:1049600074140020D4140020FFCE0008201500206D
:1049700019150020551300204DCF0008A5CF0008C1
:1049800008B50A4B1A787AB100221A70FEF7E6FFD2
:10499000FFF77EFFFFF782FFFEF7BAFFBDE8084092
:1049A0000348044902F0A0BC08BD00BFD514002094
:1049B00020150020FBCF000813B5104C4FF0FF333B
:1049C00000934FF41652002320460D49FEF788FC51
:1049D00020460121FEF780FC002120460A46FEF712
:1049E000A0F8204601210022FEF79BF82046002176
:1049F0007F2202B0BDE81040FEF784B8D814002032
:104A00005015002010B50D4C2046FEF78DFD2046B8
:104A10000021FEF798F880F00101C9B2032002F0EE
:104A200095FF20460121FEF78EF8BDE8104080F08A
:104A30000101C9B2042002F089BF00BFD8140020D0
:104A4000002110B50A460E48FEF774F8012104460D
:104A500000220B48FEF76EF858B154B100210A4607
:104A60000848FFF7CFFF0849084802F03DFC012045
:104A700010BD0749054802F037FC002010BD00BFFB
:104A8000D8140020D714002033D0000820150020AF
:104A90006AD0000830B554488BB00C46534902F038
:104AA00023FC0222214601A802F068FD504904A817
:104AB00002F0FDFC04A907A802F03DFD01A907A82A
:104AC00002F0EDFD0146484802F004FC07A802F0A0
:104AD000ACFC04A802F0A9FC039C082C21D1012302
:104AE00004A801A9002202F075FE0A22002107A8ED
:104AF00002F055FD07A904A802F032FE021C18BFFF
:104B0000012200213B48FEF715F8044607A802F0F1
:104B10008CFC04A802F089FC04A801A9012202234C
:104B20000BE0072C24D100210A463248FEF702F898
:104B300001A90446002204A8012302F04BFE0A2228
:104B4000002107A802F02BFD07A904A802F008FE27
:104B5000021C18BF012201212648FDF7EBFF054684
:104B600007A802F062FC04A802F05FFC85B315E020
:104B7000062C07D0052C05D0042C03D0032C01D023
:104B8000022C0DD100210A461A48FDF7D3FF01215E
:104B9000044600221748FDF7CDFFC8B1601C0EE0A7
:104BA000012C19D100210A461248FDF7C3FF214606
:104BB000054600220F48FDF7BDFF48B1681CC0B292
:104BC000022805D108480C4902F08EFB012404E0BC
:104BD00005480A4902F088FB002401A802F025FCE0
:104BE00020460BB030BD00BF20150020A1D000082A
:104BF000C5D00008D8140020D2D00008F6D0000894
:104C000030B5164C8BB00D462046154902F06CFBB2
:104C10000222294601A802F0B1FC04A8114902F0C1
:104C200046FC04A907A802F086FC01A907A802F027
:104C300036FD0146204602F04DFB07A802F0F5FBC9
:104C400004A802F0F2FB0849204602F04DFB01A83F
:104C500002F0EBFB01200BB030BD00BF201500209F
:104C60001AD100083FD100084CD1000837B5002404
:104C70000546134800940194FDF746FD2346C25CA7
:104C80000DF803200133082BF9D128469DF80010B8
:104C9000FFF700FF80B128469DF80110FFF7B0FF35
:104CA000044648B100210A460648FFF7ABFE064914
:104CB000064802F019FB00E00024204603B030BD96
:104CC0007E140020D714002071D100082015002088
:104CD0000020704730B5002587B02C46012D21D02B
:104CE00018D3072D25D16846154902F0E0FB694627
:104CF00003A802F020FC214603A802F0EFFC0146C5
:104D0000104802F0E7FA03A802F08FFB684602F0B1
:104D10008CFB0EE0032002F003FE012809D084F092
:104D2000800406E0042002F0FBFD012801D040349D
:104D3000E4B20135082DD1D1204607B030BD00BF07
:104D4000D4D100082015002010B5002486B001340D
:104D5000082C18D0072CFAD168460C4902F0A7FBA2
:104D6000694603A802F0E7FB03A8002102F0B6FCA5
:104D70000146074802F0AEFA03A802F056FB684667
:104D800002F053FBE3E7002006B010BDDED10008BF
:104D900020150020004870470415002038B50D4646
:104DA000044610B101280DD016E0032002F0CEFD1C
:104DB0000C480DB121460DE029460122BDE83840DE
:104DC000FDF7B8BE042002F0C1FD064821460DB132
:104DD0000022F3E70A46F1E703480449BDE83840FA
:104DE00002F082BAD814002020150020E9D1000872
:104DF0000148FEF76BBA00BFD8140020002330B57D
:104E0000054618468B420FDAEA5C5040082210F043
:104E1000010F4FEA60041ABF84F0E000C0B2E0B2B4
:104E2000013AF4D10133EDE730BD08B5032000218C
:104E300002F028FDBDE808400420002102F022BD58
:104E400008B51648FDF7FFFBB0B91549154802F043
:104E50004BFA01F0B5FB1148FDF7F0FC1248FFF7E3
:104E6000EFFD40B911490F4802F03EFA4FF47A7055
:104E700002F098FDF2E708BD0A480D4902F034FA45
:104E80000948FFF7F3FE40B90A49064802F02CFA38
:104E90004FF47A7002F086FDF2E708BD7E14002020
:104EA000FED1000820150020D71400203DD20008B4
:104EB00080D20008C2D200087047704708B516209B
:104EC000002102F0DFFC1720002102F0DBFC16209D
:104ED000012102F03BFDBDE808401720012102F04E
:104EE00035BD1720002102F0CDBC1720042102F0AF
:104EF000C9BC08B5FFF7F5FF1720012102F026FD18
:104F00000121162002F022FD052002F059FD0021AA
:104F1000172002F01BFD062002F052FDBDE80840FC
:104F20001620002102F012BD08B5FFF7DAFF1620A7
:104F3000002102F00BFD1720002102F007FD0121E6
:104F4000162002F003FD062002F03AFD1720012191
:104F500002F0FCFCBDE80840062002F031BD10B5AF
:104F600000210446162002F0F1FC2046FFF7B9FFAD
:104F70000021172002F0EAFC022002F021FD0121AD
:104F8000162002F0E3FC052002F01AFDBDE81040F7
:104F90001620002102F0DABC10B5002104461620CC
:104FA00002F0D4FC2046FFF79CFF0121172002F0FD
:104FB000CDFC022002F004FD0121162002F0C6FC07
:104FC000052002F0FDFCBDE810401620002102F093
:104FD000BDBC70B50646FFF788FF0121172002F01F
:104FE000B5FC012002F0ECFC1620012102F0AEFC21
:104FF000012002F0E5FCFB25172002F091FC04469D
:1050000040B1013D15F0FF05F6D13046FFF78CFFAA
:10501000012070BD1620214602F098FC204670BD8C
:1050200038B50C46FFF75DFF1620002102F08EFC1C
:10503000082524F07F0303F0FF01172003B10121AD
:1050400002F084FC0121162002F080FC022002F014
:10505000B7FC1620002102F079FC013D022064001B
:1050600002F0AEFC15F0FF05E4B2E2D138BDF8B5B0
:1050700005460F46FFF739FF0826002400211620B9
:1050800002F064FC022002F09BFC1620012102F0D9
:105090005DFC64001720E4B202F042FC08B1013468
:1050A000E4B20120013E02F08BFC16F0FF06E5D1D0
:1050B000284617B9FFF770FF01E0FFF750FF2046C1
:1050C000F8BD0A22B1FBF2F302FB131202EB03104C
:1050D000C0B2704701F00F03090901EB810103EB36
:1050E0004100C0B270470000074A30B5136815464A
:1050F0002C6819188C42044A04D81168994238BFA8
:105100001368F5E730BD00BF0016002037B50C4628
:105110000C480DF10701FCF750FF9DF807304FF4E4
:105120007A705843084902F032FC9DF80730054672
:1051300064205843054902F02AFC2844206003B04B
:1051400030BD00BF7414002060E31600400D030062
:1051500070B50E4615460024E3B2AB42074809D2AB
:10516000315D102202F04DF90448054902F0A1F822
:105170000134F1E7BDE8704002F0A0B8201500202E
:1051800043D9000830B595B040220546002104A857
:1051900003F090FB002314A941F8503D28466946CE
:1051A000FFF7B4FF009802F00BFC01F009FAFE23B0
:1051B0008DF81030E0238DF8113011238DF8123066
:1051C00024238DF81330C0238DF8143003238DF879
:1051D00015303B4B1B7803B155233A488DF81630F8
:1051E000FDF791F801AC8DF8170021463548FCF722
:1051F000E5FF002304AA1A44E15C0133052B117278
:10520000F8D130482146FCF780FE002304AA1A4456
:10521000E15C0133092B5173F8D10024012305A867
:1052200024218DF826308DF827408DF828408DF800
:1052300029408DF82A408DF82B408DF82C408DF8B0
:105240002D408DF82E408DF82F408DF830408DF890
:1052500031408DF832408DF833408DF834408DF870
:1052600035408DF836408DF83740FFF7C7FD8DF893
:105270003800E30704AB234404F1010454BF0D22BA
:105280000A22062C83F82920F3D10F490F4802F097
:105290002BF804A928462F22FFF75AFF0C48FFF7E6
:1052A0000BFE0C4804A903682F229B689847C8206E
:1052B00002F078FB0648FFF700FE15B030BD00BFD6
:1052C000981300207414002002D300082015002039
:1052D000141500205015002010B586B01422044685
:1052E000002101A803F0E6FA002306A941F8183DC1
:1052F00020466946FFF70AFF009802F061FB01F0C3
:105300005FF9FE238DF80430E0238DF80530122379
:105310008DF8063005238DF80730C0238DF808304E
:1053200003238DF809301D4B1B7803B155231C480E
:105330008DF80A30FCF7E7FF01238DF80B000521FB
:1053400002A88DF80C30FFF759FD00238DF80D00F1
:10535000DA0701AA1A4403F1010354BF0D210A21FF
:10536000062B9172F4D10F490F4801F0BDFF01A93E
:1053700020461022FFF7ECFE0C48FFF79DFD0C487D
:1053800001A9036810229B689847C82002F00AFB15
:105390000648FFF792FD06B010BD00BF981300202D
:1053A000741400201ED300082015002014150020BE
:1053B0005015002010B586B014220446002101A823
:1053C00003F078FA002306A941F8183D2046694603
:1053D000FFF79CFE009802F0F3FA01F0F1F8FE23CB
:1053E0008DF80430E0238DF8053013238DF8063056
:1053F00005238DF80730C0238DF8083003238DF87E
:1054000009301D4B1B7803B155231C488DF80A3019
:10541000FCF779FF01238DF80B00052102A88DF818
:105420000C30FFF7EBFC00238DF80D00DA0701AA22
:105430001A4403F1010354BF0D210A21062B917276
:10544000F4D10F490F4801F04FFF01A92046102267
:10545000FFF77EFE0C48FFF72FFD0C4801A90368FB
:1054600010229B689847C82002F09CFA0648FFF774
:1054700024FD06B010BD00BF981300207414002056
:105480001ED3000820150020141500205015002000
:105490002DE9F0418AB005468846174600211922B9
:1054A00003A803F007FA00260AA941F8206D284650
:1054B0003D4CFFF72BFE029802F082FA01F080F8D3
:1054C00023780BB1637833B9009638483649012206
:1054D000374BFCF7FBF9FE238DF80C30E0238DF8F9
:1054E0000D3015238DF80E300E238DF80F30C023AC
:1054F0008DF8103003238DF811302E4B1B7803B13B
:1055000055232D488DF81230FCF7FDFE012321783C
:105510008DF8130029488DF814308DF81580FFF7A9
:10552000D9FD61788DF816002448FFF7D3FD0024DB
:105530008DF817000E2104A88DF818408DF8194039
:105540008DF81A408DF81B408DF81C408DF81D40D9
:10555000FFF754FC8DF81E00E30703AB234404F16E
:10556000010454BF0D220A22062CDA74F4D1144926
:10557000144801F0B9FE284603A91922FFF7E8FDF7
:105580000024E3B2BB420CD201F01AF80E4803A982
:10559000036819229B689847C82002F003FA013477
:1055A000EFE70AB0BDE8F081161500207114002065
:1055B00033B500089813002074140020151500203E
:1055C00044D3000820150020501500202DE9F04399
:1055D0008BB08946904600212622074668461E4623
:1055E0003E4D03F067F900F0EBFFFE238DF800302D
:1055F000E0238DF801302B68002409338DF8033047
:10560000C0238DF80430364803238DF805308DF81B
:1056100002408DF80640FCF776FE01238DF8083035
:105620009DF8483029688DF809309DF84C308DF888
:105630000B908DF807008DF80A308DF80C80A94684
:1056400004F10D05E3B2EDB20DF128088B4204F12F
:105650000104A84404DA234AD35C08F8283CEFE7A5
:10566000093101A8FFF7CAFBAB1C08F8280CDBB214
:1056700000215C1E11F0010F0AAAE4B201F1010140
:10568000144403F101030CBF0D220A22062904F879
:10569000282CDBB2EDD1073513495FFA85F80024D9
:1056A0001248C9F8004001F01FFE384669464246DC
:1056B000FFF74EFDE3B2B3420CD200F081FF0C487D
:1056C0006946036842469B689847C82002F06AF919
:1056D0000134EFE70BB0BDE8F08300BF9414002065
:1056E000741400207F1400205CD3000820150020D3
:1056F000501500202DE9F0438BB00C4607460021E1
:10570000164601A822229946DDF8508003F0D2F80F
:1057100000F056FFFE238DF80430E0238DF80530AD
:1057200002238DF806309DF8483008F103028DF809
:1057300009308DF807208DF808908DF80A40002375
:10574000DC1D591CDBB2E4B20AAD4345254405DA41
:105750001398C35C05F8243C0B46F1E702A81146F8
:10576000FFF74CFB05F8240CA51CEDB20023691EC5
:1057700013F0010F0AAAC9B203F10103114405F1A4
:1057800001050CBF0D220A22062B01F8242CEDB2D4
:10579000EDD10734E5B20E490E4801F0A5FD3846BB
:1057A00001A92A46FFF7D4FC0024E3B2B3420CD28D
:1057B00000F006FF084801A903682A469B6898473D
:1057C000C82002F0EFF80134EFE70BB0BDE8F0833A
:1057D00095D30008201500205015002070B59EB00C
:1057E00006460D4614460021732201A803F062F814
:1057F00000F0E6FEFE238DF80430E0238DF805303E
:1058000003238DF806308DF809303A4B68221B7857
:105810008DF80720C0228DF8082003B155233648A3
:105820008DF80A30FCF76FFD237A8DF80B008DF8A8
:105830000C30637A8DF80D300023E11801AA1A4468
:10584000897A0133202B9172F7D10023E11801AA44
:105850001A4491F82A1001331E2B82F82A10F5D130
:1058600094F848308DF84C3094F849308DF84D302C
:1058700094F84A308DF84E3094F84B308DF84F3014
:105880000023E11801AA1A4491F84C100133202B8F
:1058900082F84C10F5D102A86821FFF7AFFA002377
:1058A0008DF87000DA0701AA1A4403F1010354BF0E
:1058B0000D210A21062B82F86D10F3D10F491048F3
:1058C00001F012FD304601A97322FFF741FC0024CC
:1058D000E3B2AB420CD200F073FE0A4801A90368A0
:1058E00073229B689847C82002F05CF80134EFE708
:1058F0001EB070BD9813002074140020C6D3000899
:105900002015002050150020F0B50F468FB0364905
:10591000044636481E46154601F0E6FC02A8002162
:105920002F2202F0C7FF0023019300F049FE37B198
:10593000204601A9FFF7EAFB019802F041F800F0C8
:105940003FFEFE238DF80830E0238DF80930012357
:105950008DF80A3024238DF80B30C0238DF80C30DD
:1059600003238DF80D309DF850308DF80E608DF8C2
:105970000F3000231E4A02A952F8130019440233C3
:10598000020A202B0A724872F4D103A82421FFF7DF
:1059900035FA00238DF83000DA0702AA1A4403F121
:1059A000010354BF0D210A21062B82F82910F3D1DF
:1059B00010490E4801F098FC204602A92F22FFF75B
:1059C000C7FB0024E3B2AB420CD200F0F9FD0A4859
:1059D00002A903682F229B689847084801F0F0FF4E
:1059E0000134EFE70FB0F0BD05D40008201500200A
:1059F000341200203AD4000850150020400D030056
:105A0000F0B50F4689B03849054638481C46164659
:105A100001F06AFC02A80021172202F04BFF0023CC
:105A2000019300F0CDFD37B1284601A9FFF76EFBC9
:105A3000019801F0C5FF00F0C3FDFE238DF808308A
:105A4000E0238DF8093002238DF80A30C0238DF849
:105A50000C3003230C218DF80D309DF838308DF873
:105A60000E400DEB010000248DF80B108DF80F3067
:105A70008DF810408DF811408DF812408DF81340CC
:105A80008DF814408DF815408DF816408DF81740AC
:105A9000FFF7B4F98DF81800E30702AB234404F1D3
:105AA000010454BF0D220A22062C5A74F4D1104965
:105AB0000E4801F019FC284602A91722FFF748FBFF
:105AC0000024E3B2B3420CD200F07AFD094802A9E7
:105AD000036817229B689847074801F071FF01345B
