:020000040800F2
:100000000050002029600008E1620008E562000855
:10001000E9620008ED620008F1620008416300082F
:100020004163000841630008416300084163000820
:1000300041630008416300084163000879670008D4
:10004000416300084163000841630008055F000840
:1000500041630008416300084163000841630008F0
:1000600041630008416300084163000841630008E0
:1000700041630008416300084163000841630008D0
:100080004163000841630008996300084163000868
:1000900041630008416300084163000841630008B0
:1000A000E5690008096A00082D6A0008656A000809
:1000B000B96A0008296B0008996B000841630008C1
:1000C0004163000841630008416300084163000880
:1000D00041630008056D0008596D0008AD6D00080A
:1000E000416300084D5F00084163000810B5054CEE
:1000F000237833B9044B13B10448AFF300800123D4
:10010000237010BD5011002000000000409D000829
:1001100008B5064B1BB106480649AFF300800648F8
:10012000036813B1054B03B1984708BD00000000F8
:10013000409D0008541100205011002000000000D4
:10014000012902D11C30C0B27047062984BF01F1D9
:10015000FF31C9B211F0010F14BF1E201F207047DC
:10016000444B2DE9F047B1FBF3F603FB16113C239A
:10017000B1FBF3F203FB1212054602704FF461600B
:10018000B1FBF0F200FB1211B1FBF3F36B704FF413
:10019000FA63AA70B6B2EB80EC884FF4C873B4FB74
:1001A000F3F803FB18481FFA88F8B8F1000F16D0CF
:1001B0006423B4FBF3F203FB12439BB2002B53D036
:1001C00014F0030140F26D130CBF4FF4B7721A46DE
:1001D00096420EDB002908BF4FF4B77304E0B6F572
:1001E000B77F06DB4FF4B773F61A0134B6B2EC8072
:1001F000D2E700236B716423B4FBF3F703FB1747CB
:10020000BFB2B8F1000F06D03FB114F0030F14BF16
:100210000020012002E0012000E0384695F805901A
:10022000C0B24946FFF78CFF864209F1010A15D397
:10023000B8F1000F06D03FB114F0030F14BF002037
:10024000012002E0012000E03846C0B24946FFF735
:1002500077FF301A86B285F805A0D2E701362E71F5
:1002600085F805A0BDE8F087B6F5B67FC1DD40F2A0
:100270006D13B9E780510100F8B5427887783C23C7
:1002800003FB072702780579467903FB0727013D21
:10029000013EEDB2F6B2044605714671013E731C93
:1002A000E38834D04FF4C872B3FBF2F102FB113291
:1002B00092B262B16422B3FBF2F002FB103080B262
:1002C00030B113F0030F14BF0020012000E0012023
:1002D000C0B2F1B2FFF734FF284485B2DEE74FF435
:1002E000C872B3FBF2F102FB113292B2AAB16422DE
:1002F000B3FBF2F102FB113292B28AB113F0030F99
:1003000040F26D1208BF4FF4B7721544ADB2013B15
:100310009BB2B3F5FA6FE2D205E04FF4B772F4E79F
:1003200040F26D12F1E7024800FB0570F8BD00BF16
:100330008051010004F0B6BD38B50D46044604F006
:10034000CCFD290A49006039204601F0FE0104F085
:100350005BFE204604F031FEE9B2204604F054FE74
:10036000204604F02AFE204604F0B7FD2046A121D5
:1003700004F04AFE204604F020FE0021204604F04E
:100380006AFE0546204604F0FBFD204604F0C0FD51
:10039000284638BD70B50D461646044604F09DFD4E
:1003A000290A49006039204601F0FE0104F02CFEC4
:1003B000204604F002FEE9B2204604F025FE204665
:1003C00004F0FBFD3146204604F01EFE204604F0FA
:1003D000F4FD204604F09CFDBDE870400A2007F0C3
:1003E0008BBA000008B5164A5178937843EA012386
:1003F000A3F52043142B1AD8DFE803F00B200D0FD0
:10040000191919191919191919191919191113156E
:100410001700002008BD022008BD082008BD0320E9
:1004200008BD042008BD052008BD062008BD002128
:100430008022034808F0E8F9092008BD012008BD22
:10044000B412002010B5074C6018114604F0C2FC2D
:10045000054B1B781C4414F8073C1B1A58425841A2
:1004600010BD00BFB412002044130020084B1879BF
:100470005B7943EA002045F25553984205D04CF28F
:100480000303C31A5842584170470120704700BF08
:10049000B4120020044B9B79552B044B0CBF012256
:1004A00000221A70704700BFB41200209813002079
:1004B00010B5084CE379552B01D1012010BD064839
:1004C00001F07BFEE3798342F7D0D0F1010038BF21
:1004D000002010BDB41200207414002013B50D4B81
:1004E0001C7A552C01D1012012E00B48694601F01D
:1004F000BFFD00231A461DF803108C42F3D019B932
:100500000132D2B2052AEED00133052BF3D10020FF
:1005100002B010BDB41200207414002070B505465E
:100520001E46FFF78FFF044640B91C4AD3781A4491
:100530001379D62B02D01A481A492BE02846FFF728
:1005400095FF044678B12846FFF7A4FF2846FFF739
:10055000AFFF044670B96EB11349114806F05EFE54
:100560000F48124916E012490D4806F057FE0C4894
:1005700010490FE02846FFF7B1FF044660B99DF827
:1005800010300BB9012407E00B49054806F046FE80
:1005900003480A4906F042FE204670BDB41200200E
:1005A0001015002034AF000858AF00088FAF0008C6
:1005B000D8AE000806AF0008C6AF0008FEAF0008BE
:1005C0001C4B13B51B78002B32D000230093042161
:1005D00017220123FFF7A2FF08B3174B1C7A012C47
:1005E0001AD1164A1648D97C147001F04FFE48B152
:1005F00014480F21224604F097FF1348214601F0CA
:1006000041FA0CE00F481021022204F08DFF0F493F
:100610000F4806F003FE02E00A4804F0FFFD0D4B10
:1006200005481A78002102B0BDE8104008F0ECB887
:1006300002B010BD0E000020B41200200C000020FB
:1006400072140020091500207114002032B0000837
:100650001015002044130020174B13B51B784BB323
:100660000023009304210A220123FFF757FFC0B1A2
:10067000124B0124124813491C7001F0ABFC38B135
:100680001149124806F0CAFD11480321022206E072
:1006900010490E4806F0C2FD0D480421224604F020
:1006A00043FF0D4B0D481A78002102B0BDE8104001
:1006B00008F0AAB802B010BD0E0000200C00002007
:1006C00074140020BC12002076B000081015002021
:1006D00009150020B8B0000844130020B41200200F
:1006E00037B50023009304210F22FFF717FF20B333
:1006F0001F4D204B0124204805F10A011C7001F018
:10070000DEFA68B31C4805F10A0101F018FB38B3A2
:100710001A491B4806F082FD1748E97901F014FDDB
:10072000A0B11849164806F079FD17480521224660
:1007300004F0FAFE104801F0E3FB144B0C481A7861
:10074000002103B0BDE8304008F05EB810490C4805
:1007500006F064FD0C480621224604F0E5FEECE7B5
:100760000C49074806F05AFD074806210122F4E724
:10077000B41200200C0000207414002085B1000881
:1007800010150020FAB000080915002044130020BD
:1007900040B10008B2B1000870B52A4B88B01B7890
:1007A000002B4DD0284C0025E27800950421012330
:1007B000FFF7B4FE00283AD0244B254825491D7088
:1007C00006F02CFDA67AE37A03EB0626042E06D863
:1007D0001F482149052606F021FDA572E6721F4932
:1007E00002A806F0FEFD02A905A806F03EFE31466D
:1007F00005A806F032FF0146154806F005FD05A8DC
:1008000006F0ADFD02A806F0AAFD1548A17AE27A2D
:1008100002F03CF818B90E48124906F0FFFC627B62
:1008200001210092237B10480A4604F085FC0F4BFF
:1008300005481A78002108B0BDE8704007F0E4BF11
:1008400008B070BD0E000020B41200200C00002083
:1008500010150020EDB1000826B200084CB20008C7
:100860007E1400205CB2000809150020441300200B
:100870002DE9F041844B90B01B78002B00F00181F2
:10088000824C0025E278009504210123FFF746FE03
:10089000002800F0ED807E4B627A1D707D4B7E4912
:1008A0001A70A27A7D4B7E481A7006F0B7FC237B43
:1008B000E67A0BAD7B4908A803EB062606F091FD0E
:1008C00008A9284606F0D1FD3146284606F0C5FEA7
:1008D0000146734806F098FC284606F040FD08A83B
:1008E00006F03DFD7048E17A227B01F03BFF0646B1
:1008F00000284CD16D496A4806F090FC6C4B0122EF
:100900003046FF211A7006F0ECFFFF210746304603
:1009100006F0E7FF6749064605A806F062FD05A94F
:10092000284606F0A2FD1022F9B208A806F0C0FD84
:1009300008A9284606F05EFE0146594806F064FC08
:1009400008A806F00CFD284606F009FD05A806F0EB
:1009500006FD594905A806F044FD05A9284606F0FC
:1009600084FD1022F1B208A806F0A2FD08A92846CD
:1009700006F040FE01464A4806F046FC08A806F08C
:10098000EEFC284606F0EBFC05A806F0E8FC28463D
:100990000021142207F038FFE678093E142E01D812
:1009A000002305E03E48454906F038FC022207E0F6
:1009B000B34204D2E218527BEA540133F8E703222F
:1009C0003B4BFF2100201A7006F08BFFFF21804671
:1009D000002006F086FF3749074602A806F001FD11
:1009E00002A908A806F041FD10225FFA88F105A8C7
:1009F00006F05EFD05A908A806F0FCFD01462848A2
:100A000006F002FC05A806F0AAFC08A806F0A7FC60
:100A100002A806F0A4FC284902A806F0E2FC02A9FC
:100A200008A806F022FD1022F9B205A806F040FD44
:100A300005A908A806F0DEFD0146194806F0E4FB0A
:100A400005A806F08CFC08A806F089FC02A806F0B0
:100A500086FC1B482946324604F00AF8637AE17A9C
:100A60000093A37A227B01931648012304F0FAFD38
:100A7000154B06481A78002110B0BDE8F04107F088
:100A8000C3BE10B0BDE8F0810E000020B4120020FB
:100A90000C000020561300209DB2000857130020C0
:100AA00010150020F3B200087E14002003B30008E4
:100AB0000A15002044B3000850B300085CB30008D6
:100AC000D71400200915002044130020F0B5294B4D
:100AD00089B01B78002B4BD0274C00260123E278ED
:100AE00000960421FFF71AFD244B00283FD0012275
:100AF000234924481A7006F091FB237BE77A05AD61
:100B0000214902A803EB072706F06BFC02A928463F
:100B100006F0ABFC3946284606F09FFD0146194811
:100B200006F072FB284606F01AFC02A806F017FC35
:100B3000B32F06D81348154906F070FBB423E672AC
:100B400023731348E17A227B01F056FE18B90D4851
:100B5000104906F063FB0023E218527BEA5401338C
:100B6000072BF9D10C48294602F05EFD00E0187011
:100B700009B0F0BD0E000020B41200200C000020CF
:100B8000ADB30008101500200BB400081EB4000817
:100B90007E14002074B40008A01400202DE9F04158
:100BA0006F4B96B01B78002B00F0D6806D4D002463
:100BB000EA78009404210123FFF7B0FC002800F03C
:100BC000B680694B0126694895F8221095F82320D4
:100BD0001E7001F051FD20B96549664806F01EFB04
:100BE00000E0264600246449624812AF06F016FB76
:100BF0003846214610220494059407F005FE23464A
:100C0000EA18927A04A95A540133082BF8D1002328
:100C1000EA18927CFA540133102BF9D1534801F0B1
:100C200089FC002800F08C805048394601F0E0FC37
:100C3000002800F0858051494E4806F0EFFA4B48F5
:100C400001F047FC4E4804F0EFF8EC784948203CAE
:100C5000E4B24C4906F0E2FA0A2C13D80023A3426E
:100C600006AF05D2EA1892F82420FA540133F6E7C9
:100C70004449404806F0D2FA4348394603682246C0
:100C80009B68984705F06CFC4FF47A7006F034FED0
:100C900000243D4806F096F900280DF124080DDDEA
:100CA000394806F03BF908F8040001340B2CF0D168
:100CB0003048364906F0B2FA012421E004B3344941
:100CC0000CA806F08EFB0CA90FA806F0CEFB21465F
:100CD0000FA806F0C2FC0146264806F095FA0FA8B8
:100CE00006F03DFB0CA806F03AFB002718F80710A9
:100CF00020481022013706F027FBA742F6D10CE06E
:100D00001C48244906F08AFA34B11A48224906F0F0
:100D100085FA0024042600E003266A7A2B7A8DE8FF
:100D2000040102941D483146012204F0B7FD1C4B1A
:100D30000C481A78002116B0BDE8F04107F064BDF8
:100D400018490C4806F06AFA084801F0DFFB0C4825
:100D500004F06AF8022678E716B0BDE8F08100BF1B
:100D60000E000020B41200200C0000207E14002091
:100D7000B8B4000810150020F3B40008C6B5000888
:100D8000041500204CC20008401500202BB50008B7
:100D900040B5000853B500088BB5000809150020C0
:100DA0004413002003B600082DE9F047694B88B0D2
:100DB0001B78002B00F0CB80674D0024EA7800946C
:100DC00004210123FFF7AAFB002800F0B780634B42
:100DD00001221A7005F0C4FB02F022FE032005F088
:100DE00071F85F4A5F4B14705F4A1C7014705F4A61
:100DF0005F4B14705F4A1C7014705F4B5F4A1C702D
:100E000014705F4B5F4A1C7014705F4B5F4A1C701C
:100E100014605F4B5F4A1C60147026469A465E4A17
:100E20000023A3505D4A5E4FA3505E4ADFF8B091A5
:100E3000A3505D4ADFF8AC81A3505C4AE351A35054
:100E40005B4AF0B2A3505B4A0121B3545A4A44F8BA
:100E50000930B354594A44F80830B354584A04345A
:100E6000B354013603F086FF022ED8D1554895F8C9
:100E7000481095F8492001F053FD10B152485349EC
:100E800001E05148524906F0C9F94E4801F084FD8D
:100E90005049CAF8000002A806F0A3FA02A905A862
:100EA00006F0E3FADAF8001005A806F0D6FB0146D2
:100EB000454806F0A9F905A806F051FA02A806F07F
:100EC0004EFA05F04DFB95F84A20234BD10714D577
:100ED000987AD97A01EB0021C9F8001093F82A001A
:100EE00093F82B1001EB0021C8F8001093F84C1078
:100EF00093F84D3003EB01233B60930714D52A7B15
:100F00006B7B03EB0223C9F8043095F82C2095F88D
:100F10002D3003EB0223C8F8043095F84E2095F8E5
:100F20004F3003EB02237B60274806F02FF82A4856
:100F30000121094A04F026FD02F054FD274B064822
:100F40001A78002108B0BDE8F04707F05DBC08B092
:100F5000BDE8F0870E000020B41200200C00002035
:100F6000B3140020B2140020B1140020B0140020EB
:100F7000A1140020C6140020D6140020EC1100207B
:100F8000BC1400203012002070140020B81400207F
:100F9000DC130020B4140020F01100207412002093
:100FA000341200202014002058130020AC1100201F
:100FB0006C11002060140020341300204513002021
:100FC0000F0000207E1400201015002040B60008FD
:100FD00084B600087EC500080915002044130020CF
:100FE0009C130020E013002010B50446FFF7FAF927
:100FF000092834D8DFE800F01F2429050A0F14332C
:101000002E192046BDE81040FFF7DABA2046BDE8A9
:101010001040FFF721BB2046BDE81040FFF760BB42
:101020002046BDE81040FFF7B7BB0D480D49BDE8AD
:10103000104006F0F3B82046BDE81040FFF718BC9A
:101040002046BDE81040FFF741BD2046BDE81040F6
:10105000FFF7A4BD2046BDE81040FFF7A5BE10BDB8
:1010600010150020CBB600082DE9F0474D4E0027A3
:101070008146377005F074FA3C463D464A4805F013
:10108000A1FF002840F38A8005F06AFA96F800A0D4
:1010900045480AF10103337005F040FFDFF8208175
:1010A00008F80A00032006F027FC33781022434496
:1010B00013F8011C3D4806F03EF93C483C4906F057
:1010C00092F896F90030002B06DA364B00214046A4
:1010D0008022197007F098FB327808EB020313F8AE
:1010E000013CFE2B03D1571EFFB264BB04E054BB8E
:1010F0000D2B01D127E00124062DBFD12D492B480E
:1011000006F08CF829482C4906F088F837B92B4BA3
:101110001B7893B14846FFF767FF0EE03178002354
:10112000C91BDAB2F8188A42C0B203F10103EEDA41
:1011300018F8000008F80200F3E700233370BDE858
:10114000F04705F00DBA052DD5D8DFE805F0030707
:101150000A0D10130D2B12D000248FE70A2B0BD190
:1011600010E00D2B08D110E00A2B05D110E00D2B5B
:1011700002D110E00A2BC1D0002425467EE70125CC
:101180002C467BE70124022578E70124032575E737
:101190000124042572E7012405256FE7002333703D
:1011A000BDE8F087441300204015002010150020F2
:1011B000ABD60008E9B600080DB700080D00002006
:1011C000B412002008B50520002106F011FB05200F
:1011D000012106F065FB1F20002106F009FB1E20FF
:1011E000002106F005FB1E20012106F059FBBDE899
:1011F00008401F20002106F053BB0000014805F005
:101200003FBF00BF4015002008B561B100211E207E
:1012100006F046FB962006F06FFBBDE808401E2056
:10122000012106F03DBB08BD08B50021052006F0F0
:1012300037FB0C4805F027FF0220002106F0D8FA02
:101240000320002106F0D4FA0220002106F028FB3A
:101250000320002106F024FBBDE808401E200021E9
:1012600006F01EBB4015002010B50B78452B12D19F
:101270004B78522B0FD18B78CC78303B03EB830328
:10128000303C04EB4304E4B221460A22034806F052
:101290005BF8204610BD0A2010BD00BF10150020CD
:1012A0000B784F2B07D148784B2804D113704B781B
:1012B000012053707047002070470000F0B593B0D4
:1012C0000F466846684916461C4606F08AF8664985
:1012D00003A806F086F806A8634906F082F8002500
:1012E000B5420DD2795D0A220FA806F0E1F80FA9E8
:1012F000684606F029F90FA806F031F80135EFE746
:101300005A490CA806F06DF80CA9684606F014FAC4
:101310000022034669460FA806F012FA0FA903A897
:1013200006F0ADF80FA806F01AF80CA806F017F8AA
:101330004E490CA806F055F80CA9684606F0FCF9D1
:10134000029B021D69460FA806F0FAF90FA906A82C
:1013500006F095F80FA806F002F80CA805F0FFFFBC
:10136000059B022B05D103A806F035FA3038C5B22B
:1013700010E0042B30D103A806F02DFA642290FB74
:10138000F2F302FB1302303B303A03EB830302EB30
:101390004305EDB2364909A806F023F809A90FA8BC
:1013A00006F063F8102229460CA806F081F80CA973
:1013B0000FA806F01FF92F4906F029F901462E481B
:1013C00005F022FF0CA805F0CAFF0FA805F0C7FF23
:1013D00009A805F0C4FF2570089B022B05D106A8BB
:1013E00006F0F9F93038C5B210E0042B30D106A868
:1013F00006F0F1F9642290FBF2F302FB1302303B9A
:10140000303A03EB830302EB4305EDB21B4909A815
:1014100005F0E7FF09A90FA806F027F810222946D2
:101420000CA806F045F80CA90FA806F0E3F811493E
:1014300006F0EDF80146104805F0E6FE0CA805F0B0
:101440008EFF0FA805F08BFF09A805F088FF6570D7
:1014500006A805F084FF03A805F081FF684605F0A3
:101460007EFF13B0F0BD00BFD1D6000838B700082A
:101470003DB7000844B70008101500204AB700081F
:10148000F8B54C78432C08D18C78532C05D1CC7806
:10149000B4F151056C426C4100E000240026F5B225
:1014A0004F5D01363A2FFAD10135EDB20027954252
:1014B000FEB207F1010706D811F805C0013501F8A1
:1014C00006C0EDB2F3E73CB92046C2B2B2420BD23D
:1014D0000A5C1A540130F8E7069A02241268147064
:1014E000721ED2B2FFF7EAFE0120F8BD37B51548EB
:1014F00009B9154900E0154905F075FE642006F0AC
:10150000FBF900240F4805F05DFD0028E5B208DD79
:10151000062C14D00B4805F001FD0DF80400013431
:10152000F0E755B19DF802304F2B08D19DF803002C
:10153000B0F14B035842584102E0284600E0002039
:1015400003B030BD4015002052B7000856B7000860
:1015500010B501210446052006F0A2F907484FF412
:10156000165105F08DFD20460121FFF74DFE204666
:101570000121BDE81040FFF7B9BF00BF40150020B2
:101580002DE9F0419EB005AD0C460746002190467E
:1015900028466422039307F037F921462C4805F0CA
:1015A00022FE642006F0A8F90024294805F00AFD6F
:1015B0000028E6B207DD642C45D0254805F0AEFCD6
:1015C00028550134F1E726B92249234805F026FEC3
:1015D00039E09DF814300D2B35D19DF815300A2BCC
:1015E00031D11EAB334413F8653C0A2B2BD1023E9C
:1015F0001EAB334413F8643C0D2B24D10021CCB234
:10160000A31CDBB2B34201F1010107DA1EAA1344A5
:1016100013F8643C144404F8643CF0E73846294667
:10162000FFF722FE0A280CD103AB00933846294667
:1016300022464346FFF724FF00280CBF0320022068
:1016400002E0012000E003201EB0BDE8F08100BFF1
:10165000401500205CB70008101500202DE9F0416E
:10166000B2B006460D4690460021642268461F46E9
:1016700007F0CAF819A80021642207F0C5F8002471
:10168000E3B2E85C013420B132AA134403F8640CDD
:10169000F6E70146CAB25D1818F80240EDB232AA68
:1016A00001312A4414B102F8644CF3E70D2302F827
:1016B000643C6B1C32A8DBB203442F480A2203F8B7
:1016C000642C036819A95B6898472C48AA1C036816
:1016D00019A99B68D2B29847642006F00DF92748F3
:1016E00005F070FC0028E5B208DD642C3FD02348EB
:1016F00005F014FC0DF804000134F0E7002D36D09D
:101700009DF800300D2B32D19DF801300A2B2ED1DF
:1017100032AB2B4413F8C93C0A2B28D1023D32AB23
:101720002B4413F8C83C0D2B21D100218B1CDBB2BC
:10173000AB4201F1010209DA32A8034413F8C83CB4
:10174000C9B2014401F8C83C1146EFE7304669468A
:10175000FFF78AFD0A2808D1304669463A46FFF766
:101760009FFD80F00100C0B202E0012000E00320F4
:1017700032B0BDE8F08100BF1015002040150020F8
:10178000F7B51E46044617460D4600218DF8071092
:10179000FFF7ACFE04F0E4FE204631462FB12A46A6
:1017A0000DF10703FFF7ECFE03E0089A2B46FFF765
:1017B00055FF03282AD8DFE800F0110402070023B0
:1017C00011E01648164901E01448164905F026FDB7
:1017D00020460121FFF78AFE00201CE012490F4835
:1017E00005F01CFD12E09DF807205E1CDBB29A425A
:1017F0000A4809D9E95C102205F09DFD07480B490C
:1018000005F0F1FC3346EEE705F0F2FC204601213D
:10181000FFF76CFE012003B0F0BD00BF10150020E3
:1018200070B7000881B700088AB70008ABD6000877
:101830002DE9F0438BB004AF8046002109223846E1
:1018400002AE002406F0E0FF00944046314601223B
:101850002C4BFFF795FF054610B92B482B494BE061
:101860002346F25C07AC092A01D8303204E0A2F129
:101870000A01052998BF3732E2540133082BF0D111
:101880004FF0000922488DF8249000F0EFFD024649
:10189000C0B120491C4805F0C1FC1D48394600F084
:1018A00053FD50B14B46E15CFA5C914217D10133D4
:1018B000082BF8D1144818491EE01849124805F0C1
:1018C000ADFC07E0009440463146154BFFF758FF4A
:1018D000054698B121460E4800F086FD0AE0114900
:1018E000094805F09BFC00974046314600220C4B0E
:1018F000FFF746FF054601E005F090FC28460BB0D7
:10190000BDE8F083A0B7000810150020ABB70008B1
:1019100072140020CBB7000853B80008E9B70008DC
:101920000DB8000816B800082DE9F04F89B002AFD5
:1019300007F10C068346894690461C463046002136
:101940000A2206F061FF002C50D1C7F804D0584697
:10195000CDF80080314601224B46FFF711FF824649
:1019600008B1214606E04049404805F057FC3F4891
:101970003F496FE0CCB218F804300131002BF9D1A7
:10198000E11D01F4FC71ADEB010D02A9D8B2A0423A
:1019900003D2F05CC8540133F8E70B46581AC0B2C2
:1019A000A0420DD213F8010B092801D8303004E011
:1019B000A0F10A05052DF1D8373003F8010CEDE749
:1019C0000025EBB2A34243D24B5D013508EB050085
:1019D00010F8010C9842F4D02649244805F01EFC6A
:1019E0002248254905F01AFC7B689D466C46002379
:1019F000DAB219F8021001330A29F9D1931D03F460
:101A0000FC73ADEB030DA2F1020E02AB0020C1B2DC
:101A1000551EA94200F1010003DA19F801505D5486
:101A2000F5E700223D215A55584603F80E10CDF82F
:101A300000803146FFF7A4FE054628B90B480F4940
:101A400005F0ECFBAA4601E04FF0010AA54605E0CF
:101A500006480B4905F0E2FB7B689D4650461C3763
:101A6000BD46BDE8F08F00BF7DB80008101500200E
:101A7000A3B80008C7B800081EB9000860B900087C
:101A800095B900087FB50F2204460D46684600212F
:101A900006F0BAFE6248634905F0C0FB0A2604F06E
:101AA0005FFD002D6CD12046FFF7C2FE5E498DF828
:101AB00000005E4A2B462046FFF736FF5C498DF852
:101AC00001005C4A2B462046FFF72EFF5A498DF84D
:101AD00002005A4A2B462046FFF726FF58498DF848
:101AE0000300584A2B462046FFF71EFF564A574927
:101AF0002B468DF804002046FFF716FF8DF80500F1
:101B0000534800F003FCF1280CBF524A494A52499D
:101B10002B462046FFF708FF50498DF80600504A33
:101B200000232046FFF700FF4E498DF807004C4A7E
:101B300000232046FFF7F8FE4B498DF80800454A80
:101B400000232046FFF7F0FE48498DF80900484A77
:101B500000232046FFF7E8FE46498DF80A00464A72
:101B600000232046FFF7E0FE324A8DF80B00434980
:101B700020460023FFF7D8FE0D228DF80C000EE062
:101B8000334800F0C3FBF1280CBF324A294A2046F3
:101B900031490023FFF7C8FE01228DF80000002321
:101BA0001DF80310A9B936491D4805F037FB20463A
:101BB000FFF7CEFC2046FFF737FB04F0D1FC2046B0
:101BC000FFF7C6FC4FF4FA6005F096FE04F0C8FC7F
:101BD00005E00133D9B29142E2D304B070BD294887
:101BE00005F0F0F9002803DD264805F097F9F6E73F
:101BF000013E16F0FF067FF452AF2349084805F076
:101C00000DFB2249064805F009FB40F6B83005F007
:101C100073FE04F0A5FC04B0BDE8704004F0D4BC31
:101C200010150020BDB90008ECB90008F8B900088B
:101C300001BA0008FEB900080BBA000817BA00087C
:101C400020BA00082CBA000840BA000835BA0008CB
:101C5000721400204DBA000843BA000850BA0008B8
:101C60005ABA00085DBA000867BA000871BA0008DD
:101C70007ABA00087DBA000887BA00088ABA000854
:101C800094BA000840150020B1BA0008DDBA000877
:101C90001520012105F004BE1520002105F000BE2D
:101CA00010B500210446152005F0A2FD15200121E4
:101CB00005F0F6FD2046BDE81040FEF73BBB7FB5C2
:101CC00005460E46FFF7E8FF0D2433192146284646
:101CD00013F80D2C0134FEF75DFB162CF5D13046C0
:101CE000092103F077F80646214628463246FEF7DA
:101CF00051FB0D2421462846FEF71EFB01AB234471
:101D00000134162C03F80D0CF4D101A8092103F0BD
:101D100061F8B04203D0FFF7BBFF00200DE028467A
:101D20000B21FEF709FB552804D028460B2155222C
:101D3000FEF730FBFFF7ACFF012004B070BD7FB5AC
:101D400005460E46FFF7A8FF1724331921462846FB
:101D500013F8172C0134FEF71DFB202CF5D130466B
:101D6000092103F037F80646214628463246FEF799
:101D700011FB172421462846FEF7DEFA01AB234467
:101D80000134202C03F8170CF4D101A8092103F029
:101D900021F8B04203D0FFF77BFF00200DE028467A
:101DA0000C21FEF7C9FA552804D028460C215522EB
:101DB000FEF7F0FAFFF76CFF012004B070BDF0B53C
:101DC00085B001AD06460F4628460021092206F0DF
:101DD0001BFD0D2421463046FEF7AEFA2B190134C7
:101DE000162C03F80D0CF5D121463046FEF7A4FA67
:101DF00009210446284602F0EDFF844206D1002363
:101E0000EA5CFA540133092BFAD101E0002000E02A
:101E1000012005B0F0BDF0B585B001AD06460F4616
:101E200028460021092206F0EFFC172421463046FF
:101E3000FEF782FA2B190134202C03F8170CF5D188
:101E400021463046FEF778FA09210446284602F07A
:101E5000C1FF844206D10023EA5CFA540133092B06
:101E6000FAD101E0002000E0012005B0F0BD37B557
:101E70000C461E210546FEF75FFA1F218DF804006F
:101E80002846FEF759FA02218DF8050001A802F054
:101E9000A1FF207003B030BD10B50B210446FEF742
:101EA0004BFA88B1FFF7F8FE204600220B21FEF71F
:101EB00071FAFFF7EDFE20460B21FEF73DFAD0F157
:101EC000010038BF002010BD012010BD10B50C214D
:101ED0000446FEF731FA88B1FFF7DEFE2046002205
:101EE0000C21FEF757FAFFF7D3FE20460C21FEF730
:101EF00023FAD0F1010038BF002010BD012010BD31
:101F000010B521210446FEF717FA552811D0FFF726
:101F1000C3FE204655222121FEF73CFAFFF7B8FE0A
:101F200020462121FEF708FAB0F1550358425841E6
:101F300010BD012010BD08B52121FEF7FDF9B0F15B
:101F400055035842584108BD70B504460D46FFF789
:101F500036FF20B120462946FFF75DFF48BB2046EB
:101F60002946FFF72CFF48B11549164805F056F9E8
:101F700020462946BDE87040FFF7E1BE20462946CD
:101F8000FFF749FF06460F4846B10F4905F046F9ED
:101F900020462946BDE87040FFF791BE0B4905F089
:101FA0003DF92046FFF778FF2046FFF78FFF3046C8
:101FB00070BD0749034805F031F9012070BD00BF2D
:101FC00006BB0008101500203DBB000874BB0008CC
:101FD00088BB0008F8B504460E462F257319204625
:101FE000294613F82F7CFEF7A7F9874203D1013564
:101FF000342DF3D136E0FFF74FFE2F257319294614
:10200000204613F82F2C0135FEF7C4F9342DF5D1F5
:102010000521304602F0DEFE0746294620463A46B4
:10202000FEF7B8F92F2520462946FEF785F97319E2
:1020300013F82F3C834217D10135342DF3D12046BC
:102040002946FEF779F9B8420ED120463521FEF730
:1020500073F9552804D0204635215522FEF79AF908
:10206000FFF716FE0120F8BDFFF712FE0020F8BDB5
:10207000F7B505460E462F2421462846FEF75CF9A3
:1020800000AB23440134342C03F82F0CF4D1052188
:10209000684602F09FFE214607462846FEF74CF9A7
:1020A000874207D100231DF80320F2540133052B8A
:1020B000F9D101E0002000E0012003B0F0BD73B5CC
:1020C00005462F2421462846FEF736F900AB234467
:1020D0000134342C03F82F0CF4D16846052102F0AA
:1020E00079FE214606462846FEF726F9331A58425D
:1020F000584102B070BD38B50546FFF7CDFD2F241D
:1021000028462146FEF718F968B1284621460022E4
:10211000FEF740F928462146FEF70EF918B1FFF701
:10212000B7FD002038BD0134342CE9D128463521D3
:10213000FEF702F920B1284635210022FEF72AF9E0
:10214000FFF7A6FD012038BD37B50D468DF8071005
:1021500036210446FEF7F0F885422BD002ADFFF79A
:102160009BFD15F8012D20463621FEF713F90121BC
:10217000284602F02FFE372102462046FEF70AF9D4
:1021800020463621FEF7D8F89DF8073083420DD15E
:1021900020463821FEF7D0F8552804D020463821B3
:1021A0005522FEF7F7F8FFF773FD03E0FFF770FD28
:1021B000002000E0012003B030BD3621FEF7BCB89E
:1021C00037B536210546FEF7B7F802AB03F8010D27
:1021D0001846012102F0FEFD372104462846FEF78D
:1021E000ABF8231A5842584103B030BD10B5362120
:1021F0000446FEF7A1F888B1FFF74EFD20463621D0
:102200000022FEF7C7F820463621FEF795F818B1F0
:10221000FFF73EFD002010BDFFF73AFD012010BD85
:1022200010B548210446FEF787F8552811D0FFF76E
:1022300033FD204655224821FEF7ACF8FFF728FD74
:1022400020464821FEF778F8B0F15503584258412E
:1022500010BD012010BD10B54D210446FEF76CF8ED
:10226000552810D0FFF718FD204655224D21FEF7C6
:1022700091F8FFF70DFD20460021FEF75DF80030D4
:1022800018BF012010BD012010BD000037B58DF82A
:1022900007101031C9B20129044629D84C21FEF794
:1022A0004BF89DF80730834228D002ADFFF7F4FCCD
:1022B00015F8012D20464C21FEF76CF80121284627
:1022C00002F088FD4E2102462046FEF763F82046C4
:1022D0004C21FEF731F89DF80730834205D12046A6
:1022E000FFF7B9FFFFF7D4FC08E0FFF7D1FC03E0EC
:1022F0000448054904F092FF002000E0012003B0EB
:1023000030BD00BF10150020B8BB000837B54C2108
:102310000446FEF711F802AB03F8010D184601213F
:1023200002F058FD4E2105462046FEF705F885428D
:1023300002D19DF8070004E02046F021FFF7A6FF38
:10234000F02003B030BD0000F7B505460E464F241F
:1023500021462846FDF7F0FF00AB23440134572CFB
:1023600003F84F0CF4D10821684602F033FD2146F2
:1023700007462846FDF7E0FF87420CD100231DF8F1
:102380000320F2540133082BF9D10448044904F026
:1023900045FF012000E0002003B0F0BD1015002033
:1023A000EEBB000810B558210446FDF7C5FF5528BF
:1023B00008D0FFF771FC204658215522FDF7EAFFAF
:1023C000FFF766FC10BD10B558210446FDF7B4FFB9
:1023D00040B1FFF761FC204658210022FDF7DAFFEB
:1023E000FFF756FC10BD0000F7B50F460546FFF796
:1023F00053FC3846082102F0EDFC4F2406463B19F9
:102400002146284613F84F2C0134FDF7C3FF572C03
:10241000F5D1214628463246FDF7BCFF4F24214620
:102420002846FDF789FF00AB23440134572C03F8FD
:102430004F0CF4D16846082102F0CCFC864206D04D
:102440002846FFF7C0FFFFF723FC002007E00549FF
:10245000054804F0E3FE2846FFF7A4FF012003B07F
:10246000F0BD00BF03BC00081015002008B55821BE
:10247000FDF762FFB0F155035842584108BD70B5F1
:1024800004460E461546FFF707FC20463246222139
:10249000FDF780FF204623212A46FDF77BFFFFF74B
:1024A000F7FB70BDFDF748BFFDF746BF70B50446AA
:1024B0000E461546FFF7F0FB204632462421FDF775
:1024C00069FF204625212A46FDF764FFFFF7E0FB60
:1024D00070BD10B50446FFF7DFFB20465522592199
:1024E000FDF758FFFFF7D4FB20465921FDF724FFE5
:1024F000B0F155035842584110BD08B55921FDF7B8
:102500001BFFB0F155035842584108BD10B50446B1
:10251000FFF7C2FB204600225921FDF73BFFFFF7E2
:10252000B7FB20465921FDF707FFD0F1010038BF66
:10253000002010BD73B5002305460E46009301939D
:10254000FFF7AAFB5A2433192146284613F85A2CC0
:102550000134FDF71FFF622CF5D13046082102F04F
:1025600039FC0646214628463246FDF713FF5A2419
:1025700021462846FDF7E0FE00AB23440134622CDF
:1025800003F85A0CF4D10821684602F023FC0446F3
:10259000FFF77EFBB442064804D1064904F03EFE34
:1025A000012003E0044904F039FE002002B070BDB0
:1025B0001015002018BC000846BC000838B50949B1
:1025C0000546094804F02AFE5A2421462846FDF70C
:1025D000B3FE064B1A190134622C02F85A0CF4D1DE
:1025E000184638BD77BC000810150020751400206F
:1025F00073B5002305460E4600930193FFF74CFB8D
:10260000632433192146284613F8632C0134FDF75F
:10261000C1FE6B2CF5D13046082102F0DBFB0646EB
:10262000732128463246FDF7B5FE6324214628462D
:10263000FDF782FE00AB234401346B2C03F8630CDE
:10264000F4D10821684602F0C5FB0446FFF720FBE1
:10265000B442064804D1064904F0E0FD012003E03D
:10266000044904F0DBFD002002B070BD101500200D
:10267000AFBC0008DDBC000870B50E4674210446EE
:102680001546FDF759FEB04205D120467521FDF7EC
:1026900053FEA84219D0FFF7FFFA204674213246B4
:1026A000FDF778FE204675212A46FDF773FEFFF7F9
:1026B000EFFA20467421FDF73FFEB0420BD12046D1
:1026C0007521FDF739FEA84205D10649064804F0F8
:1026D000A5FD012070BD0549034804F09FFD0020C1
:1026E00070BD00BF55BD00081015002077BD000863
:1026F00038B574210546FDF71FFE752104462846AE
:10270000FDF71AFE00EB042038BD000010B50446AA
:10271000FFF7C2FA204674210022FDF73BFE204657
:1027200075210022FDF736FEFFF7B2FA204674212C
:10273000FDF702FE20B920467521FDF7FDFD28B109
:102740000549064804F06AFD002010BD044903480D
:1027500004F064FD012010BD99BD00081015002093
:10276000BCBD000870B50E46762104461546FDF73F
:10277000E3FDB04205D120467721FDF7DDFDA842FB
:1027800019D0FFF789FA204676213246FDF702FE7E
:10279000204677212A46FDF7FDFDFFF779FA20460E
:1027A0007621FDF7C9FDB0420BD120467721FDF718
:1027B000C3FDA84205D10649064804F02FFD0120BB
:1027C00070BD0549034804F029FD002070BD00BF1D
:1027D000DFBD00081015002007BE000838B57621BF
:1027E0000546FDF7A9FD772104462846FDF7A4FD1F
:1027F00000EB042038BD000070B50E467A21044677
:102800001546FDF799FDB04205D120467B21FDF725
:1028100093FDA84219D0FFF73FFA20467A213246AD
:10282000FDF7B8FD20467B212A46FDF7B3FDFFF7F3
:102830002FFA20467A21FDF77FFDB0420BD12046CA
:102840007B21FDF779FDA84205D10649064804F031
:10285000E5FC012070BD0549034804F0DFFC0020C1
:1028600070BD00BF89BE000810150020BBBE000867
:1028700038B57A210546FDF75FFD7B2104462846E1
:10288000FDF75AFD00EB042038BD000070B50E4680
:10289000782104461546FDF74FFDB04205D120468C
:1028A0007921FDF749FDA84219D0FFF7F5F9204637
:1028B00078213246FDF76EFD204679212A46FDF744
:1028C00069FDFFF7E5F920467821FDF735FDB042B7
:1028D0000BD120467921FDF72FFDA84205D10649ED
:1028E000064804F09BFC012070BD0549034804F034
:1028F00095FC002070BD00BF50BF000810150020DF
:102900007CBF000838B578210546FDF715FD792113
:1029100004462846FDF710FD00EB042038BD0000FA
:1029200070B50E467C2104461546FDF705FDB04204
:1029300005D120467D21FDF7FFFCA84219D0FFF705
:10294000ABF920467C213246FDF724FD20467D214F
:102950002A46FDF71FFDFFF79BF920467C21FDF776
:10296000EBFCB0420BD120467D21FDF7E5FCA842EF
:1029700005D10649064804F051FC012070BD054907
:10298000034804F04BFC002070BD00BF02C00008EB
:102990001015002032C0000838B57C210546FDF72F
:1029A000CBFC7D2104462846FDF7C6FC00EB042045
:1029B00038BD00007FB533490546334804F02EFC8E
:1029C00003F0CEFD40F6B83004F096FF03F0C8FDEA
:1029D00040F6B83004F090FF03F0C2FD2A4804F03E
:1029E000F1FA00280ADD284804F098FAC1B2274815
:1029F00004F0AFFD022004F07FFFEFE7234CA66850
:102A0000002E34D0204604F0DAFE21461E4804F0A1
:102A1000FBFB1F4901A804F0E4FC01A9204604F0D7
:102A200046FE064601A804F09AFC1748EEB1194983
:102A300004F0F4FB1849204604F029FD2846212122
:102A4000FDF77AFC40B1FFF727F928462121002243
:102A5000FDF7A0FCFFF71CF928462121FDF76CFCCF
:102A6000D0F1010038BF00200AE00C4901E006481F
:102A70000B4904F0D3FB2046074904F008FD30461B
:102A800004B070BDC4C0000810150020C814002098
:102A900015C1000819C10008D1D600084FC10008AF
:102AA0007AC100080022026042607047006820B1CD
:102AB00003688B4201D08068F9E7704770B504461F
:102AC0000C2016460D4605F08DFB00228260226820
:102AD00080E860000AB9206001E062689060606090
:102AE00070BD10B51446FFF7E1FF08B14460012046
:102AF00010BD08B5FFF7DAFF00B1406808BD01F569
:102B00001C414131FFF7DABF01F51C414131FFF7AC
:102B1000E8BF01F51C414131FFF7EBBF002A01F18D
:102B2000010114BF4FF47F420022FFF7C7BF00002E
:102B300070B54D1C86B0144606460A2229466846E2
:102B400004F0D9FC694603A804F08FFC03A80D49E2
:102B500004F05DFD214604F076FD01460A4804F0CC
:102B600053FB03A804F0FBFB684604F0F8FB002CC1
:102B70003046294614BF4FF47F420022FFF7B1FFD1
:102B800006B070BD9DC100081015002008B50131C8
:102B9000FFF7AFFFB0F57F435842584108BD01F53C
:102BA0001C5108B51131FFF7A4FFB0F57F4358421F
:102BB000584108BD01F5EA413131FFF79ABF0000E5
:102BC00070B504460D4609480949164604F026FB2F
:102BD000A06805F00FFB0220207305F003FB803D89
:102BE0000323A06005704670637370BD101500204C
:102BF000A2C10008F8B5531E7C2B04460F461646AA
:102C000002D903210A4617E001F51C414131FFF7C3
:102C10004DFF18B92046032102220DE0A06805F0FF
:102C2000E9FA701C4000C0B2207305F0DBFAA06026
:102C300030B9204603210422BDE8F840FFF7C0BFA9
:102C400003230370237B0025023B4370E9192046D0
:102C5000FFF75FFFA3680135020A03F81520A36898
:102C6000B54203EB45035870F0D103236373F8BDFD
:102C700070B504460E461546FFF746FF18B92046C4
:102C80000621022208E020463146FFF742FFA84213
:102C900006D0204606210422BDE87040FFF790BF11
:102CA0000223637370BD2DE9F8431F4616467A1E52
:102CB0007A2A044688469DF8203008D8B3EB470F9F
:102CC00005D106F51C45413505EB070903E0204613
:102CD0001021032218E04D450AD029462046FFF76F
:102CE000E5FE01350028F6D12046102102220BE036
:102CF000A06805F07FFA0520207305F073FAA06044
:102D000030B9204610210422BDE8F843FFF758BF30
:102D100010230370330A4370002307718670C37059
:102D200008F106053744BE4205F102050BD015F83F
:102D3000022C15F8013C3146204643EA0222FFF7F7
:102D4000E3FE0136EFE703236373BDE8F8832DE963
:102D5000F843531EB3F5FA6F04460F46154602D3E7
:102D60000121032219E00131FFF7A0FE18B9204626
:102D70000121022211E0A06805F03CFAC5F3C70367
:102D80006A070CBF023303332373207B05F02AFA52
:102D9000A06030B9204601210422BDE8F843FFF7C6
:102DA0000FBF01230370237B05EB0708023B437031
:102DB0003E46002546451CD031462046FFF7E6FE3C
:102DC000C7F10109B1444FEAD909012109F1020310
:102DD000A268A94010B1D05C014302E0D05C20EAB7
:102DE00001010135EDB2082DD15408BF002501368F
:102DF000E0E703236373BDE8F88300002DE9F8439F
:102E0000531EB3F5FA6F04460F46154602D302214E
:102E100003221FE001F51C511131FFF747FE18B9DD
:102E200020460121022215E02249234804F0F6F948
:102E3000A06805F0DFF9C5F3C7036A070CBF0233CA
:102E400003332373207B05F0CDF9A06030B9204611
:102E500002210422BDE8F843FFF7B2BE022303704B
:102E6000237B05EB0708023B43703E4600254645A1
:102E70001CD031462046FFF792FEC7F10109B1444C
:102E80004FEAD909012109F10203A268A94010B152
:102E9000D05C014302E0D05C20EA01010135EDB2D3
:102EA000082DD15408BF00250136E0E703236373E2
:102EB000BDE8F883C1C1000810150020F8B5531E05
:102EC0007C2B04460F46164602D90421032217E044
:102ED00001F5EA413131FFF7E9FD18B9204601213A
:102EE00002220DE0A06805F085F9701C4000C0B218
:102EF000207305F077F9A06030B9042120460A4616
:102F0000BDE8F840FFF75CBE04230370237B002577
:102F1000023B4370E9192046FFF74CFEA3680135D8
:102F2000020A03F81520A368B54203EB4503587065
:102F3000F0D103236373F8BD70B5B2F57F4F86B04F
:102F400004460E4603D012B10521032215E0151CDC
:102F500018BF0125204631462A46FFF7E9FD18B97A
:102F600020460521022208E020463146FFF70EFEEA
:102F7000A84205D0204605210422FFF721FE17E0D4
:102F80000C49684604F02DFA694603A804F06DFA6E
:102F9000094903A804F03BFB0146084804F034F952
:102FA00003A804F0DCF9684604F0D9F9022363733E
:102FB00006B070BDEBC1000803C200081015002068
:102FC0002DE9F0438BB00446894604A86D49DF081B
:102FD0001D46164604F005FA04A907A804F045FAB0
:102FE000394607A804F039FB0146674804F00CF99C
:102FF00007A804F0B4F904A804F0B1F96B0705F1CF
:10300000FF3318BF0137B3F5F66F07D29DF848308C
:10301000BB4203D1771C07EB050807E05B495A4820
:1030200004F0FCF820460F2103224BE047450AD06C
:1030300039462046FFF73AFD01370028F6D12046F1
:103040000F2102223EE05048514904F0E7F80627DC
:10305000504901A804F0C5F901A904A804F005FA33
:10306000394604A804F0F9FA4B4904F0D0FA1022CA
:1030700019F80710804607A804F01AFA07A9404675
:1030800004F0B8FA0146404804F0BEF807A804F07E
:1030900066F904A804F063F9013701A804F05FF9A8
:1030A000102FD5D13A49384804F0B8F8A06805F097
:1030B000A1F80520207305F095F8A06028B92046F6
:1030C0000F210422FFF77CFD58E00F230370330A21
:1030D00043702B0A8670C37005712D492A4804F08D
:1030E0009DF806272B4901A804F07BF901A904A843
:1030F00004F0BBF9394604A804F0AFFA264904F0FD
:1031000086FA102219F80710804607A804F0D0F9B3
:1031100007A9404604F06EFA01461B4804F074F813
:1031200007A804F01CF904A804F019F9013701A854
:1031300004F015F9102FD5D11348154904F06EF895
:103140003544B0460027C6EB080309EBD3039A7950
:1031500041463A410137FFB2204602F00102FFF733
:10316000E7FC08F10108082F08BF0027A845EAD1AD
:1031700005480A4904F052F8032363730BB0BDE815
:10318000F08300BF15C200081015002027C20008F8
:1031900057CC000838C200083FC2000843C20008EC
:1031A0002DE9F0418B784F788CB0CE7843EA072731
:1031B0000B7991F800800C460546544903A843EA70
:1031C000062604F00EF903A909A804F04EF910220E
:1031D000217806A804F06CF906A909A804F00AFAF7
:1031E00001464B4804F010F806A804F0B8F809A806
:1031F00004F0B5F803A804F0B2F8464903A804F0B7
:10320000F0F803A909A804F030F91022394606A8FD
:1032100004F071F906A909A804F0ECF901463C484C
:1032200003F0F2FF06A804F09AF809A804F097F852
:1032300003A804F094F8384903A804F0D2F803A9CD
:1032400009A804F012F91022314606A804F053F937
:1032500006A909A804F0CEF901462D4803F0D4FFD1
:1032600006A804F07CF809A804F079F803A804F093
:1032700076F808F1FF330F2B3FD8DFE803F01D236A
:103280000E292F083E3E3E3E3E3E3E3E3514284629
:1032900039463246FFF7ECFC34E0284639463246E0
:1032A000FFF7A8FC2EE063792846009321463A46B2
:1032B0003346FFF7F8FC25E0284639463246FFF74B
:1032C00046FD1FE0284639463246FFF797FD19E0D4
:1032D000284639463246FFF7F1FD13E028463946C5
:1032E0003246FFF729FE0DE0637928460093214618
:1032F0003A463346FFF764FE04E028464146012281
:10330000FFF75EFC0CB0BDE8F08100BF52C20008C0
:10331000101500205EC2000868C2000810B50446FF
:10332000FFF7C0FB204610BD80F828100120704731
:1033300070B5049E0161C6610446154608461146F3
:10334000DAB203F061FE4FF4FA6004F0D5FA002E11
:1033500008DBF6B23046002104F04AFA304600217C
:1033600004F09EFAB5F5964F06DD40F2EE23236297
:1033700040F2D663636207E0044B93FBF5F32362EC
:10338000034B93FBF5F56562012070BDC0E1E400DD
:10339000C00E160270B50446C06986B000280D46FE
:1033A00006DBC0B2012104F07BFA012004F0A4FA8C
:1033B0000023227B5E1CDBB29A421FD9194A106897
:1033C000411C1160E95C184A1154D15C6846102216
:1033D00004F06EF8694603A804F047F8134903A8FF
:1033E00004F015F90146124803F0F0FE03A803F0BB
:1033F000B6FF684603F0B3FF3346DAE70D490C48E1
:1034000003F00CFF206903689B699847606A04F029
:1034100081FAE069002803DBC0B2002104F040FA21
:1034200006B070BD941400207F140020ABD60008B5
:103430001015002072C30008F0B5C9430B4EC9B285
:10344000705C0B4DC0436C5CC0B20021AC46CFB287
:10345000BB4207D0555C01314540705D60401CF8AF
:103460000540F4E744EA0020F0BD00BF72C2000846
:1034700022C400082DE9F0410D78037BFF2D01EBFC
:10348000030204460E4612F8028C12F8017C03D0A7
:1034900090F82820AA4219D1A268033B204612F8CE
:1034A000011BDBB2FFF7C8FF47EA0827874202D0BB
:1034B0000A480B490CE02046711CFFF771FEFF2DF6
:1034C0004FF0010007D16073BDE8F0810348054962
:1034D00003F0A4FE0020BDE8F08100BF101500201D
:1034E0009AC30008C6C30008F8B50446C0690F4671
:1034F000002806DBC0B2012104F0D2F9012004F05B
:10350000FBF9194D19491A4803F088FE194E2B682A
:1035100094F828105A1CF154237B2A600022D0B260
:1035200098420AD2286800F1010EC5F800E017F8A9
:1035300002E0013206F800E0F1E7A2682046FFF75A
:103540007BFF2B68020AF2541E449A1C7070606A5A
:103550002A6004F0DFF9E069002803DBC0B2002133
:1035600004F09EF9F8BD00BF94140020F6C30008D3
:10357000101500207F140020D2B238B504460D4645
:103580000273002A3ED02049204803F047FE207BEA
:1035900004F028FE0023A060227B591CDBB29A4273
:1035A00004D9E85CA268D0540B46F5E717481849DF
:1035B00003F034FE0025237B9D4207D2A368134805
:1035C000595D102203F0C0FE0135F4E710490F48A1
:1035D00003F024FE2046A168FFF74CFF68B1637B2F
:1035E000032B04D12046A168FFF77EFF05E0022BE4
:1035F00003D12046A168FFF7CDFEA06804F0FAFDD4
:103600000023237338BD00BF16C400081015002026
:1036100049C2000808B5032002F054FC014B012206
:103620001A7008BDA114002070B55E480D460978D7
:1036300001F044FD697806465A4801F03FFD06EB6B
:103640008606594C06EB860600EB8600E080A978DA
:10365000544801F033FD6071E978524801F02EFDC5
:10366000207129794F4801F029FD6979A0704D48F2
:1036700001F024FDA97960704A4801F01FFD4B4913
:1036800020704B4803F0AFFDE1880A22484803F060
:103690003AFE4849464803F0A6FD61790A224448AB
:1036A00003F052FE4449424803F09DFD21790A226D
:1036B0003F4803F049FE41493D4803F094FDA1789D
:1036C0000A223B4803F040FE3D49394803F08BFD98
:1036D00061780A22364803F037FE3A49344803F04D
:1036E00082FD0A222178324803F02EFE02F0C8FE45
:1036F000642004F001F92046FCF7BEFD0146324883
:1037000002F0FEFA642004F0F7F802F0BFFE2E4843
:1037100002F0F9FA01462046FCF722FDE188642315
:10372000B1FBF3F1C9B21F4801F0BFFC2870E28879
:103730004FF47A73B2FBF3F103FB11211948C9B2BC
:1037400001F0B3FC68706179164801F0AEFCA87016
:103750002179144801F0A9FCA178E870114801F022
:10376000A4FC617828710F4801F09FFC21786871F2
:103770000C4801F09AFC0024A871295D10220C4825
:1037800003F0D9FD01340A48104903F02CFD072C41
:10379000F3D1074803F02CFDBDE8704004480C4904
:1037A00003F03CBD051500209814002022C5000838
:1037B0001015002029C5000831C5000837C50008CC
:1037C0003EC5000848C50008A2140020ABD600087A
:1037D00052C5000870B51B4886B0FCF74DFD1A4C69
:1037E000054602F04DFE0A2004F086F829462046E0
:1037F00002F086FA204602F086FA144D14492A682F
:103800008618684603F0EDFD694603A803F02DFE17
:10381000296803A803F021FF01460E4803F0F4FCD9
:1038200003A803F09CFD684603F099FD0A4932465F
:10383000204602F06AFA0A2004F05EF802F026FE42
:1038400006B070BD98140020A2140020DC130020E4
:1038500075C5000810150020153600080148112113
:1038600002F045BAA2140020064B1A6801321A6011
:103870001A68B2F5615F04D300221A60024B01227C
:103880001A707047A8140020D514002010B50E4CF3
:1038900086B02368684601330C49236003F0A1FD1C
:1038A000694603A803F0E1FD216803A803F0D5FEF3
:1038B0000146074803F0A8FC03A803F050FD684642
:1038C00003F04DFD06B010BDA4140020F7C500089C
:1038D0001015002038B50E4C0E48236801332360C4
:1038E000FEF7C6FF90B10B48FEF7C2FFB0F5E16FDF
:1038F00000D938BD07482568FEF7BAFF854205D3D1
:1039000000232360044B01221A7038BD38BD00BF6C
:10391000AC1400207E1400200815002010B5084CBF
:103920000849204603F0F5FB20460121064A03F032
:103930000FFC20460021BDE8104003F0E1BB00BFB2
:10394000A815002040420F00D538000810B5084CDB
:103950000849204603F0DDFB20460121064A03F01A
:10396000F7FB20460021BDE8104003F0C9BB00BFB3
:10397000AC15002040420F006938000810B5084C13
:103980000849204603F0C5FB20460121064A03F002
:10399000DFFB20460021BDE8104003F0B1BB00BFB3
:1039A000B015002040420F008D38000810B5054CBE
:1039B000204603F097FB20460021BDE8104003F0AD
:1039C0009FBB00BFA815002010B5054C204603F092
:1039D00089FB20460021BDE8104003F091BB00BFE9
:1039E000AC15002010B5064C204603F07BFB2046AA
:1039F000002103F085FB034B00221A6010BD00BFBD
:103A0000B0150020A4140020014803F063BB00BFE0
:103A1000A8150020014803F05DBB00BFAC150020D5
:103A200008B5034803F056FB024B00221A6008BD9C
:103A3000B0150020A414002030B5314D8DB02B7886
:103A4000002B5AD000242F492F4803F0E7FB2C709D
:103A5000FFF7DAFF2046FF2103F043FFFF21C5B245
:103A6000204603F03EFF2949C4B203A803F0B9FC85
:103A700003A909A803F0F9FC1022294606A803F0BF
:103A800017FD06A909A803F0B5FD01461E4803F07D
:103A9000BBFB06A803F063FC09A803F060FC03A8C5
:103AA00003F05DFC1A4903A803F09BFC03A909A8D5
:103AB00003F0DBFC1022214606A803F0F9FC06A95E
:103AC00009A803F097FD01460F4803F09DFB06A8E7
:103AD00003F045FC09A803F042FC03A803F03FFCF7
:103AE00001210C480A462B46009401F025FBFFF704
:103AF0005DFF0548084903F091FB0DB030BD00BFE4
:103B00000815002009C600081015002044B300085D
:103B100050B300080915002022C6000870B5404DBA
:103B20008CB02B78002B59D03E493F4803F076FBF0
:103B300000243E4B01262046FF211E702C7003F00E
:103B4000D0FEFF21C5B2204603F0CBFE3849C4B2F7
:103B500003A803F046FC03A909A803F086FC102281
:103B6000294606A803F0A4FC06A909A803F042FD13
:103B700001462D4803F048FB06A803F0F0FB09A816
:103B800003F0EDFB03A803F0EAFB2A4903A803F0C6
:103B900028FC03A909A803F068FC1022214606A806
:103BA00003F086FC06A909A803F024FD01461E487F
:103BB00003F02AFB06A803F0D2FB09A803F0CFFB11
:103BC00003A803F0CCFB1C483146009402222B468C
:103BD00001F0B2FA1448194903F020FB184D2B7874
:103BE000E3B11849104803F019FB00240F4BFF21E3
:103BF00020461C702C7003F074FEFF210546204601
:103C000003F06FFE0121C0B200900A460A48EBB2F1
:103C100001F04EFF04480C4903F000FB0CB070BDEE
:103C2000B014002062C60008101500200C0000200F
:103C300044B3000850B30008091500207DC60008F1
:103C4000C6140020BCC60008D5C6000810B5064C36
:103C50000649204603F0C5FB20460549054ABDE854
:103C6000104003F08DBF00BFC8140020D1D600085B
:103C70005F7300080800002030B54A4885B0FEF7A1
:103C80005AF9002846D1484B484918704548FEF774
:103C900016F828B143484549FEF751F8002877D176
:103CA0004048FEF7A3FA20B13E48FEF724FA002868
:103CB00073D101238DF804303A48002301A98DF80F
:103CC00005308DF806308DF807308DF80830FEF796
:103CD00081F918B13648374903F0A0FA314801217B
:103CE000FEF732FA18B13248334903F097FA3349F4
:103CF0002F4803F093FA32492D4803F08FFA09E078
:103D0000304CA368EBB92F482C4903F0C0FB2E4878
:103D1000FDF7AAF92348FEF70EF9002833D102F087
:103D20001FFC234803F04EF90028E9DD204803F08A
:103D3000F5F8C1B2234803F00CFC022003F0DCFDCF
:103D4000EFE7204603F03BFD2146194803F05CFAFB
:103D50001E4901A803F045FB204601A903F0A7FC7A
:103D6000054601A803F0FBFA55B11449204603F0BB
:103D70008EFB0F48164903F051FA164801F04EFA2F
:103D800002F0EEFBBFE7084B01221A7005B030BD10
:103D90001149074803F042FA82E71049044803F04A
:103DA0003DFA86E7741400200E000020BD140020A8
:103DB000101500200DC700084AC70008D1D600081A
:103DC00086C70008C81400205513002017C100083A
:103DD000C9C70008091500200CC8000840C8000821
:103DE00030B598488DB001F00CF8974800F01AFEF5
:103DF000964B06201A684FF47A7122F0E06242F086
:103E000080621A6002F09CFB91484FF4165103F057
:103E100037F94FF416518F48FDF7F0F902F023FB04
:103E20008D48FDF73DFF874800F0FEFF02F098FB4C
:103E30008848FDF7C7F901218648FDF757FB874DF4
:103E40004FF4FA6003F058FD002485482C70FDF70C
:103E50000BF901232B7002F083FBF1218148FEF75F
:103E600015FA21467B48FDF70DFE7E48FEF7D8F98E
:103E70007D49774803F0D2F97C482221FEF714FBF4
:103E80000128044605D179482321FEF70DFB05469C
:103E9000E0B1002275480121FEF7F1FA7449684645
:103EA00003F09FFA694606A803F0DFFA1022012109
:103EB00003A803F00EFB03A906A803F09BFB6D49C2
:103EC00003F0A5FB0021044609A816E06A496846EC
:103ED00003F087FA694606A803F0C7FA21461022C4
:103EE00003A803F0F6FA03A906A803F083FB6149CF
:103EF00003F08DFB2946044609A8102203F0E9FAD5
:103F0000204609A903F076FB0146514803F07CF9ED
:103F100009A803F024FA03A803F021FA06A803F085
:103F20001EFA684603F01BFA50482421FEF7BAFA3D
:103F30000128044616D14D482521FEF7B3FA05465F
:103F400080B94E4906A803F04CFA06A909A803F067
:103F50008CFA214609A803F076FB464903F057FB8B
:103F6000294614E0002241480121FEF79FFA444906
:103F700006A803F036FA06A909A803F076FA01218B
:103F800009A803F060FB3B4903F041FB002103F06B
:103F90005AFB01462E4803F037F909A803F0DFF970
:103FA00006A803F0DCF93748FEF704FDFFF764FECE
:103FB00034483549FDF7C8FFA0B92B49244803F020
:103FC0002DF93249224803F029F9314801F03EFA2F
:103FD0002348FDF749F840F6B83001F079F802F0CF
:103FE000BFFAE5E72B491A4803F018F902F0B8FACE
:103FF000FFF794FC2849164803F010F91A491448B1
:1040000003F00CF9FFF7A2FC2449114803F006F96C
:1040100015490F4803F002F9FFF7B0FCFFF700FD68
:104020001F490B4803F0FAF80F49094803F0F6F866
:104030001C49074803F0F2F80B49054803F0EEF875
:104040000DB030BD04150020D7140020040001403D
:1040500010150020711400207D1400200D00002098
:104060005513002072140020D1D6000873140020CC
:10407000C6C9000801BC000811CA000827CA000808
:104080003DCA000874140020BD14002087C8000831
:1040900009150020BBC80008D4C8000811C90008D1
:1040A00048C9000880C9000830B587B0344802F01C
:1040B00089FF00280ADD324802F030FFC1B23148E2
:1040C00003F047FA022003F017FCEFE72D4CA3683A
:1040D000002B53D0204603F072FB2146284803F002
:1040E00093F8294903A803F07CF903A9204603F0BB
:1040F0000BFB054603A803F032F92046002D36D00D
:104100000021042203F042FB204603F064FB1F4C15
:1041100002462060C2F307211D48D2B2FEF700FC20
:1041200010B117481B4901E015481B4903F076F808
:104130001748FEF731FC19492060684603F051F931
:10414000694603A803F091F9216803A803F085FAF2
:1041500001460B4803F058F803A803F000F968463D
:1041600003F0FDF80E49074803F091F906E00C4909
:1041700003F08DF902480B4903F050F807B030BD49
:1041800010150020C814002088CA0008DC13002085
:104190007E1400208DCA0008C3CA000890C500081C
:1041A000D1D60008FCCA00082DE9F047654B86B05F
:1041B0001A68984612F0010F02D0634B01221A7060
:1041C000624802F0FFFE00280ADD604802F0A6FE09
:1041D000C1B25F4803F0BDF9022003F08DFBEFE7A9
:1041E0005B4CA368002B00F0AA80204603F0E7FA9E
:1041F0002146564803F008F8564903A803F0F1F8A1
:10420000204603A903F053FA054603A803F0A7F8D4
:10421000002D00F0928020464F4903F038F9D8F87D
:1042200000304E4901334948C8F8003002F0F6FF2B
:104230004B49684603F0D5F8694603A803F015F921
:10424000D8F8001003A803F008FA01463F4802F02E
:10425000DBFF03A803F083F8684603F080F83E49CB
:104260003A4802F0DBFFFFF7DBFB032001F02AFEF8
:104270003C4900230B703C4A3C4913700B703C4A8C
:104280003C4913700B703C4A3C4913700B703C4A1C
:104290003C4913700B703C4A3C4913700B703C4A0C
:1042A0003C4913600B701C461D4691463A4B002258
:1042B000E2503A4B3A4FE2503A4BDFF810A1E2504D
:1042C000394B3A4EE2503A4BE251E250394BE8B2A8
:1042D000E250394B0121EA54384B44F80A20EA54A1
:1042E000374BA251EA54374B0434EA54013500F0FD
:1042F00041FD022DDAD1D8F8003013F0010312D0BD
:104300003148FEF749FB14224FF6FF73C9F800004D
:10431000CAF800203D603360CAF804207D607360F5
:10432000FFF760FB09E0C9F80030CAF800303B60D5
:104330003360CAF804307B60736002F011F906B094
:10434000BDE8F087B81400200C00002010150020F4
:10435000C814002023CB0008D1D6000825CB0008C4
:1043600068CB0008B3140020B2140020B114002060
:10437000A1140020B0140020D6140020C614002080
:10438000BC140020EC11002070140020301200201A
:10439000DC130020B4140020F0110020741200205F
:1043A000E0130020201400205813002034120020B5
:1043B000AC1100206C110020601400203413002088
:1043C000451300200F0000207E1400209C130020C5
:1043D0002DE9F0437E4F87B017F800900446B9F1FD
:1043E000000F40F0EF807B4DDFF834822B5C002B18
:1043F00000F08F80784E794A336852F8202093423B
:10440000C0F08780012100F0B5FC754B05F80490E1
:104410007449012568461D7002F0E3FF694603A850
:1044200003F023F8214603A803F003F96E4903F0D3
:10443000EEF801466D4802F0E7FE03A802F08FFF98
:10444000684602F08CFF694802F0A0FD684B53F803
:10445000242052B33368674908F80450664D41F888
:10446000243068461344654945F8243002F0B9FF0A
:10447000694603A802F0F9FF214603A803F0D9F822
:104480005F4903F0C4F855F8241003F0E6F801463C
:10449000564802F0B9FE03A802F061FF684602F038
:1044A0005EFF524802F072FD33E0564B564E53F811
:1044B00024205649013A43F82420337868460133D2
:1044C000337002F08EFF694603A802F0CEFF317808
:1044D00003A803F0AEF80146444802F095FE03A895
:1044E00002F03DFF684602F03AFF404802F04EFD00
:1044F00033780C2B07D13D48454902F08FFE454BE0
:104500001D70454B1D700020012308F804003B5529
:104510005BE018F80400002856D02F4B1A68364B81
:1045200053F824309A4250D3364B374D53F8242059
:104530000126013A43F824202B7834493344684655
:104540002B703E5502F04DFF694603A802F08DFF27
:10455000297803A803F06DF80146244802F054FEC0
:1045600003A802F0FCFE684602F0F9FE1F4802F0C4
:104570000DFD2B780C2B07D11C48254902F04EFE6F
:10458000244B1E70244B1E700123164968463B5570
:1045900002F027FF694603A802F067FF214603A83F
:1045A00003F047F81D4903F032F801460F4802F0C6
:1045B0002BFE03A802F0D3FE684602F0D0FE0B48A3
:1045C00002F0E4FC002000E0012007B0BDE8F08329
:1045D0004513002060140020A4140020581300206C
:1045E000B014002076CB00087ACB0008101500200C
:1045F000E0130020AC1100206C11002096CB0008C5
:1046000059C200083412002030120020A9CB000843
:10461000B9CB0008B2140020C6140020CFCB00088C
:10462000341300202DE9F043874E87B001F098FF46
:104630003378022B00F0BA8000242546834BEFB27A
:10464000E95C002940F0A4804FF0010805F80380E0
:104650007F4B04EB0309E358002B55D07D4BE35807
:10466000002B51D0384600F085FB7B4B7B4A05F888
:1046700003807B4B7B4983F800807B4BDFF83C82D7
:104680001B686846A350D9F80020134444F808304A
:1046900002F0A7FE694603A802F0E7FE394603A828
:1046A00002F0C7FF714902F0B2FF0146704802F004
:1046B000ABFD03A802F053FE684602F050FE6D49C0
:1046C000684602F08EFE694603A802F0CEFE394627
:1046D00003A802F0AEFF684902F099FF54F80810F1
:1046E00002F0BBFF0146624802F08EFD03A802F013
:1046F00036FE684602F033FE5D4802F047FC5F4B31
:10470000E358002B4CD09CE05649684602F069FE05
:10471000694603A802F0A9FE394603A802F089FF02
:10472000574902F074FF0146514802F06DFD03A89D
:1047300002F015FE684602F012FE524B0127EF54BC
:10474000337851493B446846337002F04AFE69466B
:1047500003A802F08AFE317803A802F06AFF01463E
:10476000434802F051FD03A802F0F9FD684602F04B
:10477000F6FD3F4802F00AFC33780C2B10D1434B76
:104780003B4843491F7002F049FD424B1F7007E050
:10479000012F14BF00203846FFF71AFE002850D121
:1047A0000135022D04F104044BD047E7FFF738F937
:1047B000364B394C1A7862B100221A70374B3848A0
:1047C0001A70FFF707F82A48364902F027FD01233F
:1047D00023702378002B34D0304C2378002B30D03A
:1047E0003149234802F01AFD3049214802F016FDF4
:1047F000294A1848002313702370224A134C164983
:104800000568237013700B7005B1337063705370BB
:104810004B7043680BB100233370337814484BB9A5
:10482000234902F0FBFC2149114802F0F7FCFFF795
:10483000D9F806E01F4902F0F1FC0D481E4902F0CC
:10484000EDFC07B0BDE8F083301200200F0000201F
:104850009C1300203412002060140020201400203B
:10486000B014002076CB0008A4140020E5CB00088B
:1048700010150020FBCB000859C20008E0130020EF
:104880000CCC000845130020A9CB0008B21400206E
:10489000B9CB0008C6140020BC140020A1140020CD
:1048A000A01400201CCC000835CC00084ECC000819
:1048B0005BCC000871CC00088DCC00085813002098
:1048C00008B501F04DFE0B48FCF7CEFB00210A486D
:1048D0000A4600F0CDF800F089F8FFF7ADF8FFF7D1
:1048E0001DF9FFF79FFEFFF75FFCBDE80840FFF7EB
:1048F000DBBB00BF55130020D71400200148002166
:10490000FDF7C0B8711400201FB5304801A9FDF7AC
:104910001BFB2F4CC0B92F492F4802F07FFC2F48BA
:1049200000F094FD2E48FCF79FFB40F6B83002F0F3
:10493000E3FF01F015FE23780133DBB2322B237045
:10494000E3D901F041FEE0E7002323701F48FDF7A3
:10495000B6FBC0B92349204802F060FC1F4800F0B4
:1049600007FD1F48FCF780FB40F6B83002F0C4FF9B
:1049700001F0F6FD23780133DBB2322B2370E5D949
:1049800001F022FEE2E7002323701048FDF718FC37
:10499000C0B91549104802F041FC104800F056FD1E
:1049A0000F48FCF761FB40F6B83002F0A5FF01F0BC
:1049B000D7FD23780133DBB2322B2370E5D901F028
:1049C00003FEE2E70023237004B010BD741400203E
:1049D000D4140020A2CC00081015002009150020D6
:1049E00055130020F0CC000848CD000808B50A4B4C
:1049F0001A787AB100221A70FFF70CF8FFF77EFFE1
:104A0000FFF782FFFEF7E0FFBDE8084003480449D6
:104A100002F004BC08BD00BFD51400201015002012
:104A20009ECD000813B5104C4FF0FF3300934FF4A8
:104A30001652002320460D49FEF77AFC204601213C
:104A4000FEF772FC002120460A46FEF767F8204672
:104A500001210022FEF762F8204600217F2202B0E9
:104A6000BDE81040FEF74BB8D814002028150020F0
:104A700010B50D4C2046FEF77FFD20460021FEF7C5
:104A800085F880F00101C9B21E2002F009FF20461E
:104A90000121FEF77BF8BDE8104080F00101C9B2AA
:104AA0001F2002F0FDBE00BFD814002010B5002169
:104AB00001220E48FEF73CF8012104460A460B4845
:104AC000FEF736F858B154B100210A460848FFF7FE
:104AD000CFFF0849084802F0A1FB012010BD07499B
:104AE000054802F09BFB002010BD00BFD814002039
:104AF000D7140020D6CD0008101500200DCE0008D8
:104B000030B562488BB00C46614902F087FB022247
:104B1000214601A802F0CCFC5E4904A802F061FC29
:104B200004A907A802F0A1FC01A907A802F062FDF0
:104B30000146564802F068FB07A802F010FC04A8E2
:104B400002F00DFC039C082C3DD10124234604A84F
:104B500001A9002202F0F4FD0A22002107A802F0B8
:104B6000B8FC07A904A802F0B0FD021C18BF01227E
:104B700000214948FDF7DCFF054607A802F0EFFBDE
:104B800004A802F0ECFB0223224604A801A902F0CB
:104B9000D7FD0A22002107A802F09BFC07A904A860
:104BA00002F093FD021C18BF012221463A48FDF78E
:104BB000BFFF044607A802F0D2FB04A802F0CFFB17
:104BC000002C57D04CE0072C24D100210A46324853
:104BD000FDF7AEFF012301A90022044604A802F05C
:104BE000AFFD0A22002107A802F073FC07A904A860
:104BF00002F06BFD021C18BF012201212648FDF7BF
:104C000097FF054607A802F0AAFB04A802F0A7FB3D
:104C100085B315E0062C07D0052C05D0042C03D055
:104C2000032C01D0022C0DD100210A461A48FDF7B1
:104C30007FFF0121044600221748FDF779FFC8B124
:104C4000601C0EE0012C19D100210A461248FDF724
:104C50006FFF2146054600220F48FDF769FF48B166
:104C6000681CC0B2022805D108480C4902F0D6FAE7
:104C7000012404E005480A4902F0D0FA002401A802
:104C800002F06DFB20460BB030BD00BF10150020B8
:104C900044CE000868CE0008D814002075CE000865
:104CA00099CE000830B5164C8BB00D4620461549FC
:104CB00002F0B4FA0222294601A802F0F9FB04A886
:104CC000114902F08EFB04A907A802F0CEFB01A94E
:104CD00007A802F08FFC0146204602F095FA07A8CB
:104CE00002F03DFB04A802F03AFB0849204602F01E
:104CF00095FA01A802F033FB01200BB030BD00BFD4
:104D000010150020BDCE0008E2CE0008EFCE00084E
:104D100037B500240546134800940194FDF74EFC76
:104D20002346C25C0DF803200133082BF9D1284635
:104D30009DF80010FFF7E4FE80B128469DF80110B1
:104D4000FFF7B0FF044648B100210A460648FFF7C6
:104D50008FFE0649064802F061FA00E00024204672
:104D600003B030BD7E140020D714002014CF0008FB
:104D70001015002038B50D46044610B101280DD09D
:104D800016E01E2002F08CFD0C480DB121460DE00E
:104D900029460122BDE83840FDF7CABE1F2002F0B7
:104DA0007FFD064821460DB10022F3E70A46F1E7F0
:104DB00003480449BDE8384002F030BAD814002056
:104DC000101500208CCF00080148FEF7A7BA00BFDD
:104DD000D8140020002330B5054618468B420FDA60
:104DE000EA5C5040082210F0010F4FEA60041ABF3D
:104DF00084F0E000C0B2E0B2013AF4D10133EDE753
:104E000030BD08B51E20002102F0F2FC1F20002159
:104E100002F0EEFC1E20012102F042FDBDE8084038
:104E20001F20012102F03CBD08B51648FDF765FBC7
:104E3000B0B91549154802F0F1F901F091FB11489C
:104E4000FDF764FC1248FFF731FE40B911490F48E5
:104E500002F0E4F94FF47A7002F04EFDF2E708BD7B
:104E60000A480D4902F0DAF90948FFF751FF40B945
:104E70000A49064802F0D2F94FF47A7002F03CFD7C
:104E8000F2E708BD7E140020A1CF00081015002015
:104E9000D7140020E0CF000823D0000865D0000818
:104EA0007047704708B51620002102F0A1FC1720BA
:104EB000002102F09DFC1620012102F0F1FCBDE86A
:104EC00008401720012102F0EBBC1720002102F05E
:104ED0008FBC1720042102F08BBC08B5FFF7F5FF4B
:104EE0001720012102F0DCFC0121162002F0D8FC81
:104EF000052002F00FFD0021172002F0D1FC062052
:104F000002F008FDBDE808401620002102F0C8BCF0
:104F100008B5FFF7DAFF1620002102F0C1FC1720C8
:104F2000002102F0BDFC0121162002F0B9FC062090
:104F300002F0F0FC1720012102F0B2FCBDE80840AD
:104F4000062002F0E7BC10B500210446162002F04E
:104F5000A7FC2046FFF7B9FF0021172002F0A0FCB4
:104F6000022002F0D7FC0121162002F099FC052056
:104F700002F0D0FCBDE810401620002102F090BCE9
:104F800010B500210446162002F08AFC2046FFF7E7
:104F90009CFF0121172002F083FC022002F0BAFCE2
:104FA0000121162002F07CFC052002F0B3FCBDE8D4
:104FB00010401620002102F073BC70B50646FFF7C2
:104FC00088FF0121172002F06BFC012002F0A2FCF7
:104FD0001620012102F064FC012002F09BFCFB255D
:104FE000172002F047FC044640B1013D15F0FF05D3
:104FF000F6D13046FFF78CFF012070BD1620214608
:1050000002F04EFC204670BD38B50C46FFF75DFF40
:105010001620002102F044FC082524F07F0303F051
:10502000FF01172003B1012102F03AFC01211620F3
:1050300002F036FC022002F06DFC1620002102F086
:105040002FFC013D0220640002F064FC15F0FF0516
:10505000E4B2E2D138BDF8B505460F46FFF739FF97
:10506000082600240021162002F01AFC022002F07B
:1050700051FC1620012102F013FC64001720E4B259
:1050800002F0F8FB08B10134E4B20120013E02F065
:1050900041FC16F0FF06E5D1284617B9FFF770FF6F
:1050A00001E0FFF750FF2046F8BD0A22B1FBF2F302
:1050B00002FB131202EB0310C0B2704701F00F03A2
:1050C000090901EB810103EB4100C0B27047000008
:1050D000074A30B5136815462C6819188C42044AE3
:1050E00004D81168994238BF1368F5E730BD00BF96
:1050F000F015002037B50C460C480DF10701FCF700
:10510000B6FE9DF807304FF47A705843084902F014
:10511000E8FB9DF80730054664205843054902F036
:10512000E0FB2844206003B030BD00BF74140020B1
:1051300060E31600400D030000B5224989B0224803
:1051400002F06CF801F00CFA01F00AFA1F4B1A7821
:105150000AB15B785BB91E491B4802F05FF8002377
:1051600000931C48194901221B4BFCF709FB02A8BC
:105170001A4902F036F902A905A802F076F9184B8F
:1051800005A8197802F055FA01460F4802F03CF8DC
:1051900005A802F0E4F802A802F0E1F82221114883
:1051A000FDF782F923210F48FDF77EF924210D48F0
:1051B000FDF778F925210B48FDF774F909B05DF882
:1051C00004FB00BFA5D00008101500200615002024
:1051D000E0D0000871140020F9D0000803D10008C5
:1051E0000A1500207314002070B50E4615460024E1
:1051F000E3B2AB42074809D2315D102202F09BF8BE
:105200000448054901F0EFFF0134F1E7BDE87040C3
:1052100001F0EEBF10150020ABD6000830B595B0F8
:1052200040220546002104A803F0EEFA002314A949
:1052300041F8503D28466946FFF75CFF009802F0B0
:1052400069FB01F08DF9FE238DF81030E0238DF815
:10525000113011238DF8123024238DF81330C02320
:105260008DF8143003238DF815303B4B1B7803B1B8
:1052700055233A488DF81630FCF79FFF01AC8DF8A6
:10528000170021463548FCF7F3FE002304AA1A4410
:10529000E15C0133052B1172F8D130482146FCF74F
:1052A0008EFD002304AA1A44E15C0133092B5173DB
:1052B000F8D10024012305A824218DF826308DF88B
:1052C00027408DF828408DF829408DF82A408DF828
:1052D0002B408DF82C408DF82D408DF82E408DF808
:1052E0002F408DF830408DF831408DF832408DF8E8
:1052F00033408DF834408DF835408DF836408DF8C8
:105300003740FFF767FD8DF83800E30704AB23440F
:1053100004F1010454BF0D220A22062C83F829202F
:10532000F3D10F490F4801F079FF04A928462F2235
:10533000FFF75AFF0C48FFF7B3FD0C4804A90368B8
:105340002F229B689847C82002F0D6FA0648FFF73C
:10535000A8FD15B030BD00BF9813002074140020C4
:1053600013D100081015002004150020401500205E
:1053700010B586B014220446002101A803F044FAB7
:10538000002306A941F8183D20466946FFF7B2FE02
:10539000009802F0BFFA01F0E3F8FE238DF8043024
:1053A000E0238DF8053012238DF8063005238DF8A3
:1053B0000730C0238DF8083003238DF809301D4BCA
:1053C0001B7803B155231C488DF80A30FCF7F5FE15
:1053D00001238DF80B00052102A88DF80C30FFF792
:1053E000F9FC00238DF80D00DA0701AA1A4403F135
:1053F000010354BF0D210A21062B9172F4D10F49EC
:105400000F4801F00BFF01A920461022FFF7ECFE28
:105410000C48FFF745FD0C4801A9036810229B6862
:105420009847C82002F068FA0648FFF73AFD06B030
:1054300010BD00BF98130020741400202FD1000865
:1054400010150020041500204015002010B586B06E
:1054500014220446002101A803F0D6F9002306A96E
:1054600041F8183D20466946FFF744FE009802F0D7
:1054700051FA01F075F8FE238DF80430E0238DF821
:10548000053013238DF8063005238DF80730C0232F
:105490008DF8083003238DF809301D4B1B7803B1BC
:1054A00055231C488DF80A30FCF787FE01238DF840
:1054B0000B00052102A88DF80C30FFF78BFC0023B0
:1054C0008DF80D00DA0701AA1A4403F1010354BF55
:1054D0000D210A21062B9172F4D10F490F4801F0DA
:1054E0009DFE01A920461022FFF77EFE0C48FFF723
:1054F000D7FC0C4801A9036810229B689847C82074
:1055000002F0FAF90648FFF7CCFC06B010BD00BF68
:1055100098130020741400202FD1000810150020CB
:1055200004150020401500202DE9F0418AB0054601
:10553000884617460021192203A803F065F90026C2
:105540000AA941F8206D28463D4CFFF7D3FD02988B
:1055500002F0E0F901F004F823780BB1637833B975
:105560000096384836490122374BFCF709F9FE23EB
:105570008DF80C30E0238DF80D3015238DF80E30AA
:105580000E238DF80F30C0238DF8103003238DF8D3
:1055900011302E4B1B7803B155232D488DF8123056
:1055A000FCF70BFE012321788DF8130029488DF8B4
:1055B00014308DF81580FFF781FD61788DF81600A5
:1055C0002448FFF77BFD00248DF817000E2104A866
:1055D0008DF818408DF819408DF81A408DF81B4051
:1055E0008DF81C408DF81D40FFF7F4FB8DF81E0070
:1055F000E30703AB234404F1010454BF0D220A2244
:10560000062CDA74F4D11449144801F007FE284638
:1056100003A91922FFF7E8FD0024E3B2BB420CD234
:1056200000F09EFF0E4803A9036819229B68984763
:10563000C82002F061F90134EFE70AB0BDE8F0815B
:105640000615002071140020F9D0000898130020DE
:10565000741400200515002055D1000810150020F5
:10566000401500202DE9F0478EB09046894619225A
:105670000021074607A81E46774D03F0C5F800F045
:105680006FFFFE238DF81C30E0238DF81D302B6852
:10569000002409338DF81F30C0238DF820306F4867
:1056A00003238DF821308DF81E408DF82240FCF741
:1056B00084FD01238DF824309DF8583029688DF839
:1056C00025309DF85C308DF828808DF823008DF80A
:1056D00026308DF82790A84604F10D05E3B2EDB20F
:1056E0000DF138098B4204F10104A94404DA5C4A43
:1056F000D35C09F81C3CEFE7093108A8FFF76AFB07
:10570000AB1C09F81C0CDBB200215C1E11F0010F70
:105710000EAAE4B201F10101144403F101030CBF2C
:105720000D220A22062904F81C2CDBB2EDD1073524
:105730004C49EDB200244C48C8F8004001F06EFD21
:10574000384607A92A46FFF74FFDE3B2B3420CD211
:1057500000F006FF454807A903682A469B6898475A
:10576000C82002F0C9F80134EFE7414E41483768DC
:10577000D6F800A0FDF732F84FF47A7404FB00F875
:105780003C48FCF7B5FF3C4904FB00F901A801F0D7
:1057900028FE01A904A801F068FEB8FBF4F104A8F2
:1057A00001F065FF354901F032FF01462E4801F056
:1057B0002BFD04A801F0D3FD01A801F0D0FD304974
:1057C00001A801F00EFE01A904A801F04EFEB9FBEC
:1057D000F4F104A801F04BFF2A4901F018FF01463B
:1057E000214801F011FD04A801F0B9FD01A801F064
:1057F000B6FD254C237863BB24491B4801F00EFD00
:105800004FF4FA7002F078F82148FBF72DFCFEF710
:1058100009FFFEF7C9FC00F0A3FE3368DB1B43451C
:105820000FD3134B1B4910481F6801F0F7FC1A49AE
:105830000D4801F0F3FC0D4807A903682A469B6850
:1058400098473368CAEB03034B4524BF01232370F9
:10585000CFE70EB0BDE8F087941400207414002048
:105860007F1400206DD10008101500204015002085
:10587000F01500207E140020A6D10008C2D1000837
:10588000B6D10008C1D100080C000020DDD100080D
:1058900055130020EBD10008F9D100082DE9F043A1
:1058A00089B00C4607460021164601A819229946E0
:1058B000DDF8488002F0A8FF00F052FEFE238DF8CC
:1058C0000430E0238DF8053002238DF806309DF872
:1058D000403008F103028DF809308DF807208DF86B
:1058E00008908DF80A400023DC1D591CDBB2E4B29D
:1058F00008AD4345254405DA1198C35C05F81C3C06
:105900000B46F1E702A81146FFF764FA05F81C0CF4
:10591000A51CEDB20023691E13F0010F08AAC9B23D
:1059200003F10103114405F101050CBF0D220A2208
:10593000062B01F81C2CEDB2EDD10734E5B20E496F
:105940000E4801F06BFC384601A92A46FFF74CFCD3
:105950000024E3B2B3420CD200F002FE084801A9D1
:1059600003682A469B689847C82001F0C5FF0134A8
:10597000EFE709B0BDE8F08335D20008101500202C
:105980004015002070B59EB006460D461446002115
:10599000732201A802F038FF00F0E2FDFE238DF82B
:1059A0000430E0238DF8053003238DF806308DF8A0
:1059B00009303A4B68221B788DF80720C0228DF8F9
:1059C000082003B1552336488DF80A30FCF7F5FB63
:1059D000237A8DF80B008DF80C30637A8DF80D303A
:1059E0000023E11801AA1A44897A0133202B91720D
:1059F000F7D10023E11801AA1A4491F82A100133C3
:105A00001E2B82F82A10F5D194F848308DF84C30CE
:105A100094F849308DF84D3094F84A308DF84E3076
:105A200094F84B308DF84F300023E11801AA1A4446
:105A300091F84C100133202B82F84C10F5D102A8BC
:105A40006821FFF7C7F900238DF87000DA0701AA73
:105A50001A4403F1010354BF0D210A21062B82F8D9
:105A60006D10F3D10F49104801F0D8FB304601A961
:105A70007322FFF7B9FB0024E3B2AB420CD200F073
:105A80006FFD0A4801A9036873229B689847C820E4
:105A900001F032FF0134EFE71EB070BD9813002013
:105AA0007414002066D20008101500204015002054
:105AB0002DE9F0436C4993B006466C481C461546E8
:105AC00001F0ACFB00212F2206A802F09DFE00F0A1
:105AD00047FD00F045FDFE238DF81830E0238DF8DA
