:020000040800F2
:1000000000500020B564000871670008756700089B
:10001000796700087D67000881670008D1670008DC
:10002000D1670008D1670008D1670008D1670008D0
:10003000D1670008D1670008D1670008CD6B0008C0
:10004000D1670008D1670008D167000891630008F4
:10005000D1670008D1670008D1670008D1670008A0
:10006000D1670008D1670008D1670008D167000890
:10007000D1670008D1670008D1670008D167000880
:10008000D1670008D167000829680008D167000817
:10009000D1670008D1670008D1670008D167000860
:1000A000F56D0008196E00083D6E0008756E0008B9
:1000B000C96E0008396F0008A96F0008D1670008F1
:1000C000D1670008D1670008D1670008D167000830
:1000D000D16700081571000869710008BD7100083A
:1000E000D1670008D9630008D167000810B5054C36
:1000F000237833B9044B13B10448AFF300800123D4
:10010000237010BD50110020000000003CA000082A
:1001100008B5064B1BB106480649AFF300800648F8
:10012000036813B1054B03B1984708BD00000000F8
:100130003CA00008541100205011002000000000D5
:10014000012902D11C30C0B27047062984BF01F1D9
:10015000FF31C9B211F0010F14BF1E201F207047DC
:10016000444B2DE9F047B1FBF3F603FB16113C239A
:10017000B1FBF3F203FB1212054602704FF461600B
:10018000B1FBF0F200FB1211B1FBF3F36B704FF413
:10019000FA63AA70B6B2EB80EC884FF4C873B4FB74
:1001A000F3F803FB18481FFA88F8B8F1000F16D0CF
:1001B0006423B4FBF3F203FB12439BB2002B53D036
:1001C00014F0030140F26D130CBF4FF4B7721A46DE
:1001D00096420EDB002908BF4FF4B77304E0B6F572
:1001E000B77F06DB4FF4B773F61A0134B6B2EC8072
:1001F000D2E700236B716423B4FBF3F703FB1747CB
:10020000BFB2B8F1000F06D03FB114F0030F14BF16
:100210000020012002E0012000E0384695F805901A
:10022000C0B24946FFF78CFF864209F1010A15D397
:10023000B8F1000F06D03FB114F0030F14BF002037
:10024000012002E0012000E03846C0B24946FFF735
:1002500077FF301A86B285F805A0D2E701362E71F5
:1002600085F805A0BDE8F087B6F5B67FC1DD40F2A0
:100270006D13B9E780510100F8B5427887783C23C7
:1002800003FB072702780579467903FB0727013D21
:10029000013EEDB2F6B2044605714671013E731C93
:1002A000E38834D04FF4C872B3FBF2F102FB113291
:1002B00092B262B16422B3FBF2F002FB103080B262
:1002C00030B113F0030F14BF0020012000E0012023
:1002D000C0B2F1B2FFF734FF284485B2DEE74FF435
:1002E000C872B3FBF2F102FB113292B2AAB16422DE
:1002F000B3FBF2F102FB113292B28AB113F0030F99
:1003000040F26D1208BF4FF4B7721544ADB2013B15
:100310009BB2B3F5FA6FE2D205E04FF4B772F4E79F
:1003200040F26D12F1E7024800FB0570F8BD00BF16
:100330008051010004F0DABF38B50D46044604F0E0
:10034000F0FF290A49006039204601F0FE0105F05E
:100350007FF8204605F055F8E9B2204605F078F818
:10036000204605F04EF8204604F0DBFF2046A12190
:1003700005F06EF8204605F044F80021204605F00F
:100380008EF80546204605F01FF8204604F0E4FFED
:10039000284638BD70B50D461646044604F0C1FF28
:1003A000290A49006039204601F0FE0105F050F8A5
:1003B000204605F026F8E9B2204605F049F8204627
:1003C00005F01FF83146204605F042F8204605F0BA
:1003D00018F8204604F0C0FFBDE870400A2007F07E
:1003E0002BBC000008B5164A5178937843EA0123E4
:1003F000A3F52043142B1AD8DFE803F00B200D0FD0
:10040000191919191919191919191919191113156E
:100410001700002008BD022008BD072008BD0320EA
:1004200008BD042008BD052008BD062008BD002128
:100430008022034808F066FB082008BD012008BDA3
:10044000B412002010B5074C6018114604F0E6FE07
:10045000054B1B781C4414F8073C1B1A58425841A2
:1004600010BD00BFB412002044130020084B1879BF
:100470005B7943EA002045F25553984205D04CF28F
:100480000303C31A5842584170470120704700BF08
:10049000B4120020044B9B79552B044B0CBF012256
:1004A00000221A70704700BFB41200209813002079
:1004B00010B5084CE379552B01D1012010BD064839
:1004C00001F015FFE3798342F7D0D0F1010038BF86
:1004D000002010BDB41200207414002013B50D4B81
:1004E0001C7A552C01D1012012E00B48694601F01D
:1004F00059FE00231A461DF803108C42F3D019B997
:100500000132D2B2052AEED00133052BF3D10020FF
:1005100002B010BDB41200207414002070B505465E
:100520001E46FFF78FFF044640B91C4AD3781A4491
:100530001379D62B02D01A481A492BE02846FFF728
:1005400095FF044678B12846FFF7A4FF2846FFF739
:10055000AFFF044670B96EB11349114807F01AF89D
:100560000F48124916E012490D4807F013F80C48DD
:1005700010490FE02846FFF7B1FF044660B99DF827
:1005800010300BB9012407E00B49054807F002F8C9
:1005900003480A4906F0FEFF204670BDB412002051
:1005A000201500202CB2000850B2000887B20008C5
:1005B000D0B10008FEB10008BEB20008F6B20008D3
:1005C000204B13B51B78002B39D000230093042156
:1005D00017220123FFF7A2FF40B31B491B4806F077
:1005E000D9FF1A4806F08EFE194B1C7A012C1AD13D
:1005F000184A1948D97C147001F0E2FE48B1174836
:100600000F21224605F05CF91548214601F0D4FA85
:100610000CE012481021022205F052F911490B4852
:1006200006F0B8FF02E00D4804F0C4FF0E4B084886
:100630001A78002102B0BDE8104008F063BA02B099
:1006400010BD00BF0E0000202AB3000820150020B6
:10065000B41200200C000020721400201915002094
:10066000711400204AB30008441300201B4B13B53B
:100670001B78002B30D00023009304210A22012391
:10068000FFF74CFFF8B11649164806F083FF1548EE
:1006900006F038FE144B0124144815491C7001F073
:1006A00033FD38B113490F4806F074FF1248032197
:1006B000022206E011490B4806F06CFF0E480421A7
:1006C000224605F0FDF80E4B0E481A78002102B0C4
:1006D000BDE8104008F016BA02B010BD0E000020B0
:1006E0008EB30008201500200C0000207414002098
:1006F000BC120020A6B3000819150020E8B30008BA
:1007000044130020B412002037B5274C0023E278B0
:1007100000930421FFF702FF50B32449244806F058
:1007200039FF234806F0EEFD224B0125224804F153
:100730000A011D7001F05DFB68B31F4804F10A0156
:1007400001F097FB38B31D49194806F023FF1A48FA
:10075000E17901F093FDA0B11949154806F01AFF9F
:10076000184805212A4605F0ABF8134801F062FC51
:10077000154B0D481A78002103B0BDE8304008F051
:10078000C1B912490A4806F005FF0E4806212A465B
:1007900005F096F8ECE70E49054806F0FBFE09481F
:1007A00006210122F4E700BFB41200202AB4000899
:1007B000201500200C00002074140020D0B4000884
:1007C00045B4000819150020441300208BB400081C
:1007D000FDB4000870B52E4B88B01B78002B54D0A8
:1007E0002C4C0025E278009504210123FFF796FEAA
:1007F000002841D02849294806F0CCFE274806F0B9
:1008000081FD274B254827491D7006F0C3FEA67AB7
:10081000E37A03EB0626042E06D820482249052653
:1008200006F0B8FEA572E672204902A806F095FF10
:1008300002A905A806F0D5FF314605A807F0B8F8CB
:100840000146164806F09CFE05A806F044FF02A8E3
:1008500006F041FF1648A17AE27A02F095F818B93D
:100860000E48144906F096FE627B237B00921248E4
:100870000021012205F05AFB104B06481A7800218E
:1008800008B0BDE8704008F03DB908B070BD00BFC9
:100890000E000020B412002038B5000820150020FA
:1008A0000C00002054B500088DB50008B3B5000851
:1008B0007E140020C3B50008191500204413002041
:1008C0002DE9F041894B90B01B78002B00F00B8193
:1008D000874C0025E278009504210123FFF71EFED6
:1008E000002800F0F7808349834806F053FE8248D1
:1008F00006F008FD814B627A1D70814B81491A70A8
:10090000A27A814B7C481A7006F044FE237BE67A7B
:100910000BAD7E4908A803EB062606F01EFF08A9CA
:10092000284606F05EFF3146284607F041F80146AA
:10093000714806F025FE284606F0CDFE08A806F010
:10094000CAFE7348E17A227B01F098FF0646002830
:100950004CD17049684806F01DFE6F4B01223046AD
:10096000FF211A7007F05DF9FF210746304607F0B6
:1009700058F96A49064605A806F0EFFE05A928467B
:1009800006F02FFF1022F9B208A806F04DFF08A9C3
:10099000284606F0DAFF0146574806F0F1FD08A8A0
:1009A00006F099FE284606F096FE05A806F093FE8E
:1009B0005B4905A806F0D1FE05A9284606F011FFFF
:1009C0001022F1B208A806F02FFF08A9284606F069
:1009D000BCFF0146484806F0D3FD08A806F07BFEA0
:1009E000284606F078FE05A806F075FE2846002188
:1009F000142208F087F8E678093E142E01D8002367
:100A000005E03D48474906F0C5FD022207E0B34234
:100A100004D2E218527BEA540133F8E703223E4B3A
:100A2000FF2100201A7007F0FCF8FF21804600200B
:100A300007F0F7F83949074602A806F08EFE02A92A
:100A400008A806F0CEFE10225FFA88F105A806F08D
:100A5000EBFE05A908A806F078FF0146264806F037
:100A60008FFD05A806F037FE08A806F034FE02A8A0
:100A700006F031FE2A4902A806F06FFE02A908A876
:100A800006F0AFFE1022F9B205A806F0CDFE05A9CA
:100A900008A806F05AFF0146174806F071FD05A8A0
:100AA00006F019FE08A806F016FE02A806F013FECE
:100AB0001D482946324604F0B5F9637A227B00933B
:100AC000A37AE17A01931948012304F097FF184BA8
:100AD00001221A70174B06481A78002110B0BDE8A1
:100AE000F04108F00FB810B0BDE8F0810E00002012
:100AF000B412002004B60008201500200C000020CD
:100B0000561300202EB600085713002084B60008A4
:100B10007E14002094B600081A150020D5B60008EF
:100B2000E1B60008EDB60008D71400201915002022
:100B3000B014002044130020F0B53C4B89B01B7862
:100B4000002B70D03A4E00230093F2780421012349
:100B5000FFF7E4FC374C002863D03749374806F0EC
:100B600019FD364806F0CEFB354B1A780AB15B7892
:100B70005BB93449314806F00DFD0023009332483B
:100B80002F490122314B00F095FE314B727A1B78D0
:100B9000274D9A4245D12F4BAA7A1B789A4240D1D1
:100BA00001232D492548237006F0F4FC2B7BEF7AB6
:100BB00005AC2A4902A803EB072706F0CEFD02A9DF
:100BC000204606F00EFE3946204606F0F1FE0146AC
:100BD0001A4806F0D5FC204606F07DFD02A806F076
:100BE0007AFDB32F07D815481D4906F0D3FC002322
:100BF000EB72B4232B731B48F17A327B01F07AFE3F
:100C000018B90E48184906F0C5FC0023F218527BAB
:100C1000E2540133072BF9D11448214602F05AFD62
:100C200001E00023237009B0F0BD00BF0E000020DA
:100C3000B41200200C0000203EB700082015002050
:100C4000161500206AB700087114002083B7000849
:100C500056130020571300208DB70008EBB700088B
:100C6000FEB700087E14002054B80008A01400202D
:100C70002DE9F04F6D4B89B01B78002B00F0D2802E
:100C80006B4E0024F278009404210123FFF746FC08
:100C9000002800F0BE806749674806F07BFC664884
:100CA00006F030FB654B01221A7005F0A1FE02F040
:100CB000D9FE032005F04CFB614B62491C70624B6E
:100CC0000C701C70614B62491C70624B0C701C7084
:100CD000614B62491C70624B0C701C706149624B25
:100CE000624A1C700C60624B624914601C700C708C
:100CF000254692469B46604A0023A3505F4A604FB8
:100D0000A350604ADFF8B481A3505F4ADFF8B09186
:100D1000A3505E4AE351A3505D4AE8B2A3505D4A36
:100D20000121AB545C4A44F80830AB545B4A44F8A8
:100D30000930AB545A4A0434AB54013504F03EFA3E
:100D4000022DD8D10123574896F8481096F849202B
:100D50008BF8003001F054FE10B13748524901E0E1
:100D60003548524906F016FC4E4801F085FE5049C0
:100D7000CAF8000002A806F0F0FC02A905A806F0D7
:100D800030FDDAF8001005A806F012FE01462A48E8
:100D900006F0F6FB05A806F09EFC02A806F09BFCF8
:100DA00005F026FE0022224B1046114606EBD00429
:100DB00094F84A400C41E40714D59D7ADC7A04EBA0
:100DC0000524BC5093F82A5093F82B4004EB0524DB
:100DD00048F8024093F84C5093F84D4004EB05243A
:100DE00049F802400131C9B2082900F1010008BFE9
:100DF00000210C2803F1020302F10402D6D10E48AF
:100E000006F080FA2B480121094A04F0FFFE02F0A7
:100E10000BFE294B06481A78002109B0BDE8F04FB7
:100E200007F070BE09B0BDE8F08F00BF0E000020D3
:100E3000B412002098B80008201500200C000020F3
:100E4000B2140020C6140020A1140020D6140020E3
:100E5000EC110020BC14002070140020301200207F
:100E6000B3140020B8140020B1140020DC130020BB
:100E7000B0140020B4140020F011002074120020DF
:100E80009C1300202014002058130020AC110020D7
:100E90006C11002060140020341300204513002042
:100EA0000F0000207E140020C5B8000809B9000812
:100EB000E8C900081915002044130020E0130020A1
:100EC000341200202DE9F041754B98B01B78002BAF
:100ED00000F0E380734D0024EA780094042101239C
:100EE000FFF71CFB002800F0C3806F496F4806F035
:100EF00051FB6E4806F006FA6D4B01266D4895F8D9
:100F0000221095F823201E7001F050FC20B96A4988
:100F1000664806F03FFB00E0264600246749634828
:100F20000FAF06F037FB22233846214610220494E7
:100F300005948DF8103007F0E5FD33238DF83C3033
:100F40002346EA18927A04A95A540133082BF8D19F
:100F50000023EA18927CFA540133102BF9D155483A
:100F600001F082FB002800F08C805248394601F0E5
:100F7000D9FB002800F0858051494C4806F00AFB57
:100F80004C4801F040FB4F4804F072F9EC784748B8
:100F9000203CE4B24C4906F0FDFA0A2C13D8002399
:100FA000A34206AF05D2EA1892F82420FA5401337E
:100FB000F6E745493D4806F0EDFA444839460368EE
:100FC00022469B68984705F013FD4FF47A7006F0AF
:100FD00033FE00243D4806F0B1F900280DF14C081D
:100FE0000DDD3A4806F056F908F8040001340B2CE0
:100FF000F0D12E48364906F0CDFA012421E004B3A1
:10100000344909A806F0A9FB09A90CA806F0E9FBD8
:1010100021460CA806F0CCFC0146244806F0B0FAA4
:101020000CA806F058FB09A806F055FB002718F895
:1010300007101E481022013706F042FBA742F6D1E6
:101040000CE01A48244906F0A5FA34B117482349A0
:1010500006F0A0FA0024042600E003266A7A2B7A20
:101060008DE8040102941E483146012204F05AFD25
:101070001C4B0C481A78002118B0BDE8F04107F06D
:1010800041BD1949094806F085FA0A4801F0D8FA25
:101090000C4804F0EDF8022678E718B0BDE8F081BE
:1010A0000E000020B412002050B9000820150020C6
:1010B0000C0000207E1400207AB90008B5B90008A1
:1010C00088BA000814150020B6C600085015002084
:1010D000EDB9000802BA000815BA00084DBA0008B8
:1010E0001915002044130020C5BA000810B50446A5
:1010F000FFF778F9082834D8DFE800F01F24290525
:101100000A0F142E19002046BDE81040FFF758BA08
:101110002046BDE81040FFF7A9BA2046BDE81040C0
:10112000FFF7F2BA2046BDE81040FFF753BB0D4869
:101130000D49BDE8104006F02DBA2046BDE810402C
:10114000FFF7BEBB2046BDE81040FFF7F5BC2046C8
:10115000BDE81040FFF7B6BE2046BDE81040FFF7DF
:1011600087BD10BD2015002002BB00082DE9F04707
:10117000584E00278146377005F03AFC3C463D4604
:10118000554806F0DBF8002840F3A08005F030FC5D
:1011900096F800A050480AF10103337006F07AF87F
:1011A000DFF8508108F80A00032006F045FD337887
:1011B0001022434413F8011C484806F078FA4748C7
:1011C000474906F0CCF996F90030002B13DA05F008
:1011D0000FFC404B43494FF0000A404883F800A001
:1011E00006F0D8F94FF47A7006F026FD40465146D5
:1011F000802207F087FC327808EB020313F8013CE9
:10120000FE2B04D1571EFFB2002C34D104E094BB56
:101210000D2B01D12FE00124062DB1D132492F48E9
:1012200006F0B8F92D4806F06DF805F0E1FB2B4803
:101230002E4906F0AFF9294806F064F837B92C4B6F
:101240001B7893B14846FFF751FF0EE03178002339
:10125000C91BDAB2F8188A42C0B203F10103EEDA10
:1012600018F8000008F80200F3E700233370BDE827
:10127000F04705F0BDBB052DCDD8DFE805F003072D
:101280000A0D10130D2B12D0002479E70A2B0BD175
:1012900010E00D2B08D110E00A2B05D110E00D2B2A
:1012A00002D110E00A2BB9D00024254668E70125B9
:1012B0002C4665E70124022562E7012403255FE748
:1012C000012404255CE70124052559E70023337038
:1012D000BDE8F087441300205015002020150020A1
:1012E00099C9000820BB000842BB000866BB000883
:1012F0000D000020B412002008B50520002106F0E2
:1013000017FC0520012106F06BFC1F20002106F0D0
:101310000FFC1E20002106F00BFC1E20012106F010
:101320005FFCBDE808401F20002106F059BC00000A
:10133000014806F061B800BF5015002008B561B142
:1013400000211E2006F04CFC962006F075FCBDE83E
:1013500008401E20012106F043BC08BD08B500214D
:10136000052006F03DFC0C4806F049F8022000215B
:1013700006F0DEFB0320002106F0DAFB022000214C
:1013800006F02EFC0320002106F02AFCBDE80840F0
:101390001E20002106F024BC5015002010B50B784B
:1013A000452B12D14B78522B0FD18B78CC78303B18
:1013B00003EB8303303C04EB4304E4B221460A22EE
:1013C000034806F07DF9204610BD0A2010BD00BF7D
:1013D000201500200B784F2B07D148784B2804D1DB
:1013E00013704B7801205370704700207047000045
:1013F000F0B593B00F466846684916461C4606F09D
:10140000ACF9664903A806F0A8F906A8634906F0F6
:10141000A4F90025B5420DD2795D0A220FA806F085
:1014200003FA0FA9684606F04BFA0FA806F053F925
:101430000135EFE75A490CA806F08FF90CA9684668
:1014400006F01BFB0022034669460FA806F018FBB6
:101450000FA903A806F0CFF90FA806F03CF90CA8D5
:1014600006F039F94E490CA806F077F90CA9684640
:1014700006F003FB029B021D69460FA806F000FB65
:101480000FA906A806F0B7F90FA806F024F90CA8D2
:1014900006F021F9059B022B05D103A806F03BFBC2
:1014A0003038C5B210E0042B30D103A806F033FB6E
:1014B000642290FBF2F302FB1302303B303A03EB61
:1014C000830302EB4305EDB2364909A806F045F95E
:1014D00009A90FA806F085F9102229460CA806F0E4
:1014E000A3F90CA90FA806F030FA2F4906F03AFA32
:1014F00001462E4806F044F80CA806F0ECF80FA8B8
:1015000006F0E9F809A806F0E6F82570089B022B1A
:1015100005D106A806F0FFFA3038C5B210E0042B5A
:1015200030D106A806F0F7FA642290FBF2F302FB32
:101530001302303B303A03EB830302EB4305EDB279
:101540001B4909A806F009F909A90FA806F049F9ED
:10155000102229460CA806F067F90CA90FA806F07E
:10156000F4F9114906F0FEF90146104806F008F8B2
:101570000CA806F0B0F80FA806F0ADF809A806F020
:10158000AAF8657006A806F0A6F803A806F0A3F866
:10159000684606F0A0F813B0F0BD00BF98BE000882
:1015A00091BB000896BB00089DBB000820150020D9
:1015B000A3BB0008F8B54C78432C08D18C78532C89
:1015C00005D1CC78B4F151056C426C4100E00024A7
:1015D0000026F5B24F5D01363A2FFAD10135EDB252
:1015E00000279542FEB207F1010706D811F805C0A1
:1015F000013501F806C0EDB2F3E73CB92046C2B2AE
:10160000B2420BD20A5C1A540130F8E7069A02245F
:1016100012681470721ED2B2FFF7EAFE0120F8BD04
:1016200037B5154809B9154900E0154905F097FF88
:10163000642006F001FB00240F4805F07FFE00281F
:10164000E5B208DD062C14D00B4805F023FE0DF89A
:1016500004000134F0E755B19DF802304F2B08D15A
:101660009DF80300B0F14B035842584102E0284670
:1016700000E0002003B030BD50150020ABBB0008D7
:10168000AFBB000810B501210446052006F0A8FAFA
:1016900007484FF4165105F0AFFE20460121FFF731
:1016A0004DFE20460121BDE81040FFF7B9BF00BF45
:1016B000501500202DE9F0419EB005AD0C460746BF
:1016C0000021904628466422039307F01BFA214626
:1016D0002C4805F044FF642006F0AEFA00242948A7
:1016E00005F02CFE0028E6B207DD642C45D0254825
:1016F00005F0D0FD28550134F1E726B922492348E9
:1017000005F048FF39E09DF814300D2B35D19DF8D8
:1017100015300A2B31D11EAB334413F8653C0A2B2C
:101720002BD1023E1EAB334413F8643C0D2B24D165
:101730000021CCB2A31CDBB2B34201F1010107DAF4
:101740001EAA134413F8643C144404F8643CF0E704
:1017500038462946FFF722FE0A280CD103AB009336
:101760003846294622464346FFF724FF00280CBF8F
:101770000320022002E0012000E003201EB0BDE8AB
:10178000F08100BF50150020B5BB000820150020D7
:101790002DE9F041B2B006460D4690460021642284
:1017A00068461F4607F0AEF919A80021642207F029
:1017B000A9F90024E3B2E85C013420B132AA134451
:1017C00003F8640CF6E70146CAB25D1818F8024047
:1017D000EDB232AA01312A4414B102F8644CF3E7A5
:1017E0000D2302F8643C6B1C32A8DBB203442F4883
:1017F0000A2203F8642C036819A95B6898472C48EF
:10180000AA1C036819A99B68D2B29847642006F005
:1018100013FA274805F092FD0028E5B208DD642C94
:101820003FD0234805F036FD0DF804000134F0E701
:10183000002D36D09DF800300D2B32D19DF80130AF
:101840000A2B2ED132AB2B4413F8C93C0A2B28D1DA
:10185000023D32AB2B4413F8C83C0D2B21D10021A3
:101860008B1CDBB2AB4201F1010209DA32A803445E
:1018700013F8C83CC9B2014401F8C83C1146EFE76F
:1018800030466946FFF78AFD0A2808D13046694686
:101890003A46FFF79FFD80F00100C0B202E0012050
:1018A00000E0032032B0BDE8F08100BF2015002029
:1018B00050150020F7B51E46044617460D46002178
:1018C0008DF80710FFF7ACFE05F092F82046314680
:1018D0002FB12A460DF10703FFF7ECFE03E0089A4B
:1018E0002B46FFF755FF03282AD8DFE800F0110444
:1018F0000207002311E01648164901E01448164972
:1019000005F048FE20460121FFF78AFE00201CE07A
:1019100012490F4805F03EFE12E09DF807205E1CBC
:10192000DBB29A420A4809D9E95C102205F0BFFEF1
:1019300007480B4905F013FE3346EEE705F014FEA9
:1019400020460121FFF76CFE012003B0F0BD00BF6F
:1019500020150020C9BB0008DABB0008E3BB000863
:1019600099C900082DE9F0438BB004AF80460021EF
:101970000922384602AE002407F0C4F8009440461D
:10198000314601222C4BFFF795FF054610B92B4835
:101990002B494BE02346F25C07AC092A01D83032D0
:1019A00004E0A2F10A01052998BF3732E25401335D
:1019B000082BF0D14FF0000922488DF8249000F058
:1019C000EFFD0246C0B120491C4805F0E3FD1D486B
:1019D000394600F053FD50B14B46E15CFA5C914250
:1019E00017D10133082BF8D1144818491EE01849C3
:1019F000124805F0CFFD07E0009440463146154BF4
:101A0000FFF758FF054698B121460E4800F086FDC5
:101A10000AE01149094805F0BDFD009740463146EE
:101A200000220C4BFFF746FF054601E005F0B2FD32
:101A300028460BB0BDE8F083F9BB00082015002054
:101A400004BC00087214002024BC0008ACBC0008D0
:101A500042BC000866BC00086FBC00082DE9F04FCE
:101A600089B002AF07F10C068346894690461C46B2
:101A7000304600210A2207F045F8002C50D1C7F863
:101A800004D05846CDF80080314601224B46FFF77E
:101A900011FF824608B1214606E04049404805F062
:101AA00079FD3F483F496FE0CCB218F8043001316E
:101AB000002BF9D1E11D01F4FC71ADEB010D02A980
:101AC000D8B2A04203D2F05CC8540133F8E70B4609
:101AD000581AC0B2A0420DD213F8010B092801D840
:101AE000303004E0A0F10A05052DF1D8373003F8B5
:101AF000010CEDE70025EBB2A34243D24B5D01356B
:101B000008EB050010F8010C9842F4D0264924484F
:101B100005F040FD2248254905F03CFD7B689D46C7
:101B20006C460023DAB219F8021001330A29F9D100
:101B3000931D03F4FC73ADEB030DA2F1020E02AB97
:101B40000020C1B2551EA94200F1010003DA19F8C4
:101B500001505D54F5E700223D215A55584603F8DF
:101B60000E10CDF800803146FFF7A4FE054628B9D7
:101B70000B480F4905F00EFDAA4601E04FF0010A9F
:101B8000A54605E006480B4905F004FD7B689D4627
:101B900050461C37BD46BDE8F08F00BFD6BC0008DC
:101BA00020150020FCBC000820BD000877BD0008FF
:101BB000B9BD0008EEBD00087FB50F2204460D46F2
:101BC0006846002106F09EFF6248634905F0E2FC8A
:101BD0000A2604F00DFF002D6CD12046FFF7C2FE4F
:101BE0005E498DF800005E4A2B462046FFF736FF1F
:101BF0005C498DF801005C4A2B462046FFF72EFF1A
:101C00005A498DF802005A4A2B462046FFF726FF14
:101C100058498DF80300584A2B462046FFF71EFF0F
:101C2000564A57492B468DF804002046FFF716FF09
:101C30008DF80500534800F003FCF1280CBF524A10
:101C4000494A52492B462046FFF708FF50498DF874
:101C50000600504A00232046FFF700FF4E498DF84A
:101C600007004C4A00232046FFF7F8FE4B498DF849
:101C70000800454A00232046FFF7F0FE48498DF84A
:101C80000900484A00232046FFF7E8FE46498DF840
:101C90000A00464A00232046FFF7E0FE324A8DF84C
:101CA0000B00434920460023FFF7D8FE0D228DF894
:101CB0000C000EE0334800F0C3FBF1280CBF324AA1
:101CC000294A204631490023FFF7C8FE01228DF83A
:101CD000000000231DF80310A9B936491D4805F07E
:101CE00059FC2046FFF7CEFC2046FFF737FB04F0F7
:101CF0007FFE2046FFF7C6FC4FF4FA6005F09CFF1C
:101D000004F076FE05E00133D9B29142E2D304B08B
:101D100070BD294805F012FB002803DD264805F0B8
:101D2000B9FAF6E7013E16F0FF067FF452AF2349F9
:101D3000084805F02FFC2249064805F02BFC40F628
:101D4000B83005F079FF04F053FE04B0BDE87040F0
:101D500004F082BE2015002016BE000845BE000813
:101D600051BE00085ABE000857BE000864BE0008F5
:101D700070BE000879BE000885BE000899BE000844
:101D80008EBE000872140020A6BE00089CBE00088B
:101D9000A9BE0008B3BE0008B6BE0008C0BE000859
:101DA000CABE0008D3BE0008D6BE0008E0BE0008C8
:101DB000E3BE0008EDBE0008501500200ABF000871
:101DC00036BF00081520012105F00ABF15200021AB
:101DD00005F006BF10B500210446152005F0A8FE49
:101DE0001520012105F0FCFE2046BDE81040FEF75D
:101DF000A1BA7FB505460E46FFF7E8FF0D2433195B
:101E00002146284613F80D2C0134FEF7C3FA162C90
:101E1000F5D13046092103F001FA0646214628464D
:101E20003246FEF7B7FA0D2421462846FEF784FA1B
:101E300001AB23440134162C03F80D0CF4D101A896
:101E4000092103F0EBF9B04203D0FFF7BBFF0020FC
:101E50000DE028460B21FEF76FFA552804D02846DE
:101E60000B215522FEF796FAFFF7ACFF012004B0D4
:101E700070BD7FB505460E46FFF7A8FF172433193E
:101E80002146284613F8172C0134FEF783FA202C3C
:101E9000F5D13046092103F0C1F90646214628460E
:101EA0003246FEF777FA172421462846FEF744FA11
:101EB00001AB23440134202C03F8170CF4D101A802
:101EC000092103F0ABF9B04203D0FFF77BFF0020FC
:101ED0000DE028460C21FEF72FFA552804D028469D
:101EE0000C215522FEF756FAFFF76CFF012004B0D3
:101EF00070BDF0B585B001AD06460F4628460021FD
:101F0000092206F0FFFD0D2421463046FEF714FAA3
:101F10002B190134162C03F80D0CF5D1214630464F
:101F2000FEF70AFA09210446284603F077F98442AD
:101F300006D10023EA5CFA540133092BFAD101E0FF
:101F4000002000E0012005B0F0BDF0B585B001AD86
:101F500006460F4628460021092206F0D3FD172425
:101F600021463046FEF7E8F92B190134202C03F8FE
:101F7000170CF5D121463046FEF7DEF9092104465B
:101F8000284603F04BF9844206D10023EA5CFA5458
:101F90000133092BFAD101E0002000E0012005B057
:101FA000F0BD37B50C461E210546FEF7C5F91F21C9
:101FB0008DF804002846FEF7BFF902218DF80500D0
:101FC00001A803F02BF9207003B030BD10B50B2130
:101FD0000446FEF7B1F988B1FFF7F8FE204600226B
:101FE0000B21FEF7D7F9FFF7EDFE20460B21FEF798
:101FF000A3F9D0F1010038BF002010BD012010BDB1
:1020000010B50C210446FEF797F988B1FFF7DEFE04
:10201000204600220C21FEF7BDF9FFF7D3FE204633
:102020000C21FEF789F9D0F1010038BF002010BD66
:10203000012010BD10B521210446FEF77DF9552879
:1020400011D0FFF7C3FE204655222121FEF7A2F949
:10205000FFF7B8FE20462121FEF76EF9B0F15503D7
:102060005842584110BD012010BD08B52121FEF78E
:1020700063F9B0F155035842584108BD70B50446A4
:102080000D46FFF736FF20B120462946FFF75DFFDA
:1020900048BB20462946FFF72CFF48B11549164892
:1020A00005F078FA20462946BDE87040FFF7E1BE0A
:1020B00020462946FFF749FF06460F4846B10F491B
:1020C00005F068FA20462946BDE87040FFF791BE4A
:1020D0000B4905F05FFA2046FFF778FF2046FFF72F
:1020E0008FFF304670BD0749034805F053FA0120C1
:1020F00070BD00BF5FBF00082015002096BF00081C
:10210000CDBF0008E1BF0008F8B504460E462F25F4
:1021100073192046294613F82F7CFEF70DF98742E4
:1021200003D10135342DF3D136E0FFF74FFE2F25D3
:1021300073192946204613F82F2C0135FEF72AF98A
:10214000342DF5D10521304603F068F807462946BD
:1021500020463A46FEF71EF92F2520462946FEF76F
:10216000EBF8731913F82F3C834217D10135342D46
:10217000F3D120462946FEF7DFF8B8420ED12046BB
:102180003521FEF7D9F8552804D0204635215522AF
:10219000FEF700F9FFF716FE0120F8BDFFF712FE6B
:1021A0000020F8BDF7B505460E462F2421462846E7
:1021B000FEF7C2F800AB23440134342C03F82F0C93
:1021C000F4D10521684603F029F821460746284640
:1021D000FEF7B2F8874207D100231DF80320F2541E
:1021E0000133052BF9D101E0002000E0012003B00C
:1021F000F0BD73B505462F2421462846FEF79CF80E
:1022000000AB23440134342C03F82F0CF4D168467E
:10221000052103F003F8214606462846FEF78CF810
:10222000331A5842584102B070BD38B50546FFF721
:10223000CDFD2F2428462146FEF77EF868B12846BA
:1022400021460022FEF7A6F828462146FEF774F83C
:1022500018B1FFF7B7FD002038BD0134342CE9D1A7
:1022600028463521FEF768F820B12846352100229E
:10227000FEF790F8FFF7A6FD012038BD37B50D46F3
:102280008DF8071036210446FEF756F885422BD00C
:1022900002ADFFF79BFD15F8012D20463621FEF714
:1022A00079F80121284602F0B9FF3721024620467D
:1022B000FEF770F820463621FEF73EF89DF807300D
:1022C00083420DD120463821FEF736F8552804D038
:1022D000204638215522FEF75DF8FFF773FD03E035
:1022E000FFF770FD002000E0012003B030BD362173
:1022F000FEF722B837B536210546FEF71DF802ABCA
:1023000003F8010D1846012102F088FF3721044629
:102310002846FEF711F8231A5842584103B030BD41
:1023200010B536210446FEF707F888B1FFF74EFDD9
:10233000204636210022FEF72DF820463621FDF7F3
:10234000FBFF18B1FFF73EFD002010BDFFF73AFD7F
:10235000012010BD10B548210446FDF7EDFF5528BA
:1023600011D0FFF733FD204655224821FEF712F821
:10237000FFF728FD20464821FDF7DEFFB0F15503A9
:102380005842584110BD012010BD10B54D210446E2
:10239000FDF7D2FF552810D0FFF718FD2046552233
:1023A0004D21FDF7F7FFFFF70DFD20460021FDF75A
:1023B000C3FF003018BF012010BD012010BD000078
:1023C00037B58DF807101031C9B20129044629D854
:1023D0004C21FDF7B1FF9DF80730834228D002ADB4
:1023E000FFF7F4FC15F8012D20464C21FDF7D2FF34
:1023F0000121284602F012FF4E2102462046FDF739
:10240000C9FF20464C21FDF797FF9DF80730834216
:1024100005D12046FFF7B9FFFFF7D4FC08E0FFF72E
:10242000D1FC03E00448054905F0B4F8002000E0C1
:10243000012003B030BD00BF2015002011C00008EE
:1024400037B54C210446FDF777FF02AB03F8010DC9
:102450001846012102F0E2FE4E2105462046FDF716
:102460006BFF854202D19DF8070004E02046F02171
:10247000FFF7A6FFF02003B030BD0000F7B505461A
:102480000E464F2421462846FDF756FF00AB234455
:102490000134572C03F84F0CF4D10821684602F0A0
:1024A000BDFE214607462846FDF746FF87420CD170
:1024B00000231DF80320F2540133082BF9D10448FE
:1024C000044905F067F8012000E0002003B0F0BDEA
:1024D0002015002047C0000810B558210446FDF71C
:1024E0002BFF552808D0FFF771FC204658215522B4
:1024F000FDF750FFFFF766FC10BD10B558210446EC
:10250000FDF71AFF40B1FFF761FC20465821002279
:10251000FDF740FFFFF756FC10BD0000F7B50F4672
:102520000546FFF753FC3846082102F077FE4F249A
:1025300006463B192146284613F84F2C0134FDF777
:1025400029FF572CF5D1214628463246FDF722FFB8
:102550004F2421462846FDF7EFFE00AB234401340B
:10256000572C03F84F0CF4D16846082102F056FEB0
:10257000864206D02846FFF7C0FFFFF723FC002065
:1025800007E00549054805F005F82846FFF7A4FFD0
:10259000012003B0F0BD00BF5CC000082015002082
:1025A00008B55821FDF7C8FEB0F15503584258410F
:1025B00008BD70B504460E461546FFF707FC2046D9
:1025C00032462221FDF7E6FE204623212A46FDF76A
:1025D000E1FEFFF7F7FB70BDFDF7AEBEFDF7ACBE49
:1025E00070B504460E461546FFF7F0FB204632460E
:1025F0002421FDF7CFFE204625212A46FDF7CAFEFD
:10260000FFF7E0FB70BD10B50446FFF7DFFB204687
:1026100055225921FDF7BEFEFFF7D4FB2046592174
:10262000FDF78AFEB0F155035842584110BD08B578
:102630005921FDF781FEB0F155035842584108BDBC
:1026400010B50446FFF7C2FB204600225921FDF7D2
:10265000A1FEFFF7B7FB20465921FDF76DFED0F133
:10266000010038BF002010BD73B5002305460E469B
:1026700000930193FFF7AAFB5A24331921462846F9
:1026800013F85A2C0134FDF785FE622CF5D1304643
:10269000082102F0C3FD0646214628463246FDF7D2
:1026A00079FE5A2421462846FDF746FE00AB234416
:1026B0000134622C03F85A0CF4D10821684602F068
:1026C000ADFD0446FFF77EFBB442064804D106493F
:1026D00004F060FF012003E0044904F05BFF0020E8
:1026E00002B070BD2015002071C000089FC0000816
:1026F00038B509490546094804F04CFF5A242146DB
:102700002846FDF719FE064B1A190134622C02F80F
:102710005A0CF4D1184638BDD0C00008201500204E
:102720007514002073B5002305460E4600930193EF
:10273000FFF74CFB632433192146284613F8632C1A
:102740000134FDF727FE6B2CF5D13046082102F04D
:1027500065FD0646732128463246FDF71BFE6324BD
:1027600021462846FDF7E8FD00AB234401346B2CDD
:1027700003F8630CF4D10821684602F04FFD0446CB
:10278000FFF720FBB442064804D1064904F002FFDB
:10279000012003E0044904F0FDFE002002B070BDFA
:1027A0002015002008C1000836C1000870B50E468B
:1027B000742104461546FDF7BFFDB04205D1204601
:1027C0007521FDF7B9FDA84219D0FFF7FFFA2046A1
:1027D00074213246FDF7DEFD204675212A46FDF7BD
:1027E000D9FDFFF7EFFA20467421FDF7A5FDB042B1
:1027F0000BD120467521FDF79FFDA84205D1064962
:10280000064804F0C7FE012070BD0549034804F0E6
:10281000C1FE002070BD00BFAEC100082015002021
:10282000D0C1000810B50446FFF7D0FA2046742145
:102830000022FDF7AFFD204675210022FDF7AAFD1D
:10284000FFF7C0FA20467421FDF776FD20B9204637
:102850007521FDF771FD28B10549064804F09AFE7F
:10286000002010BD0449034804F094FE012010BD6F
:10287000F2C100082015002015C2000870B50E46F0
:10288000762104461546FDF757FDB04205D1204696
:102890007721FDF751FDA84219D0FFF797FA20469E
:1028A00076213246FDF776FD204677212A46FDF750
:1028B00071FDFFF787FA20467621FDF73DFDB04216
:1028C0000BD120467721FDF737FDA84205D10649F7
:1028D000064804F05FFE012070BD0549034804F07E
:1028E00059FE002070BD00BF38C20008201500202E
:1028F00060C2000870B50E467A2104461546FDF701
:102900001BFDB04205D120467B21FDF715FDA842F5
:1029100019D0FFF75BFA20467A213246FDF73AFDDF
:1029200020467B212A46FDF735FDFFF74BFA20466E
:102930007A21FDF701FDB0420BD120467B21FDF746
:10294000FBFCA84205D10649064804F023FE0120FD
:1029500070BD0549034804F01DFE002070BD00BF96
:10296000E2C200082015002014C3000838B57A21FF
:102970000546FDF7E1FC7B2104462846FDF7DCFC1B
:1029800000EB042038BD000070B50E4678210446E7
:102990001546FDF7D1FCB04205D120467921FDF75F
:1029A000CBFCA84219D0FFF711FA20467821324615
:1029B000FDF7F0FC204679212A46FDF7EBFCFFF7F6
:1029C00001FA20467821FDF7B7FCB0420BD1204632
:1029D0007921FDF7B1FCA84205D10649064804F06B
:1029E000D9FD012070BD0549034804F0D3FD002046
:1029F00070BD00BFA9C3000820150020D5C3000882
:102A000070B50E467C2104461546FDF795FCB04294
:102A100005D120467D21FDF78FFCA84219D0FFF794
:102A2000D5F920467C213246FDF7B4FC20467D21B5
:102A30002A46FDF7AFFCFFF7C5F920467C21FDF7DC
:102A40007BFCB0420BD120467D21FDF775FCA842EE
:102A500005D10649064804F09DFD012070BD0549D9
:102A6000034804F097FD002070BD00BF5BC4000860
:102A7000201500208BC4000838B57C210546FDF7E1
:102A80005BFC7D2104462846FDF756FC00EB042044
:102A900038BD00007FB533490546334804F07AFD60
:102AA00003F0A6FF40F6B83005F0C6F803F0A0FF2B
:102AB00040F6B83005F0C0F803F09AFF2A4804F059
:102AC0003DFC00280ADD284804F0E4FBC1B2274899
:102AD00004F0FBFE022005F0AFF8EFE7234CA668F8
:102AE000002E34D0204605F00AF821461E4804F096
:102AF00047FD1F4901A804F030FE01A9204604F05B
:102B000077FF064601A804F0E6FD1748EEB1194923
:102B100004F040FD1849204604F075FE28462121A6
:102B2000FDF70AFC40B1FFF751F9284621210022A8
:102B3000FDF730FCFFF746F928462121FDF7FCFBA5
:102B4000D0F1010038BF00200AE00C4901E006483E
:102B50000B4904F01FFD2046074904F054FE30469F
:102B600004B070BD1DC5000820150020C814002049
:102B70006EC5000872C5000898BE0008A8C5000808
:102B8000D3C500080022026042607047006820B18F
:102B900003688B4201D08068F9E7704770B504463E
:102BA0000C2016460D4605F09BFC00228260226830
:102BB00080E860000AB9206001E0626890606060AF
:102BC00070BD10B51446FFF7E1FF08B14460012065
:102BD00010BD08B5FFF7DAFF00B1406808BD01F588
:102BE0001C414131FFF7DABF01F51C414131FFF7CC
:102BF000E8BF01F51C414131FFF7EBBF002A01F1AD
:102C0000010114BF4FF47F420022FFF7C7BF002A23
:102C100001F51C5101F1110114BF4FF47F42002254
:102C2000FFF7BCBF01F5EA413131FFF7B7BF002A1A
:102C300001F1010114BF4FF47F420022FFF7C1BF31
:102C400008B50131FFF7C5FFB0F57F435842584141
:102C500008BD01F51C5108B51131FFF7BAFFB0F5F9
:102C60007F435842584108BD01F5EA413131FFF731
:102C7000B0BF000070B504460D4609480949164624
:102C800004F088FCA06805F033FC0220207305F0F6
:102C900027FC803D0323A06005704670637370BD00
:102CA00020150020F6C50008F8B5531E7C2B0446FD
:102CB0000F46164602D903210A4617E001F51C41CA
:102CC0004131FFF763FF18B92046032102220DE0CE
:102CD000A06805F00DFC701C4000C0B2207305F028
:102CE000FFFBA06030B9204603210422BDE8F84074
:102CF000FFF7C0BF03230370237B0025023B437013
:102D0000E9192046FFF775FFA3680135020A03F8A9
:102D10001520A368B54203EB45035870F0D1032397
:102D20006373F8BD70B504460E461546FFF75CFFA9
:102D300018B920460621022208E020463146FFF756
:102D400058FFA84206D0204606210422BDE8704064
:102D5000FFF790BF0223637370BD2DE9F8431F4650
:102D600016467A1E7A2A044688469DF8203002D8F4
:102D7000B3EB470F03D02046102103221CE006F5D9
:102D80001C45413505EB070920462946FFF7FEFEA5
:102D900018B92046102102220EE001354D45F3D12D
:102DA000A06805F0A5FB0520207305F099FBA06045
:102DB00030B9204610210422BDE8F843FFF75ABF7E
:102DC00010230370330A4370002307718670C370A9
:102DD00008F106053744BE4205F102050BD015F88F
:102DE000022C15F8013C3146204643EA0222FFF747
:102DF000FBFE0136EFE703236373BDE8F8832DE99B
:102E0000F843531EB3F5FA6F04460F46154602D336
:102E10000121032219E00131FFF7B8FE18B920465D
:102E20000121022211E0A06805F062FBC5F3C7038F
:102E30006A070CBF023303332373207B05F050FB7A
:102E4000A06030B9204601210422BDE8F843FFF715
:102E500011BF01230370237B05EB0708023B43707E
:102E60003E46002546451CD031462046FFF7E8FE89
:102E7000C7F10109B1444FEAD909012109F102035F
:102E8000A268A94010B1D05C014302E0D05C20EA06
:102E900001010135EDB2082DD15408BF00250136DE
:102EA000E0E703236373BDE8F88300002DE9F843EE
:102EB000531EB3F5FA6F04460F46154602D302219E
:102EC00003221FE001F51C511131FFF75FFE18B915
:102ED00020460121022215E02249234804F05AFB32
:102EE000A06805F005FBC5F3C7036A070CBF0233F2
:102EF00003332373207B05F0F3FAA06030B920463A
:102F000002210422BDE8F843FFF7B4BE0223037098
:102F1000237B05EB0708023B43703E4600254645F0
:102F20001CD031462046FFF794FEC7F10109B14499
:102F30004FEAD909012109F10203A268A94010B1A1
:102F4000D05C014302E0D05C20EA01010135EDB222
:102F5000082DD15408BF00250136E0E70323637331
:102F6000BDE8F8831BC6000820150020F8B5531EE5
:102F70007C2B04460F46164602D90421032217E093
:102F800001F5EA413131FFF701FE18B92046012170
:102F900002220DE0A06805F0ABFA701C4000C0B240
:102FA000207305F09DFAA06030B9042120460A463E
:102FB000BDE8F840FFF75EBE04230370237B0025C5
:102FC000023B4370E9192046FFF74EFEA368013526
:102FD000020A03F81520A368B54203EB45035870B5
:102FE000F0D103236373F8BD70B5B2F57F4F86B09F
:102FF00004460E4603D012B10521032215E0151C2C
:1030000018BF0125204631462A46FFF710FE18B9A1
:1030100020460521022208E020463146FFF710FE37
:10302000A84205D0204605210422FFF723FE17E021
:103030000C49684604F091FB694603A804F0D1FBF3
:10304000094903A804F08EFC0146084804F098FAE8
:1030500003A804F040FB684604F03DFB02236373C1
:1030600006B070BD45C600085DC6000820150020EA
:103070002DE9F0438BB00446894604A86C49DF086B
:103080001D46164604F069FB04A907A804F0A9FB35
:10309000394607A804F08CFC0146664804F070FA33
:1030A00007A804F018FB04A804F015FB6B0705F152
:1030B000FF3318BF0137B3F5F66F03D29DF84830E0
:1030C000BB4207D05C495B4804F064FA20460F21FC
:1030D00003224DE0771C07EB050820463946FFF731
:1030E00055FD18B920460F21022241E0013747451E
:1030F000F3D15048514904F04DFA0627504901A830
:1031000004F02BFB01A904A804F06BFB394604A8CA
:1031100004F04EFC4B4904F025FC102219F807106E
:10312000804607A804F080FB07A9404604F00DFC88
:103130000146404804F024FA07A804F0CCFA04A899
:1031400004F0C9FA013701A804F0C5FA102FD5D14F
:103150003A49384804F01EFAA06805F0C9F905207C
:10316000207305F0BDF9A06028B920460F21042284
:10317000FFF780FD58E00F230370330A43702B0ADA
:103180008670C37005712D492A4804F003FA06279A
:103190002B4901A804F0E1FA01A904A804F021FBDD
:1031A000394604A804F004FC264904F0DBFB102295
:1031B00019F80710804607A804F036FB07A9404617
:1031C00004F0C3FB01461B4804F0DAF907A804F039
:1031D00082FA04A804F07FFA013701A804F07BFA10
:1031E000102FD5D11348154904F0D4F93544B04611
:1031F0000027C6EB080309EBD3039A7941463A410D
:103200000137FFB2204602F00102FFF710FD08F17E
:103210000108082F08BF0027A845EAD105480A4938
:1032200004F0B8F9032363730BB0BDE8F08300BF6B
:103230006FC600082015002081C6000804D10008D0
:10324000A2C60008A9C60008ADC600082DE9F041D5
:103250008B784F788CB0CE7843EA07270B7991F8BA
:1032600000800C460546544903A843EA062604F0AC
:1032700074FA03A909A804F0B4FA1022217806A868
:1032800004F0D2FA06A909A804F05FFB01464B48F6
:1032900004F076F906A804F01EFA09A804F01BFA57
:1032A00003A804F018FA464903A804F056FA03A943
:1032B00009A804F096FA1022394606A804F0D7FAB5
:1032C00006A909A804F041FB01463C4804F058F95E
:1032D00006A804F000FA09A804F0FDF903A804F018
:1032E000FAF9384903A804F038FA03A909A804F048
:1032F00078FA1022314606A804F0B9FA06A909A8FE
:1033000004F023FB01462D4804F03AF906A804F026
:10331000E2F909A804F0DFF903A804F0DCF908F1E8
:10332000FF330F2B3FD8DFE803F01D230E292F08B2
:103330003E3E3E3E3E3E3E3E3514284639463246EF
:10334000FFF7F0FC34E0284639463246FFF7ACFC84
:103350002EE063792846009321463A463346FFF72C
:10336000FCFC25E0284639463246FFF748FD1FE0C1
:10337000284639463246FFF799FD19E02846394676
:103380003246FFF7F3FD13E0284639463246FFF791
:103390002BFE0DE063792846009321463A463346DA
:1033A000FFF766FE04E0284641460122FFF762FC73
:1033B0000CB0BDE8F08100BFBCC60008201500209D
:1033C000C8C60008D2C6000810B50446FFF7DAFBED
:1033D000204610BD80F828100120704770B5049E6B
:1033E0000161C6610446154608461146DAB203F08B
:1033F000C7FF4FF4FA6004F01FFC002E08DBF6B2A2
:103400003046002104F094FB3046002104F0E8FB34
:10341000B5F5964F06DD40F2EE23236240F2D66307
:10342000636207E0044B93FBF5F32362034B93FBCA
:10343000F5F56562012070BDC0E1E400C00E160222
:1034400070B50446C06986B000280D4606DBC0B2E0
:10345000012104F0C5FB012004F0EEFB0023227BD8
:103460005E1CDBB29A421FD9194A1068411C1160D8
:10347000E95C184A1154D15C6846102204F0D4F972
:10348000694603A804F0ADF9134903A804F06AFAE9
:103490000146124804F056F803A804F01CF96846E7
:1034A00004F019F93346DAE70D490C4804F072F8D4
:1034B000206903689B699847606A04F0CBFBE06968
:1034C000002803DBC0B2002104F08AFB06B070BD07
:1034D000941400207F14002099C9000820150020B2
:1034E000DCC70008F0B5C9430B4EC9B2705C0B4D88
:1034F000C0436C5CC0B20021AC46CFB2BB4207D027
:10350000555C01314540705D60401CF80540F4E7B2
:1035100044EA0020F0BD00BFDCC600088CC80008EB
:103520002DE9F0410D78037BFF2D01EB03020446EA
:103530000E4612F8028C12F8017C03D090F8282075
:10354000AA4219D1A268033B204612F8011BDBB244
:10355000FFF7C8FF47EA0827874202D00A480B490D
:103560000CE02046711CFFF771FEFF2D4FF00100AB
:1035700007D16073BDE8F0810348054904F00AF8FB
:103580000020BDE8F08100BF2015002004C800081D
:1035900030C80008F8B50446C0690F46002806DBAD
:1035A000C0B2012104F01CFB012004F045FB194DC1
:1035B00019491A4803F0EEFF194E2B6894F82810A9
:1035C0005A1CF154237B2A600022D0B298420AD2BE
:1035D000286800F1010EC5F800E017F802E001329A
:1035E00006F800E0F1E7A2682046FFF77BFF2B68B2
:1035F000020AF2541E449A1C7070606A2A6004F039
:1036000029FBE069002803DBC0B2002104F0E8FADE
:10361000F8BD00BF9414002060C8000820150020E9
:103620007F140020D2B238B504460D460273002A3A
:103630003ED02049204803F0ADFF207B04F050FF2E
:103640000023A060227B591CDBB29A4204D9E85CBB
:10365000A268D0540B46F5E71748184903F09AFFC3
:103660000025237B9D4207D2A3681348595D102291
:1036700004F026F80135F4E710490F4803F08AFFFB
:103680002046A168FFF74CFF68B1637B032B04D190
:103690002046A168FFF77EFF05E0022B03D12046FC
:1036A000A168FFF7CDFEA06804F022FF002323737A
:1036B00038BD00BF80C8000820150020B3C6000830
:1036C00008B5032002F044FE014B01221A7008BD28
:1036D000A114002070B55E480D46097801F012FF74
:1036E000697806465A4801F00DFF06EB8606594CEC
:1036F00006EB860600EB8600E080A978544801F0CE
:1037000001FF6071E978524801F0FCFE20712979CF
:103710004F4801F0F7FE6979A0704D4801F0F2FEC4
:10372000A97960704A4801F0EDFE4B4920704B4882
:1037300003F015FFE1880A22484803F0A0FF48493A
:10374000464803F00CFF61790A22444803F0B8FFB1
:103750004449424803F003FF21790A223F4803F01D
:10376000AFFF41493D4803F0FAFEA1780A223B48E9
:1037700003F0A6FF3D49394803F0F1FE61780A22C3
:10378000364803F09DFF3A49344803F0E8FE0A2228
:103790002178324803F094FF03F0BAF8642004F073
:1037A0004BFA2046FCF768FD0146324802F0EEFC79
:1037B000642004F041FA03F0B1F82E4802F0E9FC6D
:1037C00001462046FCF7CCFCE1886423B1FBF3F111
:1037D000C9B21F4801F08DFE2870E2884FF47A7359
:1037E000B2FBF3F103FB11211948C9B201F081FECC
:1037F00068706179164801F07CFEA8702179144840
:1038000001F077FEA178E870114801F072FE61784E
:1038100028710F4801F06DFE217868710C4801F0A5
:1038200068FE0024A871295D10220C4803F03FFFB8
:1038300001340A48104903F092FE072CF3D10748DF
:1038400003F092FEBDE8704004480C4903F0A2BEAC
:1038500015150020981400208CC9000820150020A0
:1038600093C900089BC90008A1C90008A8C900089D
:10387000B2C90008A214002099C90008BCC90008F8
:1038800070B51B4886B0FCF7F7FC1A4C054603F0F0
:103890003FF80A2004F0D0F92946204602F076FCD1
:1038A000204602F076FC144D14492A6886186846B2
:1038B00003F053FF694603A803F093FF296803A8A8
:1038C00004F076F801460E4803F05AFE03A803F010
:1038D00002FF684603F0FFFE0A493246204602F026
:1038E0005AFC0A2004F0A8F903F018F806B070BDDD
:1038F00098140020A2140020DC130020DFC9000867
:1039000020150020C13600080148112102F035BC05
:10391000A2140020224B10B51A6886B001321A603A
:10392000204A11681446013111601968B1F5615FD0
:1039300004D300221A601C4B01221A701B48FFF7A7
:1039400015F888B11948FFF711F8B0F5E16F0BD8F9
:1039500016482468FFF70AF8844205D3114B002269
:103960001A60134B01221A70124C684623681249E0
:103970000133236003F0F1FE694603A803F031FF31
:10398000216803A804F014F801460C4803F0F8FD80
:1039900003A803F0A0FE684603F09DFE06B010BD2C
:1039A000A8140020AC140020D51400207E140020A0
:1039B00018150020A414002061CA0008201500205A
:1039C00010B5084C0849204603F05FFD2046012150
:1039D000064A03F079FD20460021BDE8104003F0BF
:1039E0004BBD00BFC015002040420F001539000834
:1039F00010B5054C204603F031FD20460021BDE8FE
:103A0000104003F039BD00BFB815002010B5054CBB
:103A1000204603F023FD20460021BDE8104003F0BE
:103A20002BBD00BFBC15002010B5064C204603F08E
:103A300015FD2046002103F01FFD034B00221A60F4
:103A400010BD00BFC0150020A4140020014803F0E1
:103A5000FDBC00BFB8150020014803F0F7BC00BF53
:103A6000BC15002008B5034803F0F0FC024B00220F
:103A70001A6008BDC0150020A414002070B5314D97
:103A80008CB02B78002B5AD000242F492F4803F0FC
:103A900081FD2C70FFF7DAFFFF21204604F0C1F80A
:103AA000FF21C5B2204604F0BCF82949C6B203A8DC
:103AB00003F053FE03A909A803F093FE1022294640
:103AC00006A803F0B1FE06A909A803F03EFF0146CF
:103AD0001E4803F055FD06A803F0FDFD09A803F0FC
:103AE000FAFD03A803F0F7FD1A4903A803F035FE19
:103AF00003A909A803F075FE1022314606A803F0B9
:103B000093FE06A909A803F020FF01460F4803F021
:103B100037FD06A803F0DFFD09A803F0DCFD03A8CC
:103B200003F0D9FD0C48214601222B46009602F0F5
:103B3000FDF9FFF75DFF0548084903F02BFD0CB0C8
:103B400070BD00BF1815002073CA000820150020A2
:103B5000D5B60008E1B60008191500208CCA000887
:103B600070B5444D8CB02B78002B59D04249434856
:103B700003F010FD0024424B0122FF2120461A7061
:103B80002C7004F04EF8FF21C5B2204604F049F82D
:103B90003C49C6B203A803F0E0FD03A909A803F05D
:103BA00020FE1022294606A803F03EFE06A909A819
:103BB00003F0CBFE0146314803F0E2FC06A803F017
:103BC0008AFD09A803F087FD03A803F084FD2E49B0
:103BD00003A803F0C2FD03A909A803F002FE102206
:103BE000314606A803F020FE06A909A803F0ADFEA1
:103BF0000146224803F0C4FC06A803F06CFD09A8A6
:103C000003F069FD03A803F066FD204821460096F5
:103C100002222B4602F08AF918481D4903F0BAFC2B
:103C20001C4D2B781BB31C49144803F0B3FC002433
:103C3000134BFF2120461C702C7003F0F2FFFF2174
:103C4000C5B2204603F0EDFFC6B221460F4801225F
:103C50002B46009602F070F80C482146009602228E
:103C60002B4602F063F905480C4903F093FC0CB0B5
:103C700070BD00BFB0140020CCCA00082015002081
:103C80000C000020D5B60008E1B600081915002088
:103C9000FECA0008C61400203DCB00086DCB00080A
:103CA00010B5064C0649204603F057FD204605494D
:103CB000054ABDE8104004F0E1B800BFC814002078
:103CC00098BE0008D77600080800002030B54A48A2
:103CD00085B0FEF7CAF9002846D1484B484918700C
:103CE0004548FEF786F828B143484549FEF7C1F834
:103CF000002877D14048FEF713FB20B13E48FEF77D
:103D000094FA002873D101238DF804303A48002337
:103D100001A98DF805308DF806308DF807308DF843
:103D20000830FEF7F1F918B13648374903F032FC94
:103D300031480121FEF7A2FA18B13248334903F0A5
:103D400029FC33492F4803F025FC32492D4803F064
:103D500021FC09E0304CA368EBB92F482C4903F053
:103D600052FD2E48FDF702FA2348FEF77EF900289F
:103D700033D102F03DFE234803F0E0FA0028E9DDEC
:103D8000204803F087FAC1B2234803F09EFD0220C9
:103D900003F052FFEFE7204603F0B1FE2146194839
:103DA00003F0EEFB1E4901A803F0D7FC204601A951
:103DB00003F01EFE054601A803F08DFC55B1144921
:103DC000204603F020FD0F48164903F0E3FB164898
:103DD00001F0F0FB02F00CFEBFE7084B01221A7065
:103DE00005B030BD1149074803F0D4FB82E7104904
:103DF000044803F0CFFB86E7741400200E00002077
:103E0000BD14002020150020A5CB0008E2CB00083F
:103E100098BE00081ECC0008C814002055130020CE
:103E200070C5000861CC000819150020A4CC00085A
:103E3000D8CC000830B5A5488FB001F006FAA448E8
:103E400000F042FEA34B06201A684FF4FA6122F0FC
:103E5000E06242F080621A6002F0BAFD9E484FF4C0
:103E6000165103F0C9FA4FF416519C48FDF760FA59
:103E700002F041FD9A48FDF7ADFF944801F0F8F9D2
:103E800002F0B6FD9548FDF737FA01219348FDF79A
:103E9000C7FB944D4FF4FA6003F0CEFE0024924825
:103EA0002C70FDF763F901232B7002F0A1FDF121C5
:103EB0008E48FEF785FA21468848FDF77DFE8B483F
:103EC000FEF748FA8A49844803F064FB89482221B6
:103ED000FEF784FB0128044606D186482321FEF71D
:103EE0007DFB112805461CD0112282480121FEF7D6
:103EF00060FB814902A803F030FC02A908A803F086
:103F000070FC1022012105A803F09FFC05A908A858
:103F100003F01BFD794903F025FD112104460BA890
:103F200016E0774902A803F018FC02A908A803F0DC
:103F300058FC2146102205A803F087FC05A908A813
:103F400003F003FD6D4903F00DFD294604460BA85F
:103F5000102203F07AFC20460BA903F0F6FC014680
:103F60005D4803F00DFB0BA803F0B5FB05A803F0BB
:103F7000B2FB08A803F0AFFB02A803F0ACFB5D485E
:103F80002421FEF729FB0128044616D15948252192
:103F9000FEF722FB054680B95A4908A803F0DDFB6D
:103FA00008A90BA803F01DFC21460BA803F0F6FCA2
:103FB000524903F0D7FC294614E000224D48012164
:103FC000FEF70EFB504908A803F0C7FB08A90BA891
:103FD00003F007FC01210BA803F0E0FC474903F0C4
:103FE000C1FC002103F0DAFC01463B4803F0C8FAAB
:103FF0000BA803F070FB08A803F06DFB4348FEF725
:1040000049FDFFF763FE41484149FEF737F8A0B983
:104010003749314803F0BEFA3E492F4803F0BAFA57
:104020003D4801F0DFFB3048FDF7A0F840F6B8301E
:1040300001F072FA02F0DCFCE5E73849264803F0AB
:10404000A9FA02F0D5FCFFF701FD3549224803F03B
:10405000A1FA2749204803F09DFAFFF7FDFC3149FA
:104060001D4803F097FA22491B4803F093FAFFF723
:10407000A7FCFFF7F7FC2C49174803F08BFA1C4903
:10408000154803F087FAFF21002003F0CAFDFF2145
:104090000446002003F0C5FDC0B20222E3B2009046
:1040A00001211D4801F0C4FE20490B4803F072FABB
:1040B0000F49094803F06EFA1D49074803F06AFAF0
:1040C0000B49054803F066FA0FB030BD1415002007
:1040D000D714002004000140201500207114002096
:1040E0007D1400200D0000205513002072140020C4
:1040F00098BE00087314002073CE00085AC0000850
:10410000BECE0008D4CE0008EACE00087414002009
:10411000BD1400201FCD00081915002053CD000844
:104120006CCD0008A9CD0008E0CD000818CE00082D
:104130002DCE000830B587B0344803F0FFF80028D2
:104140000ADD324803F0A6F8C1B2314803F0BDFBE6
:10415000022003F071FDEFE72D4CA368002B53D034
:10416000204603F0CCFC2146284803F009FA2949EF
:1041700003A803F0F2FA03A9204603F066FC054603
:1041800003A803F0A8FA2046002D36D0002104220F
:1041900003F09CFC204603F0BEFC1F4C024620604E
:1041A000C2F307211D48D2B2FEF72AFC10B117480E
:1041B0001B4901E015481B4903F0ECF91748FEF7CD
:1041C0005BFC19492060684603F0C7FA694603A8FA
:1041D00003F007FB216803A803F0EAFB01460B4844
:1041E00003F0CEF903A803F076FA684603F073FAF9
:1041F0000E49074803F007FB06E00C4903F003FBF8
:1042000002480B4903F0C6F907B030BD2015002065
:10421000C814002035CF0008DC1300207E140020D5
:104220003ACF000870CF0008FAC9000898BE00080D
:10423000A9CF00082DE9F047664B86B01A6898466A
:1042400012F0010F02D0644B01221A70634803F090
:1042500075F800280ADD614803F01CF8C1B2604817
:1042600003F033FB022003F0E7FCEFE75C4CA368AC
:10427000002B00F0AB80204603F041FC214657485C
:1042800003F07EF9574903A803F067FA204603A913
:1042900003F0AEFB054603A803F01DFA002D00F065
:1042A00093802046504903F0AEFAD8F800304F49C9
:1042B00001334A48C8F8003003F06CF94C496846AD
:1042C00003F04BFA694603A803F08BFAD8F8001004
:1042D00003A803F06DFB0146404803F051F903A821
:1042E00003F0F9F9684603F0F6F93F493B4803F05B
:1042F00051F9FFF7B7FB032002F02AF83D490023EC
:104300000B703D4A3D4913700B703D4A3D49137097
:104310000B703D4A3D4913700B703D4A3D49137087
:104320000B703D4A3D4913700B703D4A3D49136087
:104330000B701C461D4691463B4B0022E2503B4B06
:104340003B4FE2503B4BDFF814A1E2503A4B3B4E5F
:10435000E2503B4BE251E2503A4BE8B2E2503A4B6A
:104360000121EA54394B44F80A20EA54384BA2514F
:10437000EA54384B0434EA54013500F01FFF022D93
:10438000DAD1D8F8003013F0010313D03248FEF729
:1043900073FB14213C224FF6FF73C9F80000CAF8E2
:1043A00000103A603360CAF804107A607360FFF757
:1043B0003BFB09E0C9F80030CAF800303B603360CD
:1043C000CAF804307B60736002F012FB06B0BDE8EF
:1043D000F08700BFB81400200C000020201500203A
:1043E000C8140020D0CF000898BE0008D2CF000823
:1043F00015D00008B3140020B2140020B11400201E
:10440000A1140020B0140020D6140020C6140020EF
:10441000BC140020EC110020701400203012002089
:10442000DC130020B4140020F011002074120020CE
:10443000E013002020140020581300203412002024
:10444000AC1100206C1100206014002034130020F7
:10445000451300200F0000207E1400209C13002034
:104460002DE9F043814F87B017F800900446B9F169
:10447000000F40F0F7807E4DDFF840822B5C002B70
:1044800000F08F807B4E7C4A336852F820209342A4
:10449000C0F08780012100F091FE784B05F8049070
:1044A0007749012568461D7003F057F9694603A84E
:1044B00003F097F9214603A803F066FA714903F067
:1044C00051FA0146704803F05BF803A803F003F9C2
:1044D000684603F000F96C4802F014FF6B4B53F888
:1044E000242052B333686A4908F80450694D41F8F2
:1044F000243068461344684945F8243003F02DF908
:10450000694603A803F06DF9214603A803F03CFABD
:10451000624903F027FA55F8241003F049FA0146DE
:10452000594803F02DF803A803F0D5F8684603F0C6
:10453000D2F8554802F0E6FE33E0594B594E53F895
:1045400024205949013A43F824203378684601333E
:10455000337003F002F9694603A803F042F9317899
:1045600003A803F011FA0146474803F009F803A82D
:1045700003F0B1F8684603F0AEF8434802F0C2FE1B
:104580003378022B07D14048484903F003F8484BE1
:104590001D70484B1D700020012308F804003B5596
:1045A00061E018F80400002855D0324B1A68394BE6
:1045B00053F824309A4256D3394B3A4D53F82420BD
:1045C0000126013A43F824202B78374933446846C2
:1045D0002B703E5503F0C1F8694603A803F001F9BA
:1045E000297803A803F0D0F90146274802F0C8FF54
:1045F00003A803F070F8684603F06DF8224802F053
:1046000081FE2B78022B07D11F48284902F0C2FFF8
:10461000274B1E70274B1E700123684618493B55D7
:1046200003F09BF8694603A803F0DBF8214603A8D2
:1046300003F0AAF9204903F095F90146124802F067
:104640009FFF03A803F047F8684603F044F80E48BC
:1046500002F058FE06E00D4B53F82400003018BF5E
:10466000012000E0002007B0BDE8F08345130020E2
:1046700060140020A414002058130020B01400205F
:1046800023D0000827D0000820150020E0130020C8
:10469000AC1100206C11002043D00008C3C60008F4
:1046A000341200203012002056D0000866D00008D6
:1046B000B2140020C61400207CD00008341300205F
:1046C0002DE9F043884E87B002F092F93378022B3F
:1046D00000F0BC800024254602F08AF9834BEFB23B
:1046E000E95C002940F0A4804FF0010805F8038040
:1046F0007F4B04EB0309E358002B55D07D4BE35867
:10470000002B51D0384600F059FD7B4B7B4A05F811
:1047100003807B4B7B4983F800807B4BDFF83C8236
:104720001B686846A350D9F80020134444F80830A9
:1047300003F013F8694603A803F053F8394603A8B9
:1047400003F022F9714903F00DF90146704802F0B7
:1047500017FF03A802F0BFFF684602F0BCFF6D49D7
:10476000684602F0FAFF694603A803F03AF83946B2
:1047700003A803F009F9684903F0F4F854F80810A5
:1047800003F016F90146624802F0FAFE03A802F0AF
:10479000A2FF684602F09FFF5D4802F0B3FD5F4B49
:1047A000E358002B4CD09CE05649684602F0D5FFF8
:1047B000694603A803F015F8394603A803F0E4F8A6
:1047C000574903F0CFF80146514802F0D9FE03A83B
:1047D00002F081FF684602F07EFF524B0127EF5442
:1047E000337851493B446846337002F0B6FF69465E
:1047F00003A802F0F6FF317803A803F0C5F80146DC
:10480000434802F0BDFE03A802F065FF684602F0CF
:1048100062FF3F4802F076FD3378022B10D1434B04
:104820003B4843491F7002F0B5FE424B1F7007E042
:10483000012F14BF00203846FFF712FE002850D188
:104840000135022D04F104044BD045E7FFF70AF9C6
:10485000364B394C1A7862B100221A70374B3848FF
:104860001A70FFF70DF82A48364902F093FE01232B
:1048700023702378002B34D0304C2378002B30D099
:104880003149234802F086FE3049214802F082FE79
:10489000294A1848002313702370224A134C1649E2
:1048A0000568237013700B7005B13370637053701B
:1048B0004B7043680BB100233370337814484BB905
:1048C000234902F067FE2149114802F063FEFFF719
:1048D000ABF806E01F4902F05DFE0D481E4902F0EC
:1048E00059FE07B0BDE8F083301200200F00002011
:1048F0009C1300203412002060140020201400209B
:10490000B014002023D00008A414002092D0000886
:1049100020150020A8D00008C3C60008E01300201E
:10492000B9D000084513002056D00008B21400206A
:1049300066D00008C6140020BC140020A11400207A
:10494000A0140020C9D00008E2D00008FBD0000865
:1049500008D100081ED100083AD1000858130020E1
:1049600008B502F045F80C48FCF700FC00210B48A4
:104970000A4600F057FA00F08BF8FFF77FF8FFF7D0
:10498000EFF802F035F8FFF79BFEFFF753FCBDE8A8
:104990000840FFF7CFBB00BF55130020D7140020FD
:1049A00001480021FDF708B9711400201FB53048F7
:1049B00001A9FDF763FB2F4CC0B92F492F4802F026
:1049C000E9FD2F4800F00EFF2E48FCF7CFFB40F624
:1049D000B83003F031F902F00BF823780133DBB281
:1049E000322B2370E3D902F037F8E0E7002323707D
:1049F0001F48FDF7FEFBC0B92349204802F0CAFD5D
:104A00001F4800F081FE1F48FCF7B0FB40F6B830AD
:104A100003F012F901F0ECFF23780133DBB2322B03
:104A20002370E5D902F018F8E2E70023237010485C
:104A3000FDF760FCC0B91549104802F0ABFD104805
:104A400000F0D0FE0F48FCF791FB40F6B83003F0C1
:104A5000F3F801F0CDFF23780133DBB2322B237062
:104A6000E5D901F0F9FFE2E70023237004B010BD9F
:104A700074140020D41400204FD100082015002009
:104A800019150020551300209DD10008F5D100080C
:104A900008B50A4B1A787AB100221A70FEF7DCFFCB
:104AA000FFF77EFFFFF782FFFEF7B0FFBDE808408B
:104AB0000348044902F06EBD08BD00BFD5140020B4
:104AC000201500204BD2000813B5D14C4FF0FF3316
:104AD00000934FF4165200232046CE49FEF77EFC89
:104AE00020460121FEF776FC002120460A46FEF70B
:104AF00085F8204601210022FEF780F82046022199
:104B00000022FEF77BF8204603210022FEF776F80C
:104B1000204604210022FEF771F8204605210022DC
:104B2000FEF76CF8204606210022FEF767F82046C3
:104B300007210022FEF762F8204608210022FEF736
:104B40005DF8204609210022FEF758F820460A2188
:104B50000022FEF753F820460B210022FEF74EF804
:104B600020460C210022FEF749F820460D210022A4
:104B7000FEF744F820460E210022FEF73FF82046BB
:104B80000F210022FEF73AF8204610210022FEF7FE
:104B900035F8204611210022FEF730F82046122178
:104BA0000022FEF72BF8204613210022FEF726F8FC
:104BB000204614210022FEF721F82046152100226C
:104BC000FEF71CF8204616210022FEF717F82046B3
:104BD00017210022FEF712F8204618210022FEF7C6
:104BE0000DF8204619210022FEF708F820461A2168
:104BF0000022FEF703F820461B210022FDF7FEFFEE
:104C000020461C210022FDF7F9FF20461D2100222D
:104C1000FDF7F4FF20461E210022FDF7EFFF20469E
:104C20001F210022FDF7EAFF204620210022FDF788
:104C3000E5FF204621210022FDF7E0FF204622214A
:104C40000022FDF7DBFF204623210022FDF7D6FFDF
:104C5000204624210022FDF7D1FF204625210022F5
:104C6000FDF7CCFF204626210022FDF7C7FF204696
:104C700027210022FDF7C2FF204628210022FDF750
:104C8000BDFF204629210022FDF7B8FF20462A213A
:104C90000022FDF7B3FF20462B210022FDF7AEFFD7
:104CA00020462C210022FDF7A9FF20462D210022BD
:104CB000FDF7A4FF20462E210022FDF79FFF20468E
:104CC0002F210022FDF79AFF204630210022FDF718
:104CD00095FF204631210022FDF790FF204632212A
:104CE0000022FDF78BFF204633210022FDF786FFCF
:104CF000204634210022FDF781FF20463521002285
:104D0000FDF77CFF204636210022FDF777FF204685
:104D100037210022FDF772FF204638210022FDF7DF
:104D20006DFF204639210022FDF768FF20463A2119
:104D30000022FDF763FF20463B210022FDF75EFFC6
:104D400020463C210022FDF759FF20463D2100224C
:104D5000FDF754FF20463E210022FDF74FFF20467D
:104D60003F210022FDF74AFF002120460A46FDF7B9
:104D70004EFF204601210022FDF749FF2046022177
:104D80000022FDF744FF204603210022FDF73FFFEC
:104D9000204604210022FDF73AFF2046052100228B
:104DA000FDF735FF204606210022FDF730FF2046A3
:104DB00007210022FDF72BFF002120460A46FDF7C0
:104DC00031FF204601210022FDF72CFF2046022161
:104DD0000022FDF727FF204603210022FDF722FFD6
:104DE000204604210022FDF71DFF20460521002258
:104DF000FDF718FF204606210022FDF713FF20468D
:104E000007210022FDF70EFF204600217F2203E04C
:104E1000D81400205015002002B0BDE81040FDF766
:104E2000DEBE00BF10B50D4C2046FEF7FBFB204652
:104E30000021FDF705FF80F00101C9B2032002F057
:104E4000CFFE20460121FDF7FBFEBDE8104080F0BB
:104E50000101C9B2042002F0C3BE00BFD814002073
:104E6000002110B50A460E48FDF7E1FE0121044677
:104E700000220B48FDF7DBFE58B154B100210A4671
:104E80000848FFF7CFFF0849084802F083FB0120DC
:104E900010BD0749054802F07DFB002010BD00BF92
:104EA000D8140020D714002083D200082015002039
:104EB000BAD2000830B554488BB00C46534902F0C2
:104EC00069FB0222214601A802F0AEFC504904A869
:104ED00002F043FC04A907A802F083FC01A907A87B
:104EE00002F033FD0146484802F04AFB07A802F0F1
:104EF000F2FB04A802F0EFFB039C082C21D1012354
:104F000004A801A9002202F0BBFD0A22002107A883
:104F100002F09BFC07A904A802F078FD021C18BF50
:104F2000012200213B48FDF782FE044607A802F05B
:104F3000D2FB04A802F0CFFB04A801A9012202239E
:104F40000BE0072C24D100210A463248FDF76FFE02
:104F500001A90446002204A8012302F091FD0A22BF
:104F6000002107A802F071FC07A904A802F04EFD79
:104F7000021C18BF012201212648FDF758FE0546F4
:104F800007A802F0A8FB04A802F0A5FB85B315E072
:104F9000062C07D0052C05D0042C03D0032C01D0FF
:104FA000022C0DD100210A461A48FDF740FE0121CE
:104FB000044600221748FDF73AFEC8B1601C0EE017
:104FC000012C19D100210A461248FDF730FE214676
:104FD000054600220F48FDF72AFE48B1681CC0B202
:104FE000022805D108480C4902F0D4FA012404E053
:104FF00005480A4902F0CEFA002401A802F06BFB32
:1050000020460BB030BD00BF20150020F1D20008B3
:1050100015D30008D814002022D3000846D3000876
:1050200030B5164C8BB00D462046154902F0B2FA49
:105030000222294601A802F0F7FB04A8114902F058
:105040008CFB04A907A802F0CCFB01A907A802F079
:105050007CFC0146204602F093FA07A802F03BFBD5
:1050600004A802F038FB0849204602F093FA01A890
:1050700002F031FB01200BB030BD00BF2015002035
:105080006AD300088FD300089CD3000837B50024EA
:105090000546134800940194FDF72AFB2346C25CA1
:1050A0000DF803200133082BF9D128469DF8001094
:1050B000FFF700FF80B128469DF80110FFF7B0FF11
:1050C000044648B100210A460648FFF7ABFE0649F0
:1050D000064802F05FFA00E00024204603B030BD2D
:1050E0007E140020D7140020C1D300082015002012
:1050F0000020704730B5002587B02C46012D21D007
:1051000018D3072D25D16846154902F026FB6946BC
:1051100003A802F066FB214603A802F035FC014615
:10512000104802F02DFA03A802F0D5FA684602F002
:10513000D2FA0EE0032002F03DFD012809D084F0F0
:10514000800406E0042002F035FD012801D040343F
:10515000E4B20135082DD1D1204607B030BD00BFE3
:1051600024D400082015002010B5002486B0013496
:10517000082C18D0072CFAD168460C4902F0EDFA39
:10518000694603A802F02DFB03A8002102F0FCFBF6
:105190000146074802F0F4F903A802F09CFA6846B9
:1051A00002F099FAE3E7002006B010BD2ED4000803
:1051B00020150020004870470415002038B50D4622
:1051C000044610B101280DD016E0032002F008FDBE
:1051D0000C480DB121460DE029460122BDE83840BA
:1051E000FDF725BD042002F0FBFC064821460DB169
:1051F0000022F3E70A46F1E703480449BDE83840D6
:1052000002F0C8B9D81400202015002039D40008B5
:105210000148FEF7D9B800BFD8140020002330B5EC
:10522000054618468B420FDAEA5C5040082210F01F
:10523000010F4FEA60041ABF84F0E000C0B2E0B290
:10524000013AF4D10133EDE730BD08B50320002168
:1052500002F06EFC0420002102F06AFC0020012113
:10526000FFF7ACFFBDE8084001200146FFF7A6BFED
:1052700008B51648FDF7DBF9B0B91549154802F035
:1052800089F901F0B5FB1148FDF7CCFA1248FFF798
:10529000E7FD40B911490F4802F07CF94FF47A70EC
:1052A00002F0CAFCF2E708BD0A480D4902F072F9A3
:1052B0000948FFF7EBFE40B90A49064802F06AF9CF
:1052C0004FF47A7002F0B8FCF2E708BD7E140020BB
:1052D0004ED4000820150020D71400208DD40008DB
:1052E000D0D4000812D500087047704708B51620C2
:1052F000002102F01DFC1720002102F019FC1620ED
:10530000012102F06DFCBDE808401720012102F0E8
:1053100067BC1720002102F00BBC1720042102F00B
:1053200007BC08B5FFF7F5FF1720012102F058FC74
:105330000121162002F054FC052002F08BFC002114
:10534000172002F04DFC062002F084FCBDE8084066
:105350001620002102F044BC08B5FFF7DAFF162042
:10536000002102F03DFC1720002102F039FC012150
:10537000162002F035FC062002F06CFC17200121FB
:1053800002F02EFCBDE80840062002F063BC10B518
:1053900000210446162002F023FC2046FFF7B9FF47
:1053A0000021172002F01CFC022002F053FC012116
:1053B000162002F015FC052002F04CFCBDE8104060
:1053C0001620002102F00CBC10B500210446162066
:1053D00002F006FC2046FFF79CFF0121172002F097
:1053E000FFFB022002F036FC0121162002F0F8FB40
:1053F000052002F02FFCBDE810401620002102F02D
:10540000EFBB70B50646FFF788FF0121172002F0B9
:10541000E7FB012002F01EFC1620012102F0E0FB58
:10542000012002F017FCFB25172002F0C3FB044605
:1054300040B1013D15F0FF05F6D13046FFF78CFF76
:10544000012070BD1620214602F0CAFB204670BD27
:1054500038B50C46FFF75DFF1620002102F0C0FBB7
:10546000082524F07F0303F0FF01172003B1012179
:1054700002F0B6FB0121162002F0B2FB022002F07E
:10548000E9FB1620002102F0ABFB013D0220640085
:1054900002F0E0FB15F0FF05E4B2E2D138BDF8B54B
:1054A00005460F46FFF739FF082600240021162085
:1054B00002F096FB022002F0CDFB1620012102F043
:1054C0008FFB64001720E4B202F074FB08B10134D2
:1054D000E4B20120013E02F0BDFB16F0FF06E5D16B
:1054E000284617B9FFF770FF01E0FFF750FF20468D
:1054F000F8BD0A22B1FBF2F302FB131202EB031018
:10550000C0B2704701F00F03090901EB810103EB01
:105510004100C0B270470000074A30B51368154615
:105520002C6819188C42044A04D81168994238BF73
:105530001368F5E730BD00BF0016002037B50C46F4
:105540000C480DF10701FCF72CFD9DF807304FF4D6
:105550007A705843084902F064FB9DF8073005460D
:1055600064205843054902F05CFB2844206003B0E6
:1055700030BD00BF7414002060E31600400D03002E
:1055800070B50E4615460024E3B2AB42074809D277
:10559000315D102202F08BF80448054901F0DFFF6D
:1055A0000134F1E7BDE8704001F0DEBF20150020B6
:1055B00099C9000830B595B040220546002104A8DD
:1055C00003F0A0FA002314A941F8503D284669468B
:1055D000FFF7B4FF009802F03DFB01F009FAFE234B
:1055E0008DF81030E0238DF8113011238DF8123032
:1055F00024238DF81330C0238DF8143003238DF845
:1056000015303B4B1B7803B155233A488DF81630C3
:10561000FCF76DFE01AC8DF8170021463548FCF70C
:10562000C1FD002304AA1A44E15C0133052B117269
:10563000F8D130482146FCF75CFC002304AA1A4448
:10564000E15C0133092B5173F8D10024012305A833
:1056500024218DF826308DF827408DF828408DF8CC
:1056600029408DF82A408DF82B408DF82C408DF87C
:105670002D408DF82E408DF82F408DF830408DF85C
:1056800031408DF832408DF833408DF834408DF83C
:1056900035408DF836408DF83740FFF7BFFD8DF867
:1056A0003800E30704AB234404F1010454BF0D2286
:1056B0000A22062C83F82920F3D10F490F4801F064
:1056C00069FF04A928462F22FFF75AFF0C48FFF76D
:1056D0000BFE0C4804A903682F229B689847C8203A
:1056E00002F0AAFA0648FFF700FE15B030BD00BF71
:1056F000981300207414002052D5000820150020B3
:10570000141500205015002010B586B01422044650
:10571000002101A803F0F6F9002306A941F8183D7D
:1057200020466946FFF70AFF009802F093FA01F05D
:105730005FF9FE238DF80430E0238DF80530122345
:105740008DF8063005238DF80730C0238DF808301A
:1057500003238DF809301D4B1B7803B155231C48DA
:105760008DF80A30FCF7C3FD01238DF80B000521ED
:1057700002A88DF80C30FFF751FD00238DF80D00C5
:10578000DA0701AA1A4403F1010354BF0D210A21CB
:10579000062B9172F4D10F490F4801F0FBFE01A9CD
:1057A00020461022FFF7ECFE0C48FFF79DFD0C4849
:1057B00001A9036810229B689847C82002F03CFAB0
:1057C0000648FFF792FD06B010BD00BF98130020F9
:1057D000741400206ED50008201500201415002038
:1057E0005015002010B586B014220446002101A8EF
:1057F00003F088F9002306A941F8183D20466946C0
:10580000FFF79CFE009802F025FA01F0F1F8FE2364
:105810008DF80430E0238DF8053013238DF8063021
:1058200005238DF80730C0238DF8083003238DF849
:1058300009301D4B1B7803B155231C488DF80A30E5
:10584000FCF755FD01238DF80B00052102A88DF80A
:105850000C30FFF7E3FC00238DF80D00DA0701AAF6
:105860001A4403F1010354BF0D210A21062B917242
:10587000F4D10F490F4801F08DFE01A920461022F6
:10588000FFF77EFE0C48FFF72FFD0C4801A90368C7
:1058900010229B689847C82002F0CEF90648FFF70F
:1058A00024FD06B010BD00BF981300207414002022
:1058B0006ED500082015002014150020501500207A
:1058C0002DE9F0418AB00546884617460021192285
:1058D00003A803F017F900260AA941F8206D28460D
:1058E0003D4CFFF72BFE029802F0B4F901F080F86E
:1058F00023780BB1637833B90096384836490122D2
:10590000374BFBF7D7FFFE238DF80C30E0238DF8E3
:105910000D3015238DF80E300E238DF80F30C02377
:105920008DF8103003238DF811302E4B1B7803B106
:1059300055232D488DF81230FCF7D9FC012321782E
:105940008DF8130029488DF814308DF81580FFF775
:10595000D9FD61788DF816002448FFF7D3FD0024A7
:105960008DF817000E2104A88DF818408DF8194005
:105970008DF81A408DF81B408DF81C408DF81D40A5
:10598000FFF74CFC8DF81E00E30703AB234404F142
:10599000010454BF0D220A22062CDA74F4D11449F2
:1059A000144801F0F7FD284603A91922FFF7E8FD86
:1059B0000024E3B2BB420CD201F01AF80E4803A94E
:1059C000036819229B689847C82002F035F9013412
:1059D000EFE70AB0BDE8F081161500207114002031
:1059E00083B70008981300207414002015150020B8
:1059F00094D5000820150020501500202DE9F04313
:105A00008BB08946904600212622074668461E46EE
:105A10003E4D03F077F800F0EBFFFE238DF80030E9
:105A2000E0238DF801302B68002409338DF8033012
:105A3000C0238DF80430364803238DF805308DF8E7
:105A400002408DF80640FCF752FC01238DF8083027
:105A50009DF8483029688DF809309DF84C308DF854
:105A60000B908DF807008DF80A308DF80C80A94650
:105A700004F10D05E3B2EDB20DF128088B4204F1FB
:105A80000104A84404DA234AD35C08F8283CEFE771
:105A9000093101A8FFF7C2FBAB1C08F8280CDBB2E8
:105AA00000215C1E11F0010F0AAAE4B201F101010C
:105AB000144403F101030CBF0D220A22062904F845
:105AC000282CDBB2EDD1073513495FFA85F80024A5
:105AD0001248C9F8004001F05DFD3846694642466B
